{
  "contractName": "TweetStorage",
  "abi": [
    {
      "inputs": [],
      "name": "controllerAddr",
      "outputs": [
        {
          "internalType": "address",
          "name": "",
          "type": "address"
        }
      ],
      "stateMutability": "view",
      "type": "function",
      "constant": true
    },
    {
      "inputs": [],
      "name": "ownerAddr",
      "outputs": [
        {
          "internalType": "address",
          "name": "",
          "type": "address"
        }
      ],
      "stateMutability": "view",
      "type": "function",
      "constant": true
    },
    {
      "inputs": [
        {
          "internalType": "address",
          "name": "_controllerAddr",
          "type": "address"
        }
      ],
      "name": "setControllerAddr",
      "outputs": [],
      "stateMutability": "nonpayable",
      "type": "function"
    },
    {
      "inputs": [
        {
          "internalType": "address",
          "name": "_newOwner",
          "type": "address"
        }
      ],
      "name": "transferOwnership",
      "outputs": [],
      "stateMutability": "nonpayable",
      "type": "function"
    },
    {
      "inputs": [
        {
          "internalType": "uint256",
          "name": "",
          "type": "uint256"
        }
      ],
      "name": "tweetIds",
      "outputs": [
        {
          "internalType": "uint256",
          "name": "",
          "type": "uint256"
        }
      ],
      "stateMutability": "view",
      "type": "function",
      "constant": true
    },
    {
      "inputs": [
        {
          "internalType": "uint256",
          "name": "",
          "type": "uint256"
        }
      ],
      "name": "tweets",
      "outputs": [
        {
          "internalType": "uint256",
          "name": "id",
          "type": "uint256"
        },
        {
          "internalType": "string",
          "name": "text",
          "type": "string"
        },
        {
          "internalType": "uint256",
          "name": "userId",
          "type": "uint256"
        },
        {
          "internalType": "uint256",
          "name": "postedAt",
          "type": "uint256"
        }
      ],
      "stateMutability": "view",
      "type": "function",
      "constant": true
    },
    {
      "inputs": [
        {
          "internalType": "uint256",
          "name": "_userId",
          "type": "uint256"
        },
        {
          "internalType": "string",
          "name": "_text",
          "type": "string"
        }
      ],
      "name": "createTweet",
      "outputs": [
        {
          "internalType": "uint256",
          "name": "",
          "type": "uint256"
        }
      ],
      "stateMutability": "nonpayable",
      "type": "function"
    },
    {
      "inputs": [
        {
          "internalType": "uint256",
          "name": "_userId",
          "type": "uint256"
        }
      ],
      "name": "getTweetIdsFromUser",
      "outputs": [
        {
          "internalType": "uint256[]",
          "name": "",
          "type": "uint256[]"
        }
      ],
      "stateMutability": "view",
      "type": "function",
      "constant": true
    },
    {
      "inputs": [],
      "name": "getNumTweets",
      "outputs": [
        {
          "internalType": "uint256",
          "name": "_numTweets",
          "type": "uint256"
        }
      ],
      "stateMutability": "view",
      "type": "function",
      "constant": true
    }
  ],
  "bytecode": "0x6080604052600060055534801561001557600080fd5b50336000806101000a81548173ffffffffffffffffffffffffffffffffffffffff021916908373ffffffffffffffffffffffffffffffffffffffff160217905550610cb6806100656000396000f3fe608060405234801561001057600080fd5b50600436106100935760003560e01c80639c675eaa116100665780639c675eaa14610144578063e8d857b014610162578063eb4fdc3f14610195578063ee255c57146101b3578063f2fde38b146101d157610093565b806317edf66d14610098578063317aae1b146100c85780636981fa7d146100f85780637cc82f2014610114575b600080fd5b6100b260048036038101906100ad91906107c2565b6101ed565b6040516100bf9190610964565b60405180910390f35b6100e260048036038101906100dd91906107c2565b610211565b6040516100ef9190610942565b60405180910390f35b610112600480360381019061010d9190610795565b61027c565b005b61012e600480360381019061012991906107ef565b610318565b60405161013b9190610964565b60405180910390f35b61014c610474565b6040516101599190610927565b60405180910390f35b61017c600480360381019061017791906107c2565b610498565b60405161018c949392919061097f565b60405180910390f35b61019d610550565b6040516101aa9190610964565b60405180910390f35b6101bb61055d565b6040516101c89190610927565b60405180910390f35b6101eb60048036038101906101e69190610795565b610583565b005b600481815481106101fd57600080fd5b906000526020600020016000915090505481565b60606003600083815260200190815260200160002080548060200260200160405190810160405280929190818152602001828054801561027057602002820191906000526020600020905b81548152602001906001019080831161025c575b50505050509050919050565b60008054906101000a900473ffffffffffffffffffffffffffffffffffffffff1673ffffffffffffffffffffffffffffffffffffffff163373ffffffffffffffffffffffffffffffffffffffff16146102d457600080fd5b80600160006101000a81548173ffffffffffffffffffffffffffffffffffffffff021916908373ffffffffffffffffffffffffffffffffffffffff16021790555050565b6000600160009054906101000a900473ffffffffffffffffffffffffffffffffffffffff1673ffffffffffffffffffffffffffffffffffffffff163373ffffffffffffffffffffffffffffffffffffffff161461037457600080fd5b6005600081548092919061038790610b57565b919050555060405180608001604052806005548152602001838152602001848152602001428152506002600060055481526020019081526020016000206000820151816000015560208201518160010190805190602001906103ea929190610658565b50604082015181600201556060820151816003015590505060036000848152602001908152602001600020600554908060018154018082558091505060019003906000526020600020016000909190919091505560046005549080600181540180825580915050600190039060005260206000200160009091909190915055600554905092915050565b60008054906101000a900473ffffffffffffffffffffffffffffffffffffffff1681565b60026020528060005260406000206000915090508060000154908060010180546104c190610af4565b80601f01602080910402602001604051908101604052809291908181526020018280546104ed90610af4565b801561053a5780601f1061050f5761010080835404028352916020019161053a565b820191906000526020600020905b81548152906001019060200180831161051d57829003601f168201915b5050505050908060020154908060030154905084565b6000600480549050905090565b600160009054906101000a900473ffffffffffffffffffffffffffffffffffffffff1681565b60008054906101000a900473ffffffffffffffffffffffffffffffffffffffff1673ffffffffffffffffffffffffffffffffffffffff163373ffffffffffffffffffffffffffffffffffffffff16146105db57600080fd5b600073ffffffffffffffffffffffffffffffffffffffff168173ffffffffffffffffffffffffffffffffffffffff16141561061557600080fd5b806000806101000a81548173ffffffffffffffffffffffffffffffffffffffff021916908373ffffffffffffffffffffffffffffffffffffffff16021790555050565b82805461066490610af4565b90600052602060002090601f01602090048101928261068657600085556106cd565b82601f1061069f57805160ff19168380011785556106cd565b828001600101855582156106cd579182015b828111156106cc5782518255916020019190600101906106b1565b5b5090506106da91906106de565b5090565b5b808211156106f75760008160009055506001016106df565b5090565b600061070e610709846109f0565b6109cb565b90508281526020810184848401111561072a57610729610c32565b5b610735848285610ab2565b509392505050565b60008135905061074c81610c52565b92915050565b600082601f83011261076757610766610c2d565b5b81356107778482602086016106fb565b91505092915050565b60008135905061078f81610c69565b92915050565b6000602082840312156107ab576107aa610c3c565b5b60006107b98482850161073d565b91505092915050565b6000602082840312156107d8576107d7610c3c565b5b60006107e684828501610780565b91505092915050565b6000806040838503121561080657610805610c3c565b5b600061081485828601610780565b925050602083013567ffffffffffffffff81111561083557610834610c37565b5b61084185828601610752565b9150509250929050565b60006108578383610909565b60208301905092915050565b61086c81610a76565b82525050565b600061087d82610a31565b6108878185610a54565b935061089283610a21565b8060005b838110156108c35781516108aa888261084b565b97506108b583610a47565b925050600181019050610896565b5085935050505092915050565b60006108db82610a3c565b6108e58185610a65565b93506108f5818560208601610ac1565b6108fe81610c41565b840191505092915050565b61091281610aa8565b82525050565b61092181610aa8565b82525050565b600060208201905061093c6000830184610863565b92915050565b6000602082019050818103600083015261095c8184610872565b905092915050565b60006020820190506109796000830184610918565b92915050565b60006080820190506109946000830187610918565b81810360208301526109a681866108d0565b90506109b56040830185610918565b6109c26060830184610918565b95945050505050565b60006109d56109e6565b90506109e18282610b26565b919050565b6000604051905090565b600067ffffffffffffffff821115610a0b57610a0a610bfe565b5b610a1482610c41565b9050602081019050919050565b6000819050602082019050919050565b600081519050919050565b600081519050919050565b6000602082019050919050565b600082825260208201905092915050565b600082825260208201905092915050565b6000610a8182610a88565b9050919050565b600073ffffffffffffffffffffffffffffffffffffffff82169050919050565b6000819050919050565b82818337600083830152505050565b60005b83811015610adf578082015181840152602081019050610ac4565b83811115610aee576000848401525b50505050565b60006002820490506001821680610b0c57607f821691505b60208210811415610b2057610b1f610bcf565b5b50919050565b610b2f82610c41565b810181811067ffffffffffffffff82111715610b4e57610b4d610bfe565b5b80604052505050565b6000610b6282610aa8565b91507fffffffffffffffffffffffffffffffffffffffffffffffffffffffffffffffff821415610b9557610b94610ba0565b5b600182019050919050565b7f4e487b7100000000000000000000000000000000000000000000000000000000600052601160045260246000fd5b7f4e487b7100000000000000000000000000000000000000000000000000000000600052602260045260246000fd5b7f4e487b7100000000000000000000000000000000000000000000000000000000600052604160045260246000fd5b600080fd5b600080fd5b600080fd5b600080fd5b6000601f19601f8301169050919050565b610c5b81610a76565b8114610c6657600080fd5b50565b610c7281610aa8565b8114610c7d57600080fd5b5056fea264697066735822122070284e033e6701994e1bd0fd58c4d2551a93ae494975791aa60b74e453aa320d64736f6c63430008060033",
  "immutableReferences": {},
  "source": "// SPDX-License-Identifier: UNLICENSED\npragma solidity ^0.8.6;\n\nimport \"../helpers/BaseStorage.sol\";\n\ncontract TweetStorage is BaseStorage {\n    struct Tweet {\n        uint256 id;\n        string text;\n        uint256 userId;\n        uint256 postedAt;\n    }\n\n    mapping(uint256 => Tweet) public tweets;\n    mapping(uint256 => uint256[]) userTweetIds;\n    uint256[] public tweetIds;\n\n    uint256 latestTweetId = 0;\n\n    function createTweet(uint256 _userId, string memory _text)\n        public\n        onlyController\n        returns (uint256)\n    {\n        latestTweetId++;\n\n        tweets[latestTweetId] = Tweet(\n            latestTweetId,\n            _text,\n            _userId,\n            block.timestamp\n        );\n        userTweetIds[_userId].push(latestTweetId);\n        tweetIds.push(latestTweetId);\n\n        return latestTweetId;\n    }\n\n    function getTweetIdsFromUser(uint256 _userId)\n        public\n        view\n        returns (uint256[] memory)\n    {\n        return userTweetIds[_userId];\n    }\n\n    function getNumTweets() public view returns (uint256 _numTweets) {\n        return tweetIds.length;\n    }\n}\n",
  "sourcePath": "/Users/divineolokor/Desktop/blockchain/Tweether/contracts/tweets/TweetStorage.sol",
  "compiler": {
    "name": "solc",
    "version": "0.8.6+commit.11564f7e.Emscripten.clang"
  },
  "schemaVersion": "3.4.1",
  "updatedAt": "2021-07-26T20:16:10.181Z",
  "networkType": "ethereum",
  "devdoc": {
    "kind": "dev",
    "methods": {},
    "version": 1
  },
  "userdoc": {
    "kind": "user",
    "methods": {},
    "version": 1
  }
}