{
  "contractName": "TweetStorage",
  "abi": [
    {
      "inputs": [],
      "name": "controllerAddr",
      "outputs": [
        {
          "internalType": "address",
          "name": "",
          "type": "address"
        }
      ],
      "stateMutability": "view",
      "type": "function",
      "constant": true
    },
    {
      "inputs": [],
      "name": "ownerAddr",
      "outputs": [
        {
          "internalType": "address",
          "name": "",
          "type": "address"
        }
      ],
      "stateMutability": "view",
      "type": "function",
      "constant": true
    },
    {
      "inputs": [
        {
          "internalType": "address",
          "name": "_controllerAddr",
          "type": "address"
        }
      ],
      "name": "setControllerAddr",
      "outputs": [],
      "stateMutability": "nonpayable",
      "type": "function"
    },
    {
      "inputs": [
        {
          "internalType": "address",
          "name": "_newOwner",
          "type": "address"
        }
      ],
      "name": "transferOwnership",
      "outputs": [],
      "stateMutability": "nonpayable",
      "type": "function"
    },
    {
      "inputs": [
        {
          "internalType": "uint256",
          "name": "",
          "type": "uint256"
        }
      ],
      "name": "tweets",
      "outputs": [
        {
          "internalType": "uint256",
          "name": "id",
          "type": "uint256"
        },
        {
          "internalType": "string",
          "name": "text",
          "type": "string"
        },
        {
          "internalType": "uint256",
          "name": "userId",
          "type": "uint256"
        },
        {
          "internalType": "uint256",
          "name": "postedAt",
          "type": "uint256"
        }
      ],
      "stateMutability": "view",
      "type": "function",
      "constant": true
    },
    {
      "inputs": [
        {
          "internalType": "uint256",
          "name": "_userId",
          "type": "uint256"
        },
        {
          "internalType": "string",
          "name": "_text",
          "type": "string"
        }
      ],
      "name": "createTweet",
      "outputs": [
        {
          "internalType": "uint256",
          "name": "",
          "type": "uint256"
        }
      ],
      "stateMutability": "nonpayable",
      "type": "function"
    },
    {
      "inputs": [
        {
          "internalType": "uint256",
          "name": "_userId",
          "type": "uint256"
        }
      ],
      "name": "getTweetIdsFromUser",
      "outputs": [
        {
          "internalType": "uint256[]",
          "name": "",
          "type": "uint256[]"
        }
      ],
      "stateMutability": "view",
      "type": "function",
      "constant": true
    }
  ],
  "bytecode": "0x6080604052600060045534801561001557600080fd5b50336000806101000a81548173ffffffffffffffffffffffffffffffffffffffff021916908373ffffffffffffffffffffffffffffffffffffffff160217905550610bf6806100656000396000f3fe608060405234801561001057600080fd5b506004361061007d5760003560e01c80639c675eaa1161005b5780639c675eaa146100fe578063e8d857b01461011c578063ee255c571461014f578063f2fde38b1461016d5761007d565b8063317aae1b146100825780636981fa7d146100b25780637cc82f20146100ce575b600080fd5b61009c60048036038101906100979190610702565b610189565b6040516100a99190610882565b60405180910390f35b6100cc60048036038101906100c791906106d5565b6101f4565b005b6100e860048036038101906100e3919061072f565b610290565b6040516100f591906108a4565b60405180910390f35b6101066103c1565b6040516101139190610867565b60405180910390f35b61013660048036038101906101319190610702565b6103e5565b60405161014694939291906108bf565b60405180910390f35b61015761049d565b6040516101649190610867565b60405180910390f35b610187600480360381019061018291906106d5565b6104c3565b005b6060600360008381526020019081526020016000208054806020026020016040519081016040528092919081815260200182805480156101e857602002820191906000526020600020905b8154815260200190600101908083116101d4575b50505050509050919050565b60008054906101000a900473ffffffffffffffffffffffffffffffffffffffff1673ffffffffffffffffffffffffffffffffffffffff163373ffffffffffffffffffffffffffffffffffffffff161461024c57600080fd5b80600160006101000a81548173ffffffffffffffffffffffffffffffffffffffff021916908373ffffffffffffffffffffffffffffffffffffffff16021790555050565b6000600160009054906101000a900473ffffffffffffffffffffffffffffffffffffffff1673ffffffffffffffffffffffffffffffffffffffff163373ffffffffffffffffffffffffffffffffffffffff16146102ec57600080fd5b600460008154809291906102ff90610a97565b91905055506040518060800160405280600454815260200183815260200184815260200142815250600260006004548152602001908152602001600020600082015181600001556020820151816001019080519060200190610362929190610598565b506040820151816002015560608201518160030155905050600360008481526020019081526020016000206004549080600181540180825580915050600190039060005260206000200160009091909190915055600454905092915050565b60008054906101000a900473ffffffffffffffffffffffffffffffffffffffff1681565b600260205280600052604060002060009150905080600001549080600101805461040e90610a34565b80601f016020809104026020016040519081016040528092919081815260200182805461043a90610a34565b80156104875780601f1061045c57610100808354040283529160200191610487565b820191906000526020600020905b81548152906001019060200180831161046a57829003601f168201915b5050505050908060020154908060030154905084565b600160009054906101000a900473ffffffffffffffffffffffffffffffffffffffff1681565b60008054906101000a900473ffffffffffffffffffffffffffffffffffffffff1673ffffffffffffffffffffffffffffffffffffffff163373ffffffffffffffffffffffffffffffffffffffff161461051b57600080fd5b600073ffffffffffffffffffffffffffffffffffffffff168173ffffffffffffffffffffffffffffffffffffffff16141561055557600080fd5b806000806101000a81548173ffffffffffffffffffffffffffffffffffffffff021916908373ffffffffffffffffffffffffffffffffffffffff16021790555050565b8280546105a490610a34565b90600052602060002090601f0160209004810192826105c6576000855561060d565b82601f106105df57805160ff191683800117855561060d565b8280016001018555821561060d579182015b8281111561060c5782518255916020019190600101906105f1565b5b50905061061a919061061e565b5090565b5b8082111561063757600081600090555060010161061f565b5090565b600061064e61064984610930565b61090b565b90508281526020810184848401111561066a57610669610b72565b5b6106758482856109f2565b509392505050565b60008135905061068c81610b92565b92915050565b600082601f8301126106a7576106a6610b6d565b5b81356106b784826020860161063b565b91505092915050565b6000813590506106cf81610ba9565b92915050565b6000602082840312156106eb576106ea610b7c565b5b60006106f98482850161067d565b91505092915050565b60006020828403121561071857610717610b7c565b5b6000610726848285016106c0565b91505092915050565b6000806040838503121561074657610745610b7c565b5b6000610754858286016106c0565b925050602083013567ffffffffffffffff81111561077557610774610b77565b5b61078185828601610692565b9150509250929050565b60006107978383610849565b60208301905092915050565b6107ac816109b6565b82525050565b60006107bd82610971565b6107c78185610994565b93506107d283610961565b8060005b838110156108035781516107ea888261078b565b97506107f583610987565b9250506001810190506107d6565b5085935050505092915050565b600061081b8261097c565b61082581856109a5565b9350610835818560208601610a01565b61083e81610b81565b840191505092915050565b610852816109e8565b82525050565b610861816109e8565b82525050565b600060208201905061087c60008301846107a3565b92915050565b6000602082019050818103600083015261089c81846107b2565b905092915050565b60006020820190506108b96000830184610858565b92915050565b60006080820190506108d46000830187610858565b81810360208301526108e68186610810565b90506108f56040830185610858565b6109026060830184610858565b95945050505050565b6000610915610926565b90506109218282610a66565b919050565b6000604051905090565b600067ffffffffffffffff82111561094b5761094a610b3e565b5b61095482610b81565b9050602081019050919050565b6000819050602082019050919050565b600081519050919050565b600081519050919050565b6000602082019050919050565b600082825260208201905092915050565b600082825260208201905092915050565b60006109c1826109c8565b9050919050565b600073ffffffffffffffffffffffffffffffffffffffff82169050919050565b6000819050919050565b82818337600083830152505050565b60005b83811015610a1f578082015181840152602081019050610a04565b83811115610a2e576000848401525b50505050565b60006002820490506001821680610a4c57607f821691505b60208210811415610a6057610a5f610b0f565b5b50919050565b610a6f82610b81565b810181811067ffffffffffffffff82111715610a8e57610a8d610b3e565b5b80604052505050565b6000610aa2826109e8565b91507fffffffffffffffffffffffffffffffffffffffffffffffffffffffffffffffff821415610ad557610ad4610ae0565b5b600182019050919050565b7f4e487b7100000000000000000000000000000000000000000000000000000000600052601160045260246000fd5b7f4e487b7100000000000000000000000000000000000000000000000000000000600052602260045260246000fd5b7f4e487b7100000000000000000000000000000000000000000000000000000000600052604160045260246000fd5b600080fd5b600080fd5b600080fd5b600080fd5b6000601f19601f8301169050919050565b610b9b816109b6565b8114610ba657600080fd5b50565b610bb2816109e8565b8114610bbd57600080fd5b5056fea2646970667358221220b1acbc2755ea8c3c6f4356dfd7151d37b33a7ea38248be7025897b69e20bfb8f64736f6c63430008060033",
  "immutableReferences": {},
  "source": "// SPDX-License-Identifier: UNLICENSED\npragma solidity ^0.8.6;\n\nimport \"../helpers/BaseStorage.sol\";\n\ncontract TweetStorage is BaseStorage {\n    struct Tweet {\n        uint256 id;\n        string text;\n        uint256 userId;\n        uint256 postedAt;\n    }\n\n    mapping(uint256 => Tweet) public tweets;\n    mapping(uint256 => uint256[]) userTweetIds;\n\n    uint256 latestTweetId = 0;\n\n    function createTweet(uint256 _userId, string memory _text)\n        public\n        onlyController\n        returns (uint256)\n    {\n        latestTweetId++;\n\n        tweets[latestTweetId] = Tweet(\n            latestTweetId,\n            _text,\n            _userId,\n            block.timestamp\n        );\n        userTweetIds[_userId].push(latestTweetId);\n\n        return latestTweetId;\n    }\n\n    function getTweetIdsFromUser(uint256 _userId)\n        public\n        view\n        returns (uint256[] memory)\n    {\n        return userTweetIds[_userId];\n    }\n}\n",
  "sourcePath": "/Users/divineolokor/Desktop/blockchain/Tweether/contracts/tweets/TweetStorage.sol",
  "compiler": {
    "name": "solc",
    "version": "0.8.6+commit.11564f7e.Emscripten.clang"
  },
  "schemaVersion": "3.4.1",
  "updatedAt": "2021-07-24T04:07:05.575Z",
  "networkType": "ethereum",
  "devdoc": {
    "kind": "dev",
    "methods": {},
    "version": 1
  },
  "userdoc": {
    "kind": "user",
    "methods": {},
    "version": 1
  }
}