{
  "contractName": "UserStorage",
  "abi": [
    {
      "inputs": [],
      "name": "controllerAddr",
      "outputs": [
        {
          "internalType": "address",
          "name": "",
          "type": "address"
        }
      ],
      "stateMutability": "view",
      "type": "function",
      "constant": true
    },
    {
      "inputs": [],
      "name": "ownerAddr",
      "outputs": [
        {
          "internalType": "address",
          "name": "",
          "type": "address"
        }
      ],
      "stateMutability": "view",
      "type": "function",
      "constant": true
    },
    {
      "inputs": [
        {
          "internalType": "uint256",
          "name": "",
          "type": "uint256"
        }
      ],
      "name": "profiles",
      "outputs": [
        {
          "internalType": "uint256",
          "name": "id",
          "type": "uint256"
        },
        {
          "internalType": "bytes32",
          "name": "username",
          "type": "bytes32"
        }
      ],
      "stateMutability": "view",
      "type": "function",
      "constant": true
    },
    {
      "inputs": [
        {
          "internalType": "address",
          "name": "_controllerAddr",
          "type": "address"
        }
      ],
      "name": "setControllerAddr",
      "outputs": [],
      "stateMutability": "nonpayable",
      "type": "function"
    },
    {
      "inputs": [
        {
          "internalType": "address",
          "name": "_newOwner",
          "type": "address"
        }
      ],
      "name": "transferOwnership",
      "outputs": [],
      "stateMutability": "nonpayable",
      "type": "function"
    },
    {
      "inputs": [
        {
          "internalType": "bytes32",
          "name": "username",
          "type": "bytes32"
        }
      ],
      "name": "createUser",
      "outputs": [
        {
          "internalType": "uint256",
          "name": "id",
          "type": "uint256"
        }
      ],
      "stateMutability": "nonpayable",
      "type": "function"
    }
  ],
  "bytecode": "0x6080604052600060035534801561001557600080fd5b50336000806101000a81548173ffffffffffffffffffffffffffffffffffffffff021916908373ffffffffffffffffffffffffffffffffffffffff16021790555061066c806100656000396000f3fe608060405234801561001057600080fd5b50600436106100625760003560e01c80636981fa7d146100675780639c675eaa14610083578063abf7bfd8146100a1578063c36fe3d6146100d1578063ee255c5714610102578063f2fde38b14610120575b600080fd5b610081600480360381019061007c919061041b565b61013c565b005b61008b6101d8565b60405161009891906104cf565b60405180910390f35b6100bb60048036038101906100b69190610448565b6101fc565b6040516100c891906104ea565b60405180910390f35b6100eb60048036038101906100e69190610475565b6102bd565b6040516100f9929190610505565b60405180910390f35b61010a6102e1565b60405161011791906104cf565b60405180910390f35b61013a6004803603810190610135919061041b565b610307565b005b60008054906101000a900473ffffffffffffffffffffffffffffffffffffffff1673ffffffffffffffffffffffffffffffffffffffff163373ffffffffffffffffffffffffffffffffffffffff161461019457600080fd5b80600160006101000a81548173ffffffffffffffffffffffffffffffffffffffff021916908373ffffffffffffffffffffffffffffffffffffffff16021790555050565b60008054906101000a900473ffffffffffffffffffffffffffffffffffffffff1681565b6000600160009054906101000a900473ffffffffffffffffffffffffffffffffffffffff1673ffffffffffffffffffffffffffffffffffffffff163373ffffffffffffffffffffffffffffffffffffffff161461025857600080fd5b6003600081548092919061026b90610574565b9190505550604051806040016040528060035481526020018381525060026000600354815260200190815260200160002060008201518160000155602082015181600101559050506003549050919050565b60026020528060005260406000206000915090508060000154908060010154905082565b600160009054906101000a900473ffffffffffffffffffffffffffffffffffffffff1681565b60008054906101000a900473ffffffffffffffffffffffffffffffffffffffff1673ffffffffffffffffffffffffffffffffffffffff163373ffffffffffffffffffffffffffffffffffffffff161461035f57600080fd5b600073ffffffffffffffffffffffffffffffffffffffff168173ffffffffffffffffffffffffffffffffffffffff16141561039957600080fd5b806000806101000a81548173ffffffffffffffffffffffffffffffffffffffff021916908373ffffffffffffffffffffffffffffffffffffffff16021790555050565b6000813590506103eb816105f1565b92915050565b60008135905061040081610608565b92915050565b6000813590506104158161061f565b92915050565b600060208284031215610431576104306105ec565b5b600061043f848285016103dc565b91505092915050565b60006020828403121561045e5761045d6105ec565b5b600061046c848285016103f1565b91505092915050565b60006020828403121561048b5761048a6105ec565b5b600061049984828501610406565b91505092915050565b6104ab8161052e565b82525050565b6104ba81610540565b82525050565b6104c98161056a565b82525050565b60006020820190506104e460008301846104a2565b92915050565b60006020820190506104ff60008301846104c0565b92915050565b600060408201905061051a60008301856104c0565b61052760208301846104b1565b9392505050565b60006105398261054a565b9050919050565b6000819050919050565b600073ffffffffffffffffffffffffffffffffffffffff82169050919050565b6000819050919050565b600061057f8261056a565b91507fffffffffffffffffffffffffffffffffffffffffffffffffffffffffffffffff8214156105b2576105b16105bd565b5b600182019050919050565b7f4e487b7100000000000000000000000000000000000000000000000000000000600052601160045260246000fd5b600080fd5b6105fa8161052e565b811461060557600080fd5b50565b61061181610540565b811461061c57600080fd5b50565b6106288161056a565b811461063357600080fd5b5056fea26469706673582212209fbb6ef7e069194e2f0a17ce53c6ae7d7873243bfbe2274de6929a837be1c5ce64736f6c63430008060033",
  "immutableReferences": {},
  "source": "// SPDX-License-Identifier: UNLICENSED\npragma solidity ^0.8.6;\n\nimport \"../helpers/BaseStorage.sol\";\n\ncontract UserStorage is BaseStorage {\n    struct Profile {\n        uint256 id;\n        bytes32 username;\n    }\n\n    mapping(uint256 => Profile) public profiles;\n\n    uint256 latestUserId = 0;\n\n    function createUser(bytes32 username)\n        public\n        onlyController\n        returns (uint256 id)\n    {\n        latestUserId++;\n\n        profiles[latestUserId] = Profile(latestUserId, username);\n\n        return latestUserId;\n    }\n\n    // This is redundant becuase we have defined public on the profiles variable. So an automatic getter is specified on the profiles by solidity by default\n    // function getUserFromId(uint256 _userId)\n    //     public\n    //     view\n    //     returns (uint256, bytes32)\n    // {\n    //     return (profiles[_userId].id, profiles[_userId].username);\n    // }\n}\n",
  "sourcePath": "/Users/divineolokor/Desktop/blockchain/Tweether/contracts/users/UserStorage.sol",
  "compiler": {
    "name": "solc",
    "version": "0.8.6+commit.11564f7e.Emscripten.clang"
  },
  "schemaVersion": "3.4.1",
  "updatedAt": "2021-07-22T19:28:37.896Z",
  "networkType": "ethereum",
  "devdoc": {
    "kind": "dev",
    "methods": {},
    "version": 1
  },
  "userdoc": {
    "kind": "user",
    "methods": {},
    "version": 1
  }
}