{
  "contractName": "UserStorage",
  "abi": [
    {
      "inputs": [
        {
          "internalType": "address",
          "name": "",
          "type": "address"
        }
      ],
      "name": "addresses",
      "outputs": [
        {
          "internalType": "uint256",
          "name": "",
          "type": "uint256"
        }
      ],
      "stateMutability": "view",
      "type": "function",
      "constant": true
    },
    {
      "inputs": [],
      "name": "controllerAddr",
      "outputs": [
        {
          "internalType": "address",
          "name": "",
          "type": "address"
        }
      ],
      "stateMutability": "view",
      "type": "function",
      "constant": true
    },
    {
      "inputs": [],
      "name": "ownerAddr",
      "outputs": [
        {
          "internalType": "address",
          "name": "",
          "type": "address"
        }
      ],
      "stateMutability": "view",
      "type": "function",
      "constant": true
    },
    {
      "inputs": [
        {
          "internalType": "uint256",
          "name": "",
          "type": "uint256"
        }
      ],
      "name": "profiles",
      "outputs": [
        {
          "internalType": "uint256",
          "name": "id",
          "type": "uint256"
        },
        {
          "internalType": "bytes32",
          "name": "username",
          "type": "bytes32"
        },
        {
          "internalType": "bytes32",
          "name": "firstName",
          "type": "bytes32"
        },
        {
          "internalType": "bytes32",
          "name": "lastName",
          "type": "bytes32"
        },
        {
          "internalType": "string",
          "name": "bio",
          "type": "string"
        },
        {
          "internalType": "string",
          "name": "gravatarEmail",
          "type": "string"
        }
      ],
      "stateMutability": "view",
      "type": "function",
      "constant": true
    },
    {
      "inputs": [
        {
          "internalType": "address",
          "name": "_controllerAddr",
          "type": "address"
        }
      ],
      "name": "setControllerAddr",
      "outputs": [],
      "stateMutability": "nonpayable",
      "type": "function"
    },
    {
      "inputs": [
        {
          "internalType": "address",
          "name": "_newOwner",
          "type": "address"
        }
      ],
      "name": "transferOwnership",
      "outputs": [],
      "stateMutability": "nonpayable",
      "type": "function"
    },
    {
      "inputs": [
        {
          "internalType": "bytes32",
          "name": "",
          "type": "bytes32"
        }
      ],
      "name": "usernames",
      "outputs": [
        {
          "internalType": "uint256",
          "name": "",
          "type": "uint256"
        }
      ],
      "stateMutability": "view",
      "type": "function",
      "constant": true
    },
    {
      "inputs": [
        {
          "internalType": "address",
          "name": "_address",
          "type": "address"
        },
        {
          "internalType": "bytes32",
          "name": "_username",
          "type": "bytes32"
        },
        {
          "internalType": "bytes32",
          "name": "_firstName",
          "type": "bytes32"
        },
        {
          "internalType": "bytes32",
          "name": "_lastName",
          "type": "bytes32"
        },
        {
          "internalType": "string",
          "name": "_bio",
          "type": "string"
        },
        {
          "internalType": "string",
          "name": "_gravatarEmail",
          "type": "string"
        }
      ],
      "name": "createUser",
      "outputs": [
        {
          "internalType": "uint256",
          "name": "",
          "type": "uint256"
        }
      ],
      "stateMutability": "nonpayable",
      "type": "function"
    }
  ],
  "bytecode": "0x6080604052600060055534801561001557600080fd5b50336000806101000a81548173ffffffffffffffffffffffffffffffffffffffff021916908373ffffffffffffffffffffffffffffffffffffffff160217905550610d05806100656000396000f3fe608060405234801561001057600080fd5b50600436106100885760003560e01c8063d399e63d1161005b578063d399e63d1461012c578063ec4d88d71461015c578063ee255c571461018c578063f2fde38b146101aa57610088565b80636981fa7d1461008d57806382d38954146100a95780639c675eaa146100d9578063c36fe3d6146100f7575b600080fd5b6100a760048036038101906100a291906107db565b6101c6565b005b6100c360048036038101906100be91906107db565b610262565b6040516100d091906109a8565b60405180910390f35b6100e161027a565b6040516100ee919061098d565b60405180910390f35b610111600480360381019061010c91906108fa565b61029e565b604051610123969594939291906109c3565b60405180910390f35b61014660048036038101906101419190610808565b6103ea565b60405161015391906109a8565b60405180910390f35b610176600480360381019061017191906108cd565b610576565b60405161018391906109a8565b60405180910390f35b61019461058e565b6040516101a1919061098d565b60405180910390f35b6101c460048036038101906101bf91906107db565b6105b4565b005b60008054906101000a900473ffffffffffffffffffffffffffffffffffffffff1673ffffffffffffffffffffffffffffffffffffffff163373ffffffffffffffffffffffffffffffffffffffff161461021e57600080fd5b80600160006101000a81548173ffffffffffffffffffffffffffffffffffffffff021916908373ffffffffffffffffffffffffffffffffffffffff16021790555050565b60036020528060005260406000206000915090505481565b60008054906101000a900473ffffffffffffffffffffffffffffffffffffffff1681565b60026020528060005260406000206000915090508060000154908060010154908060020154908060030154908060040180546102d990610b2c565b80601f016020809104026020016040519081016040528092919081815260200182805461030590610b2c565b80156103525780601f1061032757610100808354040283529160200191610352565b820191906000526020600020905b81548152906001019060200180831161033557829003601f168201915b50505050509080600501805461036790610b2c565b80601f016020809104026020016040519081016040528092919081815260200182805461039390610b2c565b80156103e05780601f106103b5576101008083540402835291602001916103e0565b820191906000526020600020905b8154815290600101906020018083116103c357829003601f168201915b5050505050905086565b6000600160009054906101000a900473ffffffffffffffffffffffffffffffffffffffff1673ffffffffffffffffffffffffffffffffffffffff163373ffffffffffffffffffffffffffffffffffffffff161461044657600080fd5b6005600081548092919061045990610b8f565b91905055506040518060c001604052806005548152602001878152602001868152602001858152602001848152602001838152506002600060055481526020019081526020016000206000820151816000015560208201518160010155604082015181600201556060820151816003015560808201518160040190805190602001906104e6929190610689565b5060a0820151816005019080519060200190610503929190610689565b50905050600554600360008973ffffffffffffffffffffffffffffffffffffffff1673ffffffffffffffffffffffffffffffffffffffff16815260200190815260200160002081905550600554600460008881526020019081526020016000208190555060055490509695505050505050565b60046020528060005260406000206000915090505481565b600160009054906101000a900473ffffffffffffffffffffffffffffffffffffffff1681565b60008054906101000a900473ffffffffffffffffffffffffffffffffffffffff1673ffffffffffffffffffffffffffffffffffffffff163373ffffffffffffffffffffffffffffffffffffffff161461060c57600080fd5b600073ffffffffffffffffffffffffffffffffffffffff168173ffffffffffffffffffffffffffffffffffffffff16141561064657600080fd5b806000806101000a81548173ffffffffffffffffffffffffffffffffffffffff021916908373ffffffffffffffffffffffffffffffffffffffff16021790555050565b82805461069590610b2c565b90600052602060002090601f0160209004810192826106b757600085556106fe565b82601f106106d057805160ff19168380011785556106fe565b828001600101855582156106fe579182015b828111156106fd5782518255916020019190600101906106e2565b5b50905061070b919061070f565b5090565b5b80821115610728576000816000905550600101610710565b5090565b600061073f61073a84610a57565b610a32565b90508281526020810184848401111561075b5761075a610c6a565b5b610766848285610aea565b509392505050565b60008135905061077d81610c8a565b92915050565b60008135905061079281610ca1565b92915050565b600082601f8301126107ad576107ac610c65565b5b81356107bd84826020860161072c565b91505092915050565b6000813590506107d581610cb8565b92915050565b6000602082840312156107f1576107f0610c74565b5b60006107ff8482850161076e565b91505092915050565b60008060008060008060c0878903121561082557610824610c74565b5b600061083389828a0161076e565b965050602061084489828a01610783565b955050604061085589828a01610783565b945050606061086689828a01610783565b935050608087013567ffffffffffffffff81111561088757610886610c6f565b5b61089389828a01610798565b92505060a087013567ffffffffffffffff8111156108b4576108b3610c6f565b5b6108c089828a01610798565b9150509295509295509295565b6000602082840312156108e3576108e2610c74565b5b60006108f184828501610783565b91505092915050565b6000602082840312156109105761090f610c74565b5b600061091e848285016107c6565b91505092915050565b61093081610aa4565b82525050565b61093f81610ab6565b82525050565b600061095082610a88565b61095a8185610a93565b935061096a818560208601610af9565b61097381610c79565b840191505092915050565b61098781610ae0565b82525050565b60006020820190506109a26000830184610927565b92915050565b60006020820190506109bd600083018461097e565b92915050565b600060c0820190506109d8600083018961097e565b6109e56020830188610936565b6109f26040830187610936565b6109ff6060830186610936565b8181036080830152610a118185610945565b905081810360a0830152610a258184610945565b9050979650505050505050565b6000610a3c610a4d565b9050610a488282610b5e565b919050565b6000604051905090565b600067ffffffffffffffff821115610a7257610a71610c36565b5b610a7b82610c79565b9050602081019050919050565b600081519050919050565b600082825260208201905092915050565b6000610aaf82610ac0565b9050919050565b6000819050919050565b600073ffffffffffffffffffffffffffffffffffffffff82169050919050565b6000819050919050565b82818337600083830152505050565b60005b83811015610b17578082015181840152602081019050610afc565b83811115610b26576000848401525b50505050565b60006002820490506001821680610b4457607f821691505b60208210811415610b5857610b57610c07565b5b50919050565b610b6782610c79565b810181811067ffffffffffffffff82111715610b8657610b85610c36565b5b80604052505050565b6000610b9a82610ae0565b91507fffffffffffffffffffffffffffffffffffffffffffffffffffffffffffffffff821415610bcd57610bcc610bd8565b5b600182019050919050565b7f4e487b7100000000000000000000000000000000000000000000000000000000600052601160045260246000fd5b7f4e487b7100000000000000000000000000000000000000000000000000000000600052602260045260246000fd5b7f4e487b7100000000000000000000000000000000000000000000000000000000600052604160045260246000fd5b600080fd5b600080fd5b600080fd5b600080fd5b6000601f19601f8301169050919050565b610c9381610aa4565b8114610c9e57600080fd5b50565b610caa81610ab6565b8114610cb557600080fd5b50565b610cc181610ae0565b8114610ccc57600080fd5b5056fea26469706673582212208b76377f83456556a6b2f65d7e7fef0dc23436741fffde32d7e9765e56809dc164736f6c63430008060033",
  "immutableReferences": {},
  "source": "// SPDX-License-Identifier: UNLICENSED\npragma solidity ^0.8.6;\n\nimport \"../helpers/BaseStorage.sol\";\n\ncontract UserStorage is BaseStorage {\n    struct Profile {\n        uint256 id;\n        bytes32 username;\n        bytes32 firstName;\n        bytes32 lastName;\n        string bio;\n        string gravatarEmail;\n    }\n\n    mapping(uint256 => Profile) public profiles;\n    mapping(address => uint256) public addresses;\n    mapping(bytes32 => uint256) public usernames;\n\n    uint256 latestUserId = 0;\n\n    function createUser(\n        address _address,\n        bytes32 _username,\n        bytes32 _firstName,\n        bytes32 _lastName,\n        string memory _bio,\n        string memory _gravatarEmail\n    ) public onlyController returns (uint256) {\n        latestUserId++;\n\n        profiles[latestUserId] = Profile(\n            latestUserId,\n            _username,\n            _firstName,\n            _lastName,\n            _bio,\n            _gravatarEmail\n        );\n\n        addresses[_address] = latestUserId;\n        usernames[_username] = latestUserId;\n\n        return latestUserId;\n    }\n\n    // This is redundant becuase we have defined public on the profiles variable. So an automatic getter is specified on the profiles by solidity by default\n    // function getUserFromId(uint256 _userId)\n    //     public\n    //     view\n    //     returns (uint256, bytes32)\n    // {\n    //     return (profiles[_userId].id, profiles[_userId].username);\n    // }\n}\n",
  "sourcePath": "/Users/divineolokor/Desktop/blockchain/Tweether/contracts/users/UserStorage.sol",
  "compiler": {
    "name": "solc",
    "version": "0.8.6+commit.11564f7e.Emscripten.clang"
  },
  "schemaVersion": "3.4.1",
  "updatedAt": "2021-07-24T04:07:04.647Z",
  "networkType": "ethereum",
  "devdoc": {
    "kind": "dev",
    "methods": {},
    "version": 1
  },
  "userdoc": {
    "kind": "user",
    "methods": {},
    "version": 1
  }
}