{
  "contractName": "BaseController",
  "abi": [
    {
      "anonymous": false,
      "inputs": [
        {
          "indexed": true,
          "internalType": "address",
          "name": "_from",
          "type": "address"
        },
        {
          "indexed": true,
          "internalType": "address",
          "name": "_to",
          "type": "address"
        }
      ],
      "name": "OwnershipTransferred",
      "type": "event"
    },
    {
      "inputs": [],
      "name": "acceptOwnership",
      "outputs": [],
      "stateMutability": "nonpayable",
      "type": "function"
    },
    {
      "inputs": [],
      "name": "newOwner",
      "outputs": [
        {
          "internalType": "address payable",
          "name": "",
          "type": "address"
        }
      ],
      "stateMutability": "view",
      "type": "function"
    },
    {
      "inputs": [],
      "name": "ownerAddr",
      "outputs": [
        {
          "internalType": "address payable",
          "name": "",
          "type": "address"
        }
      ],
      "stateMutability": "view",
      "type": "function"
    },
    {
      "inputs": [
        {
          "internalType": "address payable",
          "name": "_newOwner",
          "type": "address"
        }
      ],
      "name": "transferOwnership",
      "outputs": [],
      "stateMutability": "nonpayable",
      "type": "function"
    },
    {
      "inputs": [
        {
          "internalType": "address",
          "name": "_managerAddr",
          "type": "address"
        }
      ],
      "name": "setManagerAddr",
      "outputs": [],
      "stateMutability": "nonpayable",
      "type": "function"
    }
  ],
  "bytecode": "0x608060405234801561001057600080fd5b50336000806101000a81548173ffffffffffffffffffffffffffffffffffffffff021916908373ffffffffffffffffffffffffffffffffffffffff16021790555061058c806100606000396000f3fe608060405234801561001057600080fd5b50600436106100575760003560e01c80637978b2311461005c57806379ba5097146100785780639c675eaa14610082578063d4ee1d90146100a0578063f2fde38b146100be575b600080fd5b6100766004803603810190610071919061045b565b6100da565b005b610080610176565b005b61008a610312565b60405161009791906104c4565b60405180910390f35b6100a8610336565b6040516100b591906104c4565b60405180910390f35b6100d860048036038101906100d39190610488565b61035c565b005b60008054906101000a900473ffffffffffffffffffffffffffffffffffffffff1673ffffffffffffffffffffffffffffffffffffffff163373ffffffffffffffffffffffffffffffffffffffff161461013257600080fd5b80600260006101000a81548173ffffffffffffffffffffffffffffffffffffffff021916908373ffffffffffffffffffffffffffffffffffffffff16021790555050565b600160009054906101000a900473ffffffffffffffffffffffffffffffffffffffff1673ffffffffffffffffffffffffffffffffffffffff163373ffffffffffffffffffffffffffffffffffffffff16146101d057600080fd5b600160009054906101000a900473ffffffffffffffffffffffffffffffffffffffff1673ffffffffffffffffffffffffffffffffffffffff1660008054906101000a900473ffffffffffffffffffffffffffffffffffffffff1673ffffffffffffffffffffffffffffffffffffffff167f8be0079c531659141344cd1fd0a4f28419497f9722a3daafe3b4186f6b6457e060405160405180910390a3600160009054906101000a900473ffffffffffffffffffffffffffffffffffffffff166000806101000a81548173ffffffffffffffffffffffffffffffffffffffff021916908373ffffffffffffffffffffffffffffffffffffffff1602179055506000600160006101000a81548173ffffffffffffffffffffffffffffffffffffffff021916908373ffffffffffffffffffffffffffffffffffffffff160217905550565b60008054906101000a900473ffffffffffffffffffffffffffffffffffffffff1681565b600160009054906101000a900473ffffffffffffffffffffffffffffffffffffffff1681565b60008054906101000a900473ffffffffffffffffffffffffffffffffffffffff1673ffffffffffffffffffffffffffffffffffffffff163373ffffffffffffffffffffffffffffffffffffffff16146103b457600080fd5b600073ffffffffffffffffffffffffffffffffffffffff168173ffffffffffffffffffffffffffffffffffffffff1614156103ee57600080fd5b806000806101000a81548173ffffffffffffffffffffffffffffffffffffffff021916908373ffffffffffffffffffffffffffffffffffffffff16021790555050565b60008135905061044081610528565b92915050565b6000813590506104558161053f565b92915050565b60006020828403121561047157610470610523565b5b600061047f84828501610431565b91505092915050565b60006020828403121561049e5761049d610523565b5b60006104ac84828501610446565b91505092915050565b6104be816104f1565b82525050565b60006020820190506104d960008301846104b5565b92915050565b60006104ea82610503565b9050919050565b60006104fc82610503565b9050919050565b600073ffffffffffffffffffffffffffffffffffffffff82169050919050565b600080fd5b610531816104df565b811461053c57600080fd5b50565b610548816104f1565b811461055357600080fd5b5056fea2646970667358221220fea30fa4d0920e79d128b98a95ff38aa06b766675368477e5b0532067416f17e64736f6c63430008060033",
  "immutableReferences": {},
  "source": "// SPDX-License-Identifier: UNLICENSED\npragma solidity ^0.8.6;\n\nimport \"./Owned.sol\";\n\ncontract BaseController is Owned {\n    // The Contract Manager's address\n    address managerAddr;\n\n    function setManagerAddr(address _managerAddr) public onlyOwner {\n        managerAddr = _managerAddr;\n    }\n}\n",
  "sourcePath": "/Users/divineolokor/Desktop/blockchain/Tweether/contracts/helpers/BaseController.sol",
  "compiler": {
    "name": "solc",
    "version": "0.8.6+commit.11564f7e.Emscripten.clang"
  },
  "schemaVersion": "3.4.1",
  "updatedAt": "2021-07-28T23:52:35.964Z",
  "devdoc": {
    "kind": "dev",
    "methods": {},
    "version": 1
  },
  "userdoc": {
    "kind": "user",
    "methods": {},
    "version": 1
  }
}