{
  "contractName": "ContractManager",
  "abi": [
    {
      "inputs": [],
      "name": "ownerAddr",
      "outputs": [
        {
          "internalType": "address",
          "name": "",
          "type": "address"
        }
      ],
      "stateMutability": "view",
      "type": "function",
      "constant": true
    },
    {
      "inputs": [
        {
          "internalType": "address",
          "name": "_newOwner",
          "type": "address"
        }
      ],
      "name": "transferOwnership",
      "outputs": [],
      "stateMutability": "nonpayable",
      "type": "function"
    },
    {
      "inputs": [
        {
          "internalType": "string",
          "name": "_name",
          "type": "string"
        },
        {
          "internalType": "address",
          "name": "_address",
          "type": "address"
        }
      ],
      "name": "setAddress",
      "outputs": [],
      "stateMutability": "nonpayable",
      "type": "function"
    },
    {
      "inputs": [
        {
          "internalType": "string",
          "name": "_name",
          "type": "string"
        }
      ],
      "name": "getAddress",
      "outputs": [
        {
          "internalType": "address",
          "name": "",
          "type": "address"
        }
      ],
      "stateMutability": "view",
      "type": "function",
      "constant": true
    },
    {
      "inputs": [
        {
          "internalType": "string",
          "name": "_name",
          "type": "string"
        }
      ],
      "name": "deleteAddress",
      "outputs": [],
      "stateMutability": "nonpayable",
      "type": "function"
    }
  ],
  "bytecode": "0x608060405234801561001057600080fd5b50336000806101000a81548173ffffffffffffffffffffffffffffffffffffffff021916908373ffffffffffffffffffffffffffffffffffffffff16021790555061067c806100606000396000f3fe608060405234801561001057600080fd5b50600436106100575760003560e01c80639b2ea4bd1461005c5780639c675eaa14610078578063bf40fac114610096578063c193b42a146100c6578063f2fde38b146100e2575b600080fd5b610076600480360381019061007191906103fc565b6100fe565b005b61008061015f565b60405161008d91906104af565b60405180910390f35b6100b060048036038101906100ab91906103b3565b610183565b6040516100bd91906104af565b60405180910390f35b6100e060048036038101906100db91906103b3565b6101cb565b005b6100fc60048036038101906100f79190610386565b61022c565b005b8060018360405161010f9190610498565b908152602001604051809103902060006101000a81548173ffffffffffffffffffffffffffffffffffffffff021916908373ffffffffffffffffffffffffffffffffffffffff1602179055505050565b60008054906101000a900473ffffffffffffffffffffffffffffffffffffffff1681565b60006001826040516101959190610498565b908152602001604051809103902060009054906101000a900473ffffffffffffffffffffffffffffffffffffffff169050919050565b60006001826040516101dd9190610498565b908152602001604051809103902060006101000a81548173ffffffffffffffffffffffffffffffffffffffff021916908373ffffffffffffffffffffffffffffffffffffffff16021790555050565b60008054906101000a900473ffffffffffffffffffffffffffffffffffffffff1673ffffffffffffffffffffffffffffffffffffffff163373ffffffffffffffffffffffffffffffffffffffff161461028457600080fd5b600073ffffffffffffffffffffffffffffffffffffffff168173ffffffffffffffffffffffffffffffffffffffff1614156102be57600080fd5b806000806101000a81548173ffffffffffffffffffffffffffffffffffffffff021916908373ffffffffffffffffffffffffffffffffffffffff16021790555050565b600061031461030f846104ef565b6104ca565b9050828152602081018484840111156103305761032f61060f565b5b61033b848285610568565b509392505050565b6000813590506103528161062f565b92915050565b600082601f83011261036d5761036c61060a565b5b813561037d848260208601610301565b91505092915050565b60006020828403121561039c5761039b610619565b5b60006103aa84828501610343565b91505092915050565b6000602082840312156103c9576103c8610619565b5b600082013567ffffffffffffffff8111156103e7576103e6610614565b5b6103f384828501610358565b91505092915050565b6000806040838503121561041357610412610619565b5b600083013567ffffffffffffffff81111561043157610430610614565b5b61043d85828601610358565b925050602061044e85828601610343565b9150509250929050565b61046181610536565b82525050565b600061047282610520565b61047c818561052b565b935061048c818560208601610577565b80840191505092915050565b60006104a48284610467565b915081905092915050565b60006020820190506104c46000830184610458565b92915050565b60006104d46104e5565b90506104e082826105aa565b919050565b6000604051905090565b600067ffffffffffffffff82111561050a576105096105db565b5b6105138261061e565b9050602081019050919050565b600081519050919050565b600081905092915050565b600061054182610548565b9050919050565b600073ffffffffffffffffffffffffffffffffffffffff82169050919050565b82818337600083830152505050565b60005b8381101561059557808201518184015260208101905061057a565b838111156105a4576000848401525b50505050565b6105b38261061e565b810181811067ffffffffffffffff821117156105d2576105d16105db565b5b80604052505050565b7f4e487b7100000000000000000000000000000000000000000000000000000000600052604160045260246000fd5b600080fd5b600080fd5b600080fd5b600080fd5b6000601f19601f8301169050919050565b61063881610536565b811461064357600080fd5b5056fea2646970667358221220754aae83e8a93b2376d19eff15a413fe96d5a153381d095f6e4f0288d30955c564736f6c63430008060033",
  "immutableReferences": {},
  "source": "// SPDX-License-Identifier: UNLICENSED\npragma solidity ^0.8.6;\n\nimport \"./helpers/Owned.sol\";\n\ncontract ContractManager is Owned {\n    mapping(string => address) addresses;\n\n    function setAddress(string memory _name, address _address) public {\n        addresses[_name] = _address;\n    }\n\n    function getAddress(string memory _name) public view returns (address) {\n        return addresses[_name];\n    }\n\n    function deleteAddress(string memory _name) public {\n        addresses[_name] = address(0);\n    }\n}\n",
  "sourcePath": "/Users/divineolokor/Desktop/blockchain/Tweether/contracts/ContractManager.sol",
  "compiler": {
    "name": "solc",
    "version": "0.8.6+commit.11564f7e.Emscripten.clang"
  },
  "schemaVersion": "3.4.1",
  "updatedAt": "2021-07-22T19:28:38.529Z",
  "networkType": "ethereum",
  "devdoc": {
    "kind": "dev",
    "methods": {},
    "version": 1
  },
  "userdoc": {
    "kind": "user",
    "methods": {},
    "version": 1
  }
}