{
  "contractName": "Owned",
  "abi": [
    {
      "inputs": [],
      "stateMutability": "nonpayable",
      "type": "constructor"
    },
    {
      "inputs": [],
      "name": "ownerAddr",
      "outputs": [
        {
          "internalType": "address",
          "name": "",
          "type": "address"
        }
      ],
      "stateMutability": "view",
      "type": "function"
    },
    {
      "inputs": [
        {
          "internalType": "address",
          "name": "_newOwner",
          "type": "address"
        }
      ],
      "name": "transferOwnership",
      "outputs": [],
      "stateMutability": "nonpayable",
      "type": "function"
    }
  ],
  "bytecode": "0x608060405234801561001057600080fd5b50336000806101000a81548173ffffffffffffffffffffffffffffffffffffffff021916908373ffffffffffffffffffffffffffffffffffffffff16021790555061025e806100606000396000f3fe608060405234801561001057600080fd5b50600436106100365760003560e01c80639c675eaa1461003b578063f2fde38b14610059575b600080fd5b610043610075565b60405161005091906101bf565b60405180910390f35b610073600480360381019061006e9190610183565b610099565b005b60008054906101000a900473ffffffffffffffffffffffffffffffffffffffff1681565b60008054906101000a900473ffffffffffffffffffffffffffffffffffffffff1673ffffffffffffffffffffffffffffffffffffffff163373ffffffffffffffffffffffffffffffffffffffff16146100f157600080fd5b600073ffffffffffffffffffffffffffffffffffffffff168173ffffffffffffffffffffffffffffffffffffffff16141561012b57600080fd5b806000806101000a81548173ffffffffffffffffffffffffffffffffffffffff021916908373ffffffffffffffffffffffffffffffffffffffff16021790555050565b60008135905061017d81610211565b92915050565b6000602082840312156101995761019861020c565b5b60006101a78482850161016e565b91505092915050565b6101b9816101da565b82525050565b60006020820190506101d460008301846101b0565b92915050565b60006101e5826101ec565b9050919050565b600073ffffffffffffffffffffffffffffffffffffffff82169050919050565b600080fd5b61021a816101da565b811461022557600080fd5b5056fea2646970667358221220a4baa624f5208ddd899db2d031f2bb5e47396e2f7753b99f59afa385a2c9122664736f6c63430008060033",
  "immutableReferences": {},
  "source": "// SPDX-License-Identifier: UNLICENSED\npragma solidity ^0.8.6;\n\ncontract Owned {\n    address public ownerAddr;\n\n    constructor() {\n        ownerAddr = msg.sender;\n    }\n\n    modifier onlyOwner() {\n        require(msg.sender == ownerAddr);\n        _;\n    }\n\n    function transferOwnership(address _newOwner) public onlyOwner {\n        // The new address cannot be null:\n        require(_newOwner != address(0));\n\n        ownerAddr = _newOwner;\n    }\n}\n",
  "sourcePath": "/Users/divineolokor/Desktop/blockchain/Tweether/contracts/helpers/Owned.sol",
  "compiler": {
    "name": "solc",
    "version": "0.8.6+commit.11564f7e.Emscripten.clang"
  },
  "schemaVersion": "3.4.1",
  "updatedAt": "2021-07-24T02:51:37.972Z",
  "devdoc": {
    "kind": "dev",
    "methods": {},
    "version": 1
  },
  "userdoc": {
    "kind": "user",
    "methods": {},
    "version": 1
  }
}