{
  "contractName": "TweetController",
  "abi": [
    {
      "anonymous": false,
      "inputs": [
        {
          "indexed": true,
          "internalType": "address",
          "name": "_from",
          "type": "address"
        },
        {
          "indexed": true,
          "internalType": "address",
          "name": "_to",
          "type": "address"
        }
      ],
      "name": "OwnershipTransferred",
      "type": "event"
    },
    {
      "inputs": [],
      "name": "acceptOwnership",
      "outputs": [],
      "stateMutability": "nonpayable",
      "type": "function"
    },
    {
      "inputs": [],
      "name": "newOwner",
      "outputs": [
        {
          "internalType": "address payable",
          "name": "",
          "type": "address"
        }
      ],
      "stateMutability": "view",
      "type": "function",
      "constant": true
    },
    {
      "inputs": [],
      "name": "ownerAddr",
      "outputs": [
        {
          "internalType": "address payable",
          "name": "",
          "type": "address"
        }
      ],
      "stateMutability": "view",
      "type": "function",
      "constant": true
    },
    {
      "inputs": [
        {
          "internalType": "address",
          "name": "_managerAddr",
          "type": "address"
        }
      ],
      "name": "setManagerAddr",
      "outputs": [],
      "stateMutability": "nonpayable",
      "type": "function"
    },
    {
      "inputs": [
        {
          "internalType": "address payable",
          "name": "_newOwner",
          "type": "address"
        }
      ],
      "name": "transferOwnership",
      "outputs": [],
      "stateMutability": "nonpayable",
      "type": "function"
    },
    {
      "inputs": [
        {
          "internalType": "string",
          "name": "_text",
          "type": "string"
        }
      ],
      "name": "createTweet",
      "outputs": [
        {
          "internalType": "uint256",
          "name": "",
          "type": "uint256"
        }
      ],
      "stateMutability": "nonpayable",
      "type": "function"
    }
  ],
  "bytecode": "0x608060405234801561001057600080fd5b50336000806101000a81548173ffffffffffffffffffffffffffffffffffffffff021916908373ffffffffffffffffffffffffffffffffffffffff160217905550610c6b806100606000396000f3fe608060405234801561001057600080fd5b50600436106100625760003560e01c80637978b2311461006757806379ba5097146100835780637c9cd2bc1461008d5780639c675eaa146100bd578063d4ee1d90146100db578063f2fde38b146100f9575b600080fd5b610081600480360381019061007c91906107ad565b610115565b005b61008b6101b1565b005b6100a760048036038101906100a29190610834565b61034d565b6040516100b491906109cc565b60405180910390f35b6100c56105ca565b6040516100d29190610971565b60405180910390f35b6100e36105ee565b6040516100f09190610971565b60405180910390f35b610113600480360381019061010e9190610807565b610614565b005b60008054906101000a900473ffffffffffffffffffffffffffffffffffffffff1673ffffffffffffffffffffffffffffffffffffffff163373ffffffffffffffffffffffffffffffffffffffff161461016d57600080fd5b80600260006101000a81548173ffffffffffffffffffffffffffffffffffffffff021916908373ffffffffffffffffffffffffffffffffffffffff16021790555050565b600160009054906101000a900473ffffffffffffffffffffffffffffffffffffffff1673ffffffffffffffffffffffffffffffffffffffff163373ffffffffffffffffffffffffffffffffffffffff161461020b57600080fd5b600160009054906101000a900473ffffffffffffffffffffffffffffffffffffffff1673ffffffffffffffffffffffffffffffffffffffff1660008054906101000a900473ffffffffffffffffffffffffffffffffffffffff1673ffffffffffffffffffffffffffffffffffffffff167f8be0079c531659141344cd1fd0a4f28419497f9722a3daafe3b4186f6b6457e060405160405180910390a3600160009054906101000a900473ffffffffffffffffffffffffffffffffffffffff166000806101000a81548173ffffffffffffffffffffffffffffffffffffffff021916908373ffffffffffffffffffffffffffffffffffffffff1602179055506000600160006101000a81548173ffffffffffffffffffffffffffffffffffffffff021916908373ffffffffffffffffffffffffffffffffffffffff160217905550565b600080600260009054906101000a900473ffffffffffffffffffffffffffffffffffffffff16905060008173ffffffffffffffffffffffffffffffffffffffff1663bf40fac16040518163ffffffff1660e01b81526004016103ae906109ac565b60206040518083038186803b1580156103c657600080fd5b505afa1580156103da573d6000803e3d6000fd5b505050506040513d601f19601f820116820180604052508101906103fe91906107da565b9050600081905060008173ffffffffffffffffffffffffffffffffffffffff166382d38954336040518263ffffffff1660e01b81526004016104409190610956565b60206040518083038186803b15801561045857600080fd5b505afa15801561046c573d6000803e3d6000fd5b505050506040513d601f19601f82011682018060405250810190610490919061087d565b905060008114156104a057600080fd5b60008473ffffffffffffffffffffffffffffffffffffffff1663bf40fac16040518163ffffffff1660e01b81526004016104d99061098c565b60206040518083038186803b1580156104f157600080fd5b505afa158015610505573d6000803e3d6000fd5b505050506040513d601f19601f8201168201806040525081019061052991906107da565b905060008190508073ffffffffffffffffffffffffffffffffffffffff16637cc82f20848a6040518363ffffffff1660e01b815260040161056b9291906109e7565b602060405180830381600087803b15801561058557600080fd5b505af1158015610599573d6000803e3d6000fd5b505050506040513d601f19601f820116820180604052508101906105bd919061087d565b9650505050505050919050565b60008054906101000a900473ffffffffffffffffffffffffffffffffffffffff1681565b600160009054906101000a900473ffffffffffffffffffffffffffffffffffffffff1681565b60008054906101000a900473ffffffffffffffffffffffffffffffffffffffff1673ffffffffffffffffffffffffffffffffffffffff163373ffffffffffffffffffffffffffffffffffffffff161461066c57600080fd5b600073ffffffffffffffffffffffffffffffffffffffff168173ffffffffffffffffffffffffffffffffffffffff1614156106a657600080fd5b806000806101000a81548173ffffffffffffffffffffffffffffffffffffffff021916908373ffffffffffffffffffffffffffffffffffffffff16021790555050565b60006106fc6106f784610a3c565b610a17565b90508281526020810184848401111561071857610717610b7e565b5b610723848285610ad7565b509392505050565b60008135905061073a81610bf0565b92915050565b60008151905061074f81610bf0565b92915050565b60008135905061076481610c07565b92915050565b600082601f83011261077f5761077e610b79565b5b813561078f8482602086016106e9565b91505092915050565b6000815190506107a781610c1e565b92915050565b6000602082840312156107c3576107c2610b88565b5b60006107d18482850161072b565b91505092915050565b6000602082840312156107f0576107ef610b88565b5b60006107fe84828501610740565b91505092915050565b60006020828403121561081d5761081c610b88565b5b600061082b84828501610755565b91505092915050565b60006020828403121561084a57610849610b88565b5b600082013567ffffffffffffffff81111561086857610867610b83565b5b6108748482850161076a565b91505092915050565b60006020828403121561089357610892610b88565b5b60006108a184828501610798565b91505092915050565b6108b381610a9b565b82525050565b6108c281610a89565b82525050565b60006108d382610a6d565b6108dd8185610a78565b93506108ed818560208601610ae6565b6108f681610b8d565b840191505092915050565b600061090e600c83610a78565b915061091982610b9e565b602082019050919050565b6000610931600b83610a78565b915061093c82610bc7565b602082019050919050565b61095081610acd565b82525050565b600060208201905061096b60008301846108b9565b92915050565b600060208201905061098660008301846108aa565b92915050565b600060208201905081810360008301526109a581610901565b9050919050565b600060208201905081810360008301526109c581610924565b9050919050565b60006020820190506109e16000830184610947565b92915050565b60006040820190506109fc6000830185610947565b8181036020830152610a0e81846108c8565b90509392505050565b6000610a21610a32565b9050610a2d8282610b19565b919050565b6000604051905090565b600067ffffffffffffffff821115610a5757610a56610b4a565b5b610a6082610b8d565b9050602081019050919050565b600081519050919050565b600082825260208201905092915050565b6000610a9482610aad565b9050919050565b6000610aa682610aad565b9050919050565b600073ffffffffffffffffffffffffffffffffffffffff82169050919050565b6000819050919050565b82818337600083830152505050565b60005b83811015610b04578082015181840152602081019050610ae9565b83811115610b13576000848401525b50505050565b610b2282610b8d565b810181811067ffffffffffffffff82111715610b4157610b40610b4a565b5b80604052505050565b7f4e487b7100000000000000000000000000000000000000000000000000000000600052604160045260246000fd5b600080fd5b600080fd5b600080fd5b600080fd5b6000601f19601f8301169050919050565b7f547765657453746f726167650000000000000000000000000000000000000000600082015250565b7f5573657253746f72616765000000000000000000000000000000000000000000600082015250565b610bf981610a89565b8114610c0457600080fd5b50565b610c1081610a9b565b8114610c1b57600080fd5b50565b610c2781610acd565b8114610c3257600080fd5b5056fea26469706673582212202e870d4e42449c8bc8479602fdafbd3ce9e49bf5053d3539737389d82c8c01ee64736f6c63430008060033",
  "immutableReferences": {},
  "source": "// SPDX-License-Identifier: UNLICENSED\npragma solidity ^0.8.6;\n\nimport \"../helpers/BaseController.sol\";\nimport \"../ContractManager.sol\";\nimport \"./TweetStorage.sol\";\nimport \"../users/UserStorage.sol\";\n\ncontract TweetController is BaseController {\n    function createTweet(string memory _text) public returns (uint256) {\n        ContractManager _manager = ContractManager(managerAddr);\n\n        address _userStorageAddr = _manager.getAddress(\"UserStorage\");\n        UserStorage _userStorage = UserStorage(_userStorageAddr);\n\n        // Get the user ID from the address\n        uint256 _userId = _userStorage.addresses(msg.sender);\n\n        // Make sure the user ID isn't null\n        require(_userId != 0);\n\n        address _tweetStorageAddr = _manager.getAddress(\"TweetStorage\");\n        TweetStorage _tweetStorage = TweetStorage(_tweetStorageAddr);\n\n        return _tweetStorage.createTweet(_userId, _text);\n    }\n}\n",
  "sourcePath": "/Users/divineolokor/Desktop/blockchain/Tweether/contracts/tweets/TweetController.sol",
  "compiler": {
    "name": "solc",
    "version": "0.8.6+commit.11564f7e.Emscripten.clang"
  },
  "schemaVersion": "3.4.1",
  "updatedAt": "2021-07-29T00:53:31.510Z",
  "networkType": "ethereum",
  "devdoc": {
    "kind": "dev",
    "methods": {},
    "version": 1
  },
  "userdoc": {
    "kind": "user",
    "methods": {},
    "version": 1
  }
}