{
  "contractName": "TweetherToken",
  "abi": [
    {
      "inputs": [],
      "stateMutability": "nonpayable",
      "type": "constructor"
    },
    {
      "anonymous": false,
      "inputs": [
        {
          "indexed": true,
          "internalType": "address",
          "name": "tokenOwner",
          "type": "address"
        },
        {
          "indexed": true,
          "internalType": "address",
          "name": "spender",
          "type": "address"
        },
        {
          "indexed": false,
          "internalType": "uint256",
          "name": "tokens",
          "type": "uint256"
        }
      ],
      "name": "Approval",
      "type": "event"
    },
    {
      "anonymous": false,
      "inputs": [
        {
          "indexed": true,
          "internalType": "address",
          "name": "_from",
          "type": "address"
        },
        {
          "indexed": true,
          "internalType": "address",
          "name": "_to",
          "type": "address"
        }
      ],
      "name": "OwnershipTransferred",
      "type": "event"
    },
    {
      "anonymous": false,
      "inputs": [
        {
          "indexed": true,
          "internalType": "address",
          "name": "from",
          "type": "address"
        },
        {
          "indexed": true,
          "internalType": "address",
          "name": "to",
          "type": "address"
        },
        {
          "indexed": false,
          "internalType": "uint256",
          "name": "tokens",
          "type": "uint256"
        }
      ],
      "name": "Transfer",
      "type": "event"
    },
    {
      "stateMutability": "nonpayable",
      "type": "fallback"
    },
    {
      "inputs": [],
      "name": "FOR_FOUNDER",
      "outputs": [
        {
          "internalType": "uint256",
          "name": "",
          "type": "uint256"
        }
      ],
      "stateMutability": "view",
      "type": "function",
      "constant": true
    },
    {
      "inputs": [],
      "name": "FOR_ICO",
      "outputs": [
        {
          "internalType": "uint256",
          "name": "",
          "type": "uint256"
        }
      ],
      "stateMutability": "view",
      "type": "function",
      "constant": true
    },
    {
      "inputs": [],
      "name": "acceptOwnership",
      "outputs": [],
      "stateMutability": "nonpayable",
      "type": "function"
    },
    {
      "inputs": [],
      "name": "decimals",
      "outputs": [
        {
          "internalType": "uint8",
          "name": "",
          "type": "uint8"
        }
      ],
      "stateMutability": "view",
      "type": "function",
      "constant": true
    },
    {
      "inputs": [],
      "name": "name",
      "outputs": [
        {
          "internalType": "string",
          "name": "",
          "type": "string"
        }
      ],
      "stateMutability": "view",
      "type": "function",
      "constant": true
    },
    {
      "inputs": [],
      "name": "newOwner",
      "outputs": [
        {
          "internalType": "address payable",
          "name": "",
          "type": "address"
        }
      ],
      "stateMutability": "view",
      "type": "function",
      "constant": true
    },
    {
      "inputs": [],
      "name": "ownerAddr",
      "outputs": [
        {
          "internalType": "address payable",
          "name": "",
          "type": "address"
        }
      ],
      "stateMutability": "view",
      "type": "function",
      "constant": true
    },
    {
      "inputs": [],
      "name": "symbol",
      "outputs": [
        {
          "internalType": "string",
          "name": "",
          "type": "string"
        }
      ],
      "stateMutability": "view",
      "type": "function",
      "constant": true
    },
    {
      "inputs": [
        {
          "internalType": "address payable",
          "name": "_newOwner",
          "type": "address"
        }
      ],
      "name": "transferOwnership",
      "outputs": [],
      "stateMutability": "nonpayable",
      "type": "function"
    },
    {
      "inputs": [],
      "name": "totalSupply",
      "outputs": [
        {
          "internalType": "uint256",
          "name": "",
          "type": "uint256"
        }
      ],
      "stateMutability": "view",
      "type": "function",
      "constant": true
    },
    {
      "inputs": [
        {
          "internalType": "address",
          "name": "tokenOwner",
          "type": "address"
        }
      ],
      "name": "balanceOf",
      "outputs": [
        {
          "internalType": "uint256",
          "name": "balance",
          "type": "uint256"
        }
      ],
      "stateMutability": "view",
      "type": "function",
      "constant": true
    },
    {
      "inputs": [
        {
          "internalType": "address",
          "name": "to",
          "type": "address"
        },
        {
          "internalType": "uint256",
          "name": "tokens",
          "type": "uint256"
        }
      ],
      "name": "transfer",
      "outputs": [
        {
          "internalType": "bool",
          "name": "success",
          "type": "bool"
        }
      ],
      "stateMutability": "nonpayable",
      "type": "function"
    },
    {
      "inputs": [
        {
          "internalType": "address",
          "name": "spender",
          "type": "address"
        },
        {
          "internalType": "uint256",
          "name": "tokens",
          "type": "uint256"
        }
      ],
      "name": "approve",
      "outputs": [
        {
          "internalType": "bool",
          "name": "success",
          "type": "bool"
        }
      ],
      "stateMutability": "nonpayable",
      "type": "function"
    },
    {
      "inputs": [
        {
          "internalType": "address",
          "name": "from",
          "type": "address"
        },
        {
          "internalType": "address",
          "name": "to",
          "type": "address"
        },
        {
          "internalType": "uint256",
          "name": "tokens",
          "type": "uint256"
        }
      ],
      "name": "transferFrom",
      "outputs": [
        {
          "internalType": "bool",
          "name": "success",
          "type": "bool"
        }
      ],
      "stateMutability": "nonpayable",
      "type": "function"
    },
    {
      "inputs": [
        {
          "internalType": "address",
          "name": "tokenOwner",
          "type": "address"
        },
        {
          "internalType": "address",
          "name": "spender",
          "type": "address"
        }
      ],
      "name": "allowance",
      "outputs": [
        {
          "internalType": "uint256",
          "name": "remaining",
          "type": "uint256"
        }
      ],
      "stateMutability": "view",
      "type": "function",
      "constant": true
    },
    {
      "inputs": [
        {
          "internalType": "address",
          "name": "spender",
          "type": "address"
        },
        {
          "internalType": "uint256",
          "name": "tokens",
          "type": "uint256"
        },
        {
          "internalType": "bytes",
          "name": "data",
          "type": "bytes"
        }
      ],
      "name": "approveAndCall",
      "outputs": [
        {
          "internalType": "bool",
          "name": "success",
          "type": "bool"
        }
      ],
      "stateMutability": "nonpayable",
      "type": "function"
    },
    {
      "inputs": [
        {
          "internalType": "address",
          "name": "tokenAddress",
          "type": "address"
        },
        {
          "internalType": "uint256",
          "name": "tokens",
          "type": "uint256"
        }
      ],
      "name": "transferAnyERC20Token",
      "outputs": [
        {
          "internalType": "bool",
          "name": "success",
          "type": "bool"
        }
      ],
      "stateMutability": "nonpayable",
      "type": "function"
    },
    {
      "inputs": [
        {
          "internalType": "address",
          "name": "icoAddr",
          "type": "address"
        }
      ],
      "name": "fundICO",
      "outputs": [],
      "stateMutability": "nonpayable",
      "type": "function"
    }
  ],
  "bytecode": "0x6080604052620b71b06006556203d0906007553480156200001f57600080fd5b50336000806101000a81548173ffffffffffffffffffffffffffffffffffffffff021916908373ffffffffffffffffffffffffffffffffffffffff1602179055506040518060400160405280600381526020017f545745000000000000000000000000000000000000000000000000000000000081525060029080519060200190620000ad92919062000227565b506040518060400160405280600d81526020017f5477656574686572546f6b656e0000000000000000000000000000000000000081525060039080519060200190620000fb92919062000227565b506000600460006101000a81548160ff021916908360ff1602179055506006546007546200012a919062000305565b600581905550600554600860008060009054906101000a900473ffffffffffffffffffffffffffffffffffffffff1673ffffffffffffffffffffffffffffffffffffffff1673ffffffffffffffffffffffffffffffffffffffff1681526020019081526020016000208190555060008054906101000a900473ffffffffffffffffffffffffffffffffffffffff1673ffffffffffffffffffffffffffffffffffffffff16600073ffffffffffffffffffffffffffffffffffffffff167fddf252ad1be2c89b69c2b068fc378daa952ba7f163c4a11628f55a4df523b3ef600554604051620002199190620002e8565b60405180910390a362000400565b82805462000235906200036c565b90600052602060002090601f016020900481019282620002595760008555620002a5565b82601f106200027457805160ff1916838001178555620002a5565b82800160010185558215620002a5579182015b82811115620002a457825182559160200191906001019062000287565b5b509050620002b49190620002b8565b5090565b5b80821115620002d3576000816000905550600101620002b9565b5090565b620002e28162000362565b82525050565b6000602082019050620002ff6000830184620002d7565b92915050565b6000620003128262000362565b91506200031f8362000362565b9250827fffffffffffffffffffffffffffffffffffffffffffffffffffffffffffffffff03821115620003575762000356620003a2565b5b828201905092915050565b6000819050919050565b600060028204905060018216806200038557607f821691505b602082108114156200039c576200039b620003d1565b5b50919050565b7f4e487b7100000000000000000000000000000000000000000000000000000000600052601160045260246000fd5b7f4e487b7100000000000000000000000000000000000000000000000000000000600052602260045260246000fd5b6117aa80620004106000396000f3fe608060405234801561001057600080fd5b506004361061011a5760003560e01c806395d89b41116100a2578063cd36793611610071578063cd36793614610322578063d4ee1d901461033e578063dc39d06d1461035c578063dd62ed3e1461038c578063f2fde38b146103bc5761011b565b806395d89b41146102865780639c675eaa146102a4578063a9059cbb146102c2578063cae9ca51146102f25761011b565b806323b872dd116100e957806323b872dd146101e0578063313ce5671461021057806332a52fcd1461022e57806370a082311461024c57806379ba50971461027c5761011b565b806306fdde0314610156578063095ea7b31461017457806318160ddd146101a4578063229233b6146101c25761011b565b5b6040517f08c379a000000000000000000000000000000000000000000000000000000000815260040161014d9061138d565b60405180910390fd5b61015e6103d8565b60405161016b919061136b565b60405180910390f35b61018e600480360381019061018991906110f5565b610466565b60405161019b9190611350565b60405180910390f35b6101ac610558565b6040516101b991906113ad565b60405180910390f35b6101ca610562565b6040516101d791906113ad565b60405180910390f35b6101fa60048036038101906101f591906110a2565b610568565b6040516102079190611350565b60405180910390f35b610218610719565b60405161022591906113c8565b60405180910390f35b61023661072c565b60405161024391906113ad565b60405180910390f35b61026660048036038101906102619190611008565b610732565b60405161027391906113ad565b60405180910390f35b61028461077b565b005b61028e610917565b60405161029b919061136b565b60405180910390f35b6102ac6109a5565b6040516102b991906112c0565b60405180910390f35b6102dc60048036038101906102d791906110f5565b6109c9565b6040516102e99190611350565b60405180910390f35b61030c60048036038101906103079190611135565b610ae6565b6040516103199190611350565b60405180910390f35b61033c60048036038101906103379190611008565b610c4a565b005b610346610cb2565b60405161035391906112c0565b60405180910390f35b610376600480360381019061037191906110f5565b610cd8565b6040516103839190611350565b60405180910390f35b6103a660048036038101906103a19190611062565b610de8565b6040516103b391906113ad565b60405180910390f35b6103d660048036038101906103d19190611035565b610e6f565b005b600380546103e5906115da565b80601f0160208091040260200160405190810160405280929190818152602001828054610411906115da565b801561045e5780601f106104335761010080835404028352916020019161045e565b820191906000526020600020905b81548152906001019060200180831161044157829003601f168201915b505050505081565b600081600960003373ffffffffffffffffffffffffffffffffffffffff1673ffffffffffffffffffffffffffffffffffffffff16815260200190815260200160002060008573ffffffffffffffffffffffffffffffffffffffff1673ffffffffffffffffffffffffffffffffffffffff168152602001908152602001600020819055508273ffffffffffffffffffffffffffffffffffffffff163373ffffffffffffffffffffffffffffffffffffffff167f8c5be1e5ebec7d5bd14f71427d1e84f3dd0314c0f7b2291e5b200ac8c7c3b9258460405161054691906113ad565b60405180910390a36001905092915050565b6000600554905090565b60075481565b600081600860003373ffffffffffffffffffffffffffffffffffffffff1673ffffffffffffffffffffffffffffffffffffffff16815260200190815260200160002060008282546105b991906114c7565b9250508190555081600960008673ffffffffffffffffffffffffffffffffffffffff1673ffffffffffffffffffffffffffffffffffffffff16815260200190815260200160002060003373ffffffffffffffffffffffffffffffffffffffff1673ffffffffffffffffffffffffffffffffffffffff168152602001908152602001600020600082825461064c91906114c7565b9250508190555081600860008573ffffffffffffffffffffffffffffffffffffffff1673ffffffffffffffffffffffffffffffffffffffff16815260200190815260200160002060008282546106a29190611471565b925050819055508273ffffffffffffffffffffffffffffffffffffffff168473ffffffffffffffffffffffffffffffffffffffff167fddf252ad1be2c89b69c2b068fc378daa952ba7f163c4a11628f55a4df523b3ef8460405161070691906113ad565b60405180910390a3600190509392505050565b600460009054906101000a900460ff1681565b60065481565b6000600860008373ffffffffffffffffffffffffffffffffffffffff1673ffffffffffffffffffffffffffffffffffffffff168152602001908152602001600020549050919050565b600160009054906101000a900473ffffffffffffffffffffffffffffffffffffffff1673ffffffffffffffffffffffffffffffffffffffff163373ffffffffffffffffffffffffffffffffffffffff16146107d557600080fd5b600160009054906101000a900473ffffffffffffffffffffffffffffffffffffffff1673ffffffffffffffffffffffffffffffffffffffff1660008054906101000a900473ffffffffffffffffffffffffffffffffffffffff1673ffffffffffffffffffffffffffffffffffffffff167f8be0079c531659141344cd1fd0a4f28419497f9722a3daafe3b4186f6b6457e060405160405180910390a3600160009054906101000a900473ffffffffffffffffffffffffffffffffffffffff166000806101000a81548173ffffffffffffffffffffffffffffffffffffffff021916908373ffffffffffffffffffffffffffffffffffffffff1602179055506000600160006101000a81548173ffffffffffffffffffffffffffffffffffffffff021916908373ffffffffffffffffffffffffffffffffffffffff160217905550565b60028054610924906115da565b80601f0160208091040260200160405190810160405280929190818152602001828054610950906115da565b801561099d5780601f106109725761010080835404028352916020019161099d565b820191906000526020600020905b81548152906001019060200180831161098057829003601f168201915b505050505081565b60008054906101000a900473ffffffffffffffffffffffffffffffffffffffff1681565b600081600860003373ffffffffffffffffffffffffffffffffffffffff1673ffffffffffffffffffffffffffffffffffffffff1681526020019081526020016000206000828254610a1a91906114c7565b9250508190555081600860008573ffffffffffffffffffffffffffffffffffffffff1673ffffffffffffffffffffffffffffffffffffffff1681526020019081526020016000206000828254610a709190611471565b925050819055508273ffffffffffffffffffffffffffffffffffffffff163373ffffffffffffffffffffffffffffffffffffffff167fddf252ad1be2c89b69c2b068fc378daa952ba7f163c4a11628f55a4df523b3ef84604051610ad491906113ad565b60405180910390a36001905092915050565b600082600960003373ffffffffffffffffffffffffffffffffffffffff1673ffffffffffffffffffffffffffffffffffffffff16815260200190815260200160002060008673ffffffffffffffffffffffffffffffffffffffff1673ffffffffffffffffffffffffffffffffffffffff168152602001908152602001600020819055508373ffffffffffffffffffffffffffffffffffffffff163373ffffffffffffffffffffffffffffffffffffffff167f8c5be1e5ebec7d5bd14f71427d1e84f3dd0314c0f7b2291e5b200ac8c7c3b92585604051610bc691906113ad565b60405180910390a38373ffffffffffffffffffffffffffffffffffffffff16638f4ffcb1338530866040518563ffffffff1660e01b8152600401610c0d9493929190611304565b600060405180830381600087803b158015610c2757600080fd5b505af1158015610c3b573d6000803e3d6000fd5b50505050600190509392505050565b60008054906101000a900473ffffffffffffffffffffffffffffffffffffffff1673ffffffffffffffffffffffffffffffffffffffff163373ffffffffffffffffffffffffffffffffffffffff1614610ca257600080fd5b610cae816006546109c9565b5050565b600160009054906101000a900473ffffffffffffffffffffffffffffffffffffffff1681565b60008060009054906101000a900473ffffffffffffffffffffffffffffffffffffffff1673ffffffffffffffffffffffffffffffffffffffff163373ffffffffffffffffffffffffffffffffffffffff1614610d3357600080fd5b8273ffffffffffffffffffffffffffffffffffffffff1663a9059cbb60008054906101000a900473ffffffffffffffffffffffffffffffffffffffff16846040518363ffffffff1660e01b8152600401610d8e9291906112db565b602060405180830381600087803b158015610da857600080fd5b505af1158015610dbc573d6000803e3d6000fd5b505050506040513d601f19601f82011682018060405250810190610de091906111a4565b905092915050565b6000600960008473ffffffffffffffffffffffffffffffffffffffff1673ffffffffffffffffffffffffffffffffffffffff16815260200190815260200160002060008373ffffffffffffffffffffffffffffffffffffffff1673ffffffffffffffffffffffffffffffffffffffff16815260200190815260200160002054905092915050565b60008054906101000a900473ffffffffffffffffffffffffffffffffffffffff1673ffffffffffffffffffffffffffffffffffffffff163373ffffffffffffffffffffffffffffffffffffffff1614610ec757600080fd5b600073ffffffffffffffffffffffffffffffffffffffff168173ffffffffffffffffffffffffffffffffffffffff161415610f0157600080fd5b806000806101000a81548173ffffffffffffffffffffffffffffffffffffffff021916908373ffffffffffffffffffffffffffffffffffffffff16021790555050565b6000610f57610f5284611408565b6113e3565b905082815260208101848484011115610f7357610f726116cf565b5b610f7e848285611598565b509392505050565b600081359050610f9581611718565b92915050565b600081359050610faa8161172f565b92915050565b600081519050610fbf81611746565b92915050565b600082601f830112610fda57610fd96116ca565b5b8135610fea848260208601610f44565b91505092915050565b6000813590506110028161175d565b92915050565b60006020828403121561101e5761101d6116d9565b5b600061102c84828501610f86565b91505092915050565b60006020828403121561104b5761104a6116d9565b5b600061105984828501610f9b565b91505092915050565b60008060408385031215611079576110786116d9565b5b600061108785828601610f86565b925050602061109885828601610f86565b9150509250929050565b6000806000606084860312156110bb576110ba6116d9565b5b60006110c986828701610f86565b93505060206110da86828701610f86565b92505060406110eb86828701610ff3565b9150509250925092565b6000806040838503121561110c5761110b6116d9565b5b600061111a85828601610f86565b925050602061112b85828601610ff3565b9150509250929050565b60008060006060848603121561114e5761114d6116d9565b5b600061115c86828701610f86565b935050602061116d86828701610ff3565b925050604084013567ffffffffffffffff81111561118e5761118d6116d4565b5b61119a86828701610fc5565b9150509250925092565b6000602082840312156111ba576111b96116d9565b5b60006111c884828501610fb0565b91505092915050565b6111da81611562565b82525050565b6111e98161150d565b82525050565b6111f8816114fb565b82525050565b6112078161151f565b82525050565b600061121882611439565b611222818561144f565b93506112328185602086016115a7565b61123b816116de565b840191505092915050565b600061125182611444565b61125b8185611460565b935061126b8185602086016115a7565b611274816116de565b840191505092915050565b600061128c601383611460565b9150611297826116ef565b602082019050919050565b6112ab8161154b565b82525050565b6112ba81611555565b82525050565b60006020820190506112d560008301846111e0565b92915050565b60006040820190506112f060008301856111d1565b6112fd60208301846112a2565b9392505050565b600060808201905061131960008301876111ef565b61132660208301866112a2565b61133360408301856111ef565b8181036060830152611345818461120d565b905095945050505050565b600060208201905061136560008301846111fe565b92915050565b600060208201905081810360008301526113858184611246565b905092915050565b600060208201905081810360008301526113a68161127f565b9050919050565b60006020820190506113c260008301846112a2565b92915050565b60006020820190506113dd60008301846112b1565b92915050565b60006113ed6113fe565b90506113f9828261160c565b919050565b6000604051905090565b600067ffffffffffffffff8211156114235761142261169b565b5b61142c826116de565b9050602081019050919050565b600081519050919050565b600081519050919050565b600082825260208201905092915050565b600082825260208201905092915050565b600061147c8261154b565b91506114878361154b565b9250827fffffffffffffffffffffffffffffffffffffffffffffffffffffffffffffffff038211156114bc576114bb61163d565b5b828201905092915050565b60006114d28261154b565b91506114dd8361154b565b9250828210156114f0576114ef61163d565b5b828203905092915050565b60006115068261152b565b9050919050565b60006115188261152b565b9050919050565b60008115159050919050565b600073ffffffffffffffffffffffffffffffffffffffff82169050919050565b6000819050919050565b600060ff82169050919050565b600061156d82611574565b9050919050565b600061157f82611586565b9050919050565b60006115918261152b565b9050919050565b82818337600083830152505050565b60005b838110156115c55780820151818401526020810190506115aa565b838111156115d4576000848401525b50505050565b600060028204905060018216806115f257607f821691505b602082108114156116065761160561166c565b5b50919050565b611615826116de565b810181811067ffffffffffffffff821117156116345761163361169b565b5b80604052505050565b7f4e487b7100000000000000000000000000000000000000000000000000000000600052601160045260246000fd5b7f4e487b7100000000000000000000000000000000000000000000000000000000600052602260045260246000fd5b7f4e487b7100000000000000000000000000000000000000000000000000000000600052604160045260246000fd5b600080fd5b600080fd5b600080fd5b600080fd5b6000601f19601f8301169050919050565b7f4e6f7420416363657074696e6720457468657200000000000000000000000000600082015250565b611721816114fb565b811461172c57600080fd5b50565b6117388161150d565b811461174357600080fd5b50565b61174f8161151f565b811461175a57600080fd5b50565b6117668161154b565b811461177157600080fd5b5056fea2646970667358221220dd486a3a3cff1570b524fdaba535cfeece602b40c1bd4d7e389c3600076daec164736f6c63430008060033",
  "immutableReferences": {},
  "source": "// SPDX-License-Identifier: UNLICENSED\npragma solidity ^0.8.6;\n\nimport \"../helpers/Owned.sol\";\n\ninterface ERC20Interface {\n    function totalSupply() external view returns (uint256);\n\n    function balanceOf(address tokenOwner)\n        external\n        view\n        returns (uint256 balance);\n\n    function allowance(address tokenOwner, address spender)\n        external\n        view\n        returns (uint256 remaining);\n\n    function transfer(address to, uint256 tokens)\n        external\n        returns (bool success);\n\n    function approve(address spender, uint256 tokens)\n        external\n        returns (bool success);\n\n    function transferFrom(\n        address from,\n        address to,\n        uint256 tokens\n    ) external returns (bool success);\n\n    event Transfer(address indexed from, address indexed to, uint256 tokens);\n    event Approval(\n        address indexed tokenOwner,\n        address indexed spender,\n        uint256 tokens\n    );\n}\n\n// ----------------------------------------------------------------------------\n// Contract function to receive approval and execute function in one call\n// ----------------------------------------------------------------------------\ninterface ApproveAndCallFallBack {\n    function receiveApproval(\n        address from,\n        uint256 tokens,\n        address token,\n        bytes memory data\n    ) external;\n}\n\n// ----------------------------------------------------------------------------\n// ERC20 Token, with the addition of symbol, name and decimals and a\n// fixed supply\n// ----------------------------------------------------------------------------\ncontract TweetherToken is ERC20Interface, Owned {\n    string public symbol;\n    string public name;\n    uint8 public decimals;\n    uint256 _totalSupply;\n\n    uint256 public FOR_ICO = 750000;\n    uint256 public FOR_FOUNDER = 250000;\n\n    mapping(address => uint256) balances;\n    mapping(address => mapping(address => uint256)) allowed;\n\n    // ------------------------------------------------------------------------\n    // Constructor\n    // ------------------------------------------------------------------------\n    constructor() {\n        symbol = \"TWE\";\n        name = \"TweetherToken\";\n        decimals = 0;\n        _totalSupply = FOR_FOUNDER + FOR_ICO;\n        balances[ownerAddr] = _totalSupply;\n        emit Transfer(address(0), ownerAddr, _totalSupply);\n    }\n\n    function totalSupply() external view virtual override returns (uint256) {\n        return _totalSupply;\n    }\n\n    // ------------------------------------------------------------------------\n    // Get the token balance for account `tokenOwner`\n    // ------------------------------------------------------------------------\n    function balanceOf(address tokenOwner)\n        public\n        view\n        virtual\n        override\n        returns (uint256 balance)\n    {\n        return balances[tokenOwner];\n    }\n\n    // ------------------------------------------------------------------------\n    // Transfer the balance from token owner's account to `to` account\n    // - Owner's account must have sufficient balance to transfer\n    // - 0 value transfers are allowed\n    // ------------------------------------------------------------------------\n    function transfer(address to, uint256 tokens)\n        public\n        virtual\n        override\n        returns (bool success)\n    {\n        balances[msg.sender] -= tokens;\n        balances[to] += tokens;\n        emit Transfer(msg.sender, to, tokens);\n        return true;\n    }\n\n    // ------------------------------------------------------------------------\n    // Token owner can approve for `spender` to transferFrom(...) `tokens`\n    // from the token owner's account\n    //\n    // https://github.com/ethereum/EIPs/blob/master/EIPS/eip-20-token-standard.md\n    // recommends that there are no checks for the approval double-spend attack\n    // as this should be implemented in user interfaces\n    // ------------------------------------------------------------------------\n    function approve(address spender, uint256 tokens)\n        public\n        virtual\n        override\n        returns (bool success)\n    {\n        allowed[msg.sender][spender] = tokens;\n        emit Approval(msg.sender, spender, tokens);\n        return true;\n    }\n\n    // ------------------------------------------------------------------------\n    // Transfer `tokens` from the `from` account to the `to` account\n    //\n    // The calling account must already have sufficient tokens approve(...)-d\n    // for spending from the `from` account and\n    // - From account must have sufficient balance to transfer\n    // - Spender must have sufficient allowance to transfer\n    // - 0 value transfers are allowed\n    // ------------------------------------------------------------------------\n    function transferFrom(\n        address from,\n        address to,\n        uint256 tokens\n    ) public virtual override returns (bool success) {\n        balances[msg.sender] -= tokens;\n        allowed[from][msg.sender] -= tokens;\n        balances[to] += tokens;\n        emit Transfer(from, to, tokens);\n        return true;\n    }\n\n    // ------------------------------------------------------------------------\n    // Returns the amount of tokens approved by the owner that can be\n    // transferred to the spender's account\n    // ------------------------------------------------------------------------\n    function allowance(address tokenOwner, address spender)\n        public\n        view\n        virtual\n        override\n        returns (uint256 remaining)\n    {\n        return allowed[tokenOwner][spender];\n    }\n\n    // ------------------------------------------------------------------------\n    // Token owner can approve for `spender` to transferFrom(...) `tokens`\n    // from the token owner's account. The `spender` contract function\n    // `receiveApproval(...)` is then executed\n    // ------------------------------------------------------------------------\n    function approveAndCall(\n        address spender,\n        uint256 tokens,\n        bytes memory data\n    ) public returns (bool success) {\n        allowed[msg.sender][spender] = tokens;\n        emit Approval(msg.sender, spender, tokens);\n        ApproveAndCallFallBack(spender).receiveApproval(\n            msg.sender,\n            tokens,\n            address(this),\n            data\n        );\n        return true;\n    }\n\n    // ------------------------------------------------------------------------\n    // Don't accept ETH\n    // ------------------------------------------------------------------------\n    fallback() external {\n        revert(\"Not Accepting Ether\");\n    }\n\n    // ------------------------------------------------------------------------\n    // Owner can transfer out any accidentally sent ERC20 tokens\n    // ------------------------------------------------------------------------\n    function transferAnyERC20Token(address tokenAddress, uint256 tokens)\n        public\n        onlyOwner\n        returns (bool success)\n    {\n        return ERC20Interface(tokenAddress).transfer(ownerAddr, tokens);\n    }\n\n    function fundICO(address icoAddr) public onlyOwner {\n        transfer(icoAddr, FOR_ICO);\n    }\n}\n",
  "sourcePath": "/Users/divineolokor/Desktop/blockchain/Tweether/contracts/token/TweetherToken.sol",
  "compiler": {
    "name": "solc",
    "version": "0.8.6+commit.11564f7e.Emscripten.clang"
  },
  "schemaVersion": "3.4.1",
  "updatedAt": "2021-07-29T00:53:32.942Z",
  "networkType": "ethereum",
  "devdoc": {
    "kind": "dev",
    "methods": {},
    "version": 1
  },
  "userdoc": {
    "kind": "user",
    "methods": {},
    "version": 1
  }
}