{
  "contractName": "TweetController",
  "abi": [
    {
      "inputs": [],
      "name": "ownerAddr",
      "outputs": [
        {
          "internalType": "address",
          "name": "",
          "type": "address"
        }
      ],
      "stateMutability": "view",
      "type": "function",
      "constant": true
    },
    {
      "inputs": [
        {
          "internalType": "address",
          "name": "_managerAddr",
          "type": "address"
        }
      ],
      "name": "setManagerAddr",
      "outputs": [],
      "stateMutability": "nonpayable",
      "type": "function"
    },
    {
      "inputs": [
        {
          "internalType": "address",
          "name": "_newOwner",
          "type": "address"
        }
      ],
      "name": "transferOwnership",
      "outputs": [],
      "stateMutability": "nonpayable",
      "type": "function"
    },
    {
      "inputs": [
        {
          "internalType": "uint256",
          "name": "_userId",
          "type": "uint256"
        },
        {
          "internalType": "string",
          "name": "_text",
          "type": "string"
        }
      ],
      "name": "createTweet",
      "outputs": [
        {
          "internalType": "uint256",
          "name": "",
          "type": "uint256"
        }
      ],
      "stateMutability": "nonpayable",
      "type": "function"
    }
  ],
  "bytecode": "0x608060405234801561001057600080fd5b50336000806101000a81548173ffffffffffffffffffffffffffffffffffffffff021916908373ffffffffffffffffffffffffffffffffffffffff160217905550610865806100606000396000f3fe608060405234801561001057600080fd5b506004361061004c5760003560e01c80637978b231146100515780637cc82f201461006d5780639c675eaa1461009d578063f2fde38b146100bb575b600080fd5b61006b60048036038101906100669190610480565b6100d7565b005b61008760048036038101906100829190610507565b610173565b6040516100949190610618565b60405180910390f35b6100a56102c3565b6040516100b291906105dd565b60405180910390f35b6100d560048036038101906100d09190610480565b6102e7565b005b60008054906101000a900473ffffffffffffffffffffffffffffffffffffffff1673ffffffffffffffffffffffffffffffffffffffff163373ffffffffffffffffffffffffffffffffffffffff161461012f57600080fd5b80600160006101000a81548173ffffffffffffffffffffffffffffffffffffffff021916908373ffffffffffffffffffffffffffffffffffffffff16021790555050565b600080600160009054906101000a900473ffffffffffffffffffffffffffffffffffffffff16905060008173ffffffffffffffffffffffffffffffffffffffff1663bf40fac16040518163ffffffff1660e01b81526004016101d4906105f8565b60206040518083038186803b1580156101ec57600080fd5b505afa158015610200573d6000803e3d6000fd5b505050506040513d601f19601f8201168201806040525081019061022491906104ad565b905060008190508073ffffffffffffffffffffffffffffffffffffffff16637cc82f2087876040518363ffffffff1660e01b8152600401610266929190610633565b602060405180830381600087803b15801561028057600080fd5b505af1158015610294573d6000803e3d6000fd5b505050506040513d601f19601f820116820180604052508101906102b891906104da565b935050505092915050565b60008054906101000a900473ffffffffffffffffffffffffffffffffffffffff1681565b60008054906101000a900473ffffffffffffffffffffffffffffffffffffffff1673ffffffffffffffffffffffffffffffffffffffff163373ffffffffffffffffffffffffffffffffffffffff161461033f57600080fd5b600073ffffffffffffffffffffffffffffffffffffffff168173ffffffffffffffffffffffffffffffffffffffff16141561037957600080fd5b806000806101000a81548173ffffffffffffffffffffffffffffffffffffffff021916908373ffffffffffffffffffffffffffffffffffffffff16021790555050565b60006103cf6103ca84610688565b610663565b9050828152602081018484840111156103eb576103ea6107b8565b5b6103f6848285610711565b509392505050565b60008135905061040d81610801565b92915050565b60008151905061042281610801565b92915050565b600082601f83011261043d5761043c6107b3565b5b813561044d8482602086016103bc565b91505092915050565b60008135905061046581610818565b92915050565b60008151905061047a81610818565b92915050565b600060208284031215610496576104956107c2565b5b60006104a4848285016103fe565b91505092915050565b6000602082840312156104c3576104c26107c2565b5b60006104d184828501610413565b91505092915050565b6000602082840312156104f0576104ef6107c2565b5b60006104fe8482850161046b565b91505092915050565b6000806040838503121561051e5761051d6107c2565b5b600061052c85828601610456565b925050602083013567ffffffffffffffff81111561054d5761054c6107bd565b5b61055985828601610428565b9150509250929050565b61056c816106d5565b82525050565b600061057d826106b9565b61058781856106c4565b9350610597818560208601610720565b6105a0816107c7565b840191505092915050565b60006105b8600c836106c4565b91506105c3826107d8565b602082019050919050565b6105d781610707565b82525050565b60006020820190506105f26000830184610563565b92915050565b60006020820190508181036000830152610611816105ab565b9050919050565b600060208201905061062d60008301846105ce565b92915050565b600060408201905061064860008301856105ce565b818103602083015261065a8184610572565b90509392505050565b600061066d61067e565b90506106798282610753565b919050565b6000604051905090565b600067ffffffffffffffff8211156106a3576106a2610784565b5b6106ac826107c7565b9050602081019050919050565b600081519050919050565b600082825260208201905092915050565b60006106e0826106e7565b9050919050565b600073ffffffffffffffffffffffffffffffffffffffff82169050919050565b6000819050919050565b82818337600083830152505050565b60005b8381101561073e578082015181840152602081019050610723565b8381111561074d576000848401525b50505050565b61075c826107c7565b810181811067ffffffffffffffff8211171561077b5761077a610784565b5b80604052505050565b7f4e487b7100000000000000000000000000000000000000000000000000000000600052604160045260246000fd5b600080fd5b600080fd5b600080fd5b600080fd5b6000601f19601f8301169050919050565b7f547765657453746f726167650000000000000000000000000000000000000000600082015250565b61080a816106d5565b811461081557600080fd5b50565b61082181610707565b811461082c57600080fd5b5056fea2646970667358221220ea0ee8bc813aaf800f207918230197857f6f35be1e2281f620abce2b6cb0128964736f6c63430008060033",
  "immutableReferences": {},
  "source": "// SPDX-License-Identifier: UNLICENSED\npragma solidity ^0.8.6;\n\nimport \"../helpers/BaseController.sol\";\nimport \"../ContractManager.sol\";\nimport \"./TweetStorage.sol\";\n\ncontract TweetController is BaseController {\n    function createTweet(uint256 _userId, string memory _text)\n        public\n        returns (uint256)\n    {\n        ContractManager _manager = ContractManager(managerAddr);\n\n        address _tweetStorageAddr = _manager.getAddress(\"TweetStorage\");\n        TweetStorage _tweetStorage = TweetStorage(_tweetStorageAddr);\n\n        return _tweetStorage.createTweet(_userId, _text);\n    }\n}\n",
  "sourcePath": "/Users/divineolokor/Desktop/blockchain/Tweether/contracts/tweets/TweetController.sol",
  "compiler": {
    "name": "solc",
    "version": "0.8.6+commit.11564f7e.Emscripten.clang"
  },
  "schemaVersion": "3.4.1",
  "updatedAt": "2021-07-22T19:28:38.520Z",
  "networkType": "ethereum",
  "devdoc": {
    "kind": "dev",
    "methods": {},
    "version": 1
  },
  "userdoc": {
    "kind": "user",
    "methods": {},
    "version": 1
  }
}