{
  "contractName": "TweetController",
  "abi": [
    {
      "inputs": [],
      "name": "ownerAddr",
      "outputs": [
        {
          "internalType": "address",
          "name": "",
          "type": "address"
        }
      ],
      "stateMutability": "view",
      "type": "function",
      "constant": true
    },
    {
      "inputs": [
        {
          "internalType": "address",
          "name": "_managerAddr",
          "type": "address"
        }
      ],
      "name": "setManagerAddr",
      "outputs": [],
      "stateMutability": "nonpayable",
      "type": "function"
    },
    {
      "inputs": [
        {
          "internalType": "address",
          "name": "_newOwner",
          "type": "address"
        }
      ],
      "name": "transferOwnership",
      "outputs": [],
      "stateMutability": "nonpayable",
      "type": "function"
    },
    {
      "inputs": [
        {
          "internalType": "string",
          "name": "_text",
          "type": "string"
        }
      ],
      "name": "createTweet",
      "outputs": [
        {
          "internalType": "uint256",
          "name": "",
          "type": "uint256"
        }
      ],
      "stateMutability": "nonpayable",
      "type": "function"
    }
  ],
  "bytecode": "0x608060405234801561001057600080fd5b50336000806101000a81548173ffffffffffffffffffffffffffffffffffffffff021916908373ffffffffffffffffffffffffffffffffffffffff1602179055506109d6806100606000396000f3fe608060405234801561001057600080fd5b506004361061004c5760003560e01c80637978b231146100515780637c9cd2bc1461006d5780639c675eaa1461009d578063f2fde38b146100bb575b600080fd5b61006b60048036038101906100669190610598565b6100d7565b005b610087600480360381019061008291906105f2565b610173565b6040516100949190610760565b60405180910390f35b6100a56103f0565b6040516100b29190610705565b60405180910390f35b6100d560048036038101906100d09190610598565b610414565b005b60008054906101000a900473ffffffffffffffffffffffffffffffffffffffff1673ffffffffffffffffffffffffffffffffffffffff163373ffffffffffffffffffffffffffffffffffffffff161461012f57600080fd5b80600160006101000a81548173ffffffffffffffffffffffffffffffffffffffff021916908373ffffffffffffffffffffffffffffffffffffffff16021790555050565b600080600160009054906101000a900473ffffffffffffffffffffffffffffffffffffffff16905060008173ffffffffffffffffffffffffffffffffffffffff1663bf40fac16040518163ffffffff1660e01b81526004016101d490610740565b60206040518083038186803b1580156101ec57600080fd5b505afa158015610200573d6000803e3d6000fd5b505050506040513d601f19601f8201168201806040525081019061022491906105c5565b9050600081905060008173ffffffffffffffffffffffffffffffffffffffff166382d38954336040518263ffffffff1660e01b81526004016102669190610705565b60206040518083038186803b15801561027e57600080fd5b505afa158015610292573d6000803e3d6000fd5b505050506040513d601f19601f820116820180604052508101906102b6919061063b565b905060008114156102c657600080fd5b60008473ffffffffffffffffffffffffffffffffffffffff1663bf40fac16040518163ffffffff1660e01b81526004016102ff90610720565b60206040518083038186803b15801561031757600080fd5b505afa15801561032b573d6000803e3d6000fd5b505050506040513d601f19601f8201168201806040525081019061034f91906105c5565b905060008190508073ffffffffffffffffffffffffffffffffffffffff16637cc82f20848a6040518363ffffffff1660e01b815260040161039192919061077b565b602060405180830381600087803b1580156103ab57600080fd5b505af11580156103bf573d6000803e3d6000fd5b505050506040513d601f19601f820116820180604052508101906103e3919061063b565b9650505050505050919050565b60008054906101000a900473ffffffffffffffffffffffffffffffffffffffff1681565b60008054906101000a900473ffffffffffffffffffffffffffffffffffffffff1673ffffffffffffffffffffffffffffffffffffffff163373ffffffffffffffffffffffffffffffffffffffff161461046c57600080fd5b600073ffffffffffffffffffffffffffffffffffffffff168173ffffffffffffffffffffffffffffffffffffffff1614156104a657600080fd5b806000806101000a81548173ffffffffffffffffffffffffffffffffffffffff021916908373ffffffffffffffffffffffffffffffffffffffff16021790555050565b60006104fc6104f7846107d0565b6107ab565b90508281526020810184848401111561051857610517610900565b5b610523848285610859565b509392505050565b60008135905061053a81610972565b92915050565b60008151905061054f81610972565b92915050565b600082601f83011261056a576105696108fb565b5b813561057a8482602086016104e9565b91505092915050565b60008151905061059281610989565b92915050565b6000602082840312156105ae576105ad61090a565b5b60006105bc8482850161052b565b91505092915050565b6000602082840312156105db576105da61090a565b5b60006105e984828501610540565b91505092915050565b6000602082840312156106085761060761090a565b5b600082013567ffffffffffffffff81111561062657610625610905565b5b61063284828501610555565b91505092915050565b6000602082840312156106515761065061090a565b5b600061065f84828501610583565b91505092915050565b6106718161081d565b82525050565b600061068282610801565b61068c818561080c565b935061069c818560208601610868565b6106a58161090f565b840191505092915050565b60006106bd600c8361080c565b91506106c882610920565b602082019050919050565b60006106e0600b8361080c565b91506106eb82610949565b602082019050919050565b6106ff8161084f565b82525050565b600060208201905061071a6000830184610668565b92915050565b60006020820190508181036000830152610739816106b0565b9050919050565b60006020820190508181036000830152610759816106d3565b9050919050565b600060208201905061077560008301846106f6565b92915050565b600060408201905061079060008301856106f6565b81810360208301526107a28184610677565b90509392505050565b60006107b56107c6565b90506107c1828261089b565b919050565b6000604051905090565b600067ffffffffffffffff8211156107eb576107ea6108cc565b5b6107f48261090f565b9050602081019050919050565b600081519050919050565b600082825260208201905092915050565b60006108288261082f565b9050919050565b600073ffffffffffffffffffffffffffffffffffffffff82169050919050565b6000819050919050565b82818337600083830152505050565b60005b8381101561088657808201518184015260208101905061086b565b83811115610895576000848401525b50505050565b6108a48261090f565b810181811067ffffffffffffffff821117156108c3576108c26108cc565b5b80604052505050565b7f4e487b7100000000000000000000000000000000000000000000000000000000600052604160045260246000fd5b600080fd5b600080fd5b600080fd5b600080fd5b6000601f19601f8301169050919050565b7f547765657453746f726167650000000000000000000000000000000000000000600082015250565b7f5573657253746f72616765000000000000000000000000000000000000000000600082015250565b61097b8161081d565b811461098657600080fd5b50565b6109928161084f565b811461099d57600080fd5b5056fea2646970667358221220e7975029b2f3dceedc2f391d3e8d07c6e0afc0497133b91b8161906956bf176364736f6c63430008060033",
  "immutableReferences": {},
  "source": "// SPDX-License-Identifier: UNLICENSED\npragma solidity ^0.8.6;\n\nimport \"../helpers/BaseController.sol\";\nimport \"../ContractManager.sol\";\nimport \"./TweetStorage.sol\";\nimport \"../users/UserStorage.sol\";\n\ncontract TweetController is BaseController {\n    function createTweet(string memory _text) public returns (uint256) {\n        ContractManager _manager = ContractManager(managerAddr);\n\n        address _userStorageAddr = _manager.getAddress(\"UserStorage\");\n        UserStorage _userStorage = UserStorage(_userStorageAddr);\n\n        // Get the user ID from the address\n        uint256 _userId = _userStorage.addresses(msg.sender);\n\n        // Make sure the user ID isn't null\n        require(_userId != 0);\n\n        address _tweetStorageAddr = _manager.getAddress(\"TweetStorage\");\n        TweetStorage _tweetStorage = TweetStorage(_tweetStorageAddr);\n\n        return _tweetStorage.createTweet(_userId, _text);\n    }\n}\n",
  "sourcePath": "/Users/divineolokor/Desktop/blockchain/Tweether/contracts/tweets/TweetController.sol",
  "compiler": {
    "name": "solc",
    "version": "0.8.6+commit.11564f7e.Emscripten.clang"
  },
  "schemaVersion": "3.4.1",
  "updatedAt": "2021-07-24T04:07:05.571Z",
  "networkType": "ethereum",
  "devdoc": {
    "kind": "dev",
    "methods": {},
    "version": 1
  },
  "userdoc": {
    "kind": "user",
    "methods": {},
    "version": 1
  }
}