{
  "contractName": "TweetherICO",
  "abi": [
    {
      "inputs": [
        {
          "internalType": "address",
          "name": "_tokenAddr",
          "type": "address"
        }
      ],
      "stateMutability": "nonpayable",
      "type": "constructor"
    },
    {
      "stateMutability": "payable",
      "type": "fallback",
      "payable": true
    },
    {
      "inputs": [],
      "name": "RATE",
      "outputs": [
        {
          "internalType": "uint256",
          "name": "",
          "type": "uint256"
        }
      ],
      "stateMutability": "view",
      "type": "function",
      "constant": true
    },
    {
      "stateMutability": "payable",
      "type": "receive",
      "payable": true
    }
  ],
  "bytecode": "0x60806040526103e860015534801561001657600080fd5b5060405161054738038061054783398181016040528101906100389190610093565b806000806101000a81548173ffffffffffffffffffffffffffffffffffffffff021916908373ffffffffffffffffffffffffffffffffffffffff1602179055505061010e565b60008151905061008d816100f7565b92915050565b6000602082840312156100a9576100a86100f2565b5b60006100b78482850161007e565b91505092915050565b60006100cb826100d2565b9050919050565b600073ffffffffffffffffffffffffffffffffffffffff82169050919050565b600080fd5b610100816100c0565b811461010b57600080fd5b50565b61042a8061011d6000396000f3fe6080604052600436106100225760003560e01c8063664e9704146101a3576100e5565b366100e5576000610032346101ce565b905060008054906101000a900473ffffffffffffffffffffffffffffffffffffffff1673ffffffffffffffffffffffffffffffffffffffff1663a9059cbb33836040518363ffffffff1660e01b815260040161008f929190610263565b602060405180830381600087803b1580156100a957600080fd5b505af11580156100bd573d6000803e3d6000fd5b505050506040513d601f19601f820116820180604052508101906100e19190610218565b5050005b60006100f0346101ce565b905060008054906101000a900473ffffffffffffffffffffffffffffffffffffffff1673ffffffffffffffffffffffffffffffffffffffff1663a9059cbb33836040518363ffffffff1660e01b815260040161014d929190610263565b602060405180830381600087803b15801561016757600080fd5b505af115801561017b573d6000803e3d6000fd5b505050506040513d601f19601f8201168201806040525081019061019f9190610218565b5050005b3480156101af57600080fd5b506101b86101fd565b6040516101c5919061028c565b60405180910390f35b600080670de0b6b3a7640000836101e591906102a7565b9050600154816101f591906102d8565b915050919050565b60015481565b600081519050610212816103dd565b92915050565b60006020828403121561022e5761022d6103d8565b5b600061023c84828501610203565b91505092915050565b61024e81610332565b82525050565b61025d81610370565b82525050565b60006040820190506102786000830185610245565b6102856020830184610254565b9392505050565b60006020820190506102a16000830184610254565b92915050565b60006102b282610370565b91506102bd83610370565b9250826102cd576102cc6103a9565b5b828204905092915050565b60006102e382610370565b91506102ee83610370565b9250817fffffffffffffffffffffffffffffffffffffffffffffffffffffffffffffffff04831182151516156103275761032661037a565b5b828202905092915050565b600061033d82610350565b9050919050565b60008115159050919050565b600073ffffffffffffffffffffffffffffffffffffffff82169050919050565b6000819050919050565b7f4e487b7100000000000000000000000000000000000000000000000000000000600052601160045260246000fd5b7f4e487b7100000000000000000000000000000000000000000000000000000000600052601260045260246000fd5b600080fd5b6103e681610344565b81146103f157600080fd5b5056fea2646970667358221220c37d2b6971054b3dd24e7969eb7fc53a2b5e6b15802d5b4f172c706175dd414364736f6c63430008060033",
  "immutableReferences": {},
  "source": "// SPDX-License-Identifier: UNLICENSED\npragma solidity ^0.8.6;\n\nimport \"./TweetherToken.sol\";\n\ncontract TweetherICO {\n    TweetherToken token;\n\n    uint256 public RATE = 1000; // 1 ETH = 1000 TWE\n\n    constructor(address _tokenAddr) {\n        token = TweetherToken(_tokenAddr);\n    }\n\n    function _getTokenAmount(uint256 _weiAmount)\n        internal\n        view\n        returns (uint256)\n    {\n        uint256 amount = _weiAmount / (10**18);\n        return amount * RATE;\n    }\n\n    // Add a fallback function:\n    fallback() external payable {\n        uint256 _amount = _getTokenAmount(msg.value);\n\n        token.transfer(msg.sender, _amount);\n    }\n\n    receive() external payable {\n        uint256 _amount = _getTokenAmount(msg.value);\n\n        token.transfer(msg.sender, _amount);\n    }\n}\n",
  "sourcePath": "/Users/divineolokor/Desktop/blockchain/Tweether/contracts/token/TweetherICO.sol",
  "compiler": {
    "name": "solc",
    "version": "0.8.6+commit.11564f7e.Emscripten.clang"
  },
  "schemaVersion": "3.4.1",
  "updatedAt": "2021-07-29T00:53:32.949Z",
  "networkType": "ethereum",
  "devdoc": {
    "kind": "dev",
    "methods": {},
    "version": 1
  },
  "userdoc": {
    "kind": "user",
    "methods": {},
    "version": 1
  }
}