{
  "contractName": "UserController",
  "abi": [
    {
      "inputs": [],
      "name": "ownerAddr",
      "outputs": [
        {
          "internalType": "address",
          "name": "",
          "type": "address"
        }
      ],
      "stateMutability": "view",
      "type": "function",
      "constant": true
    },
    {
      "inputs": [
        {
          "internalType": "address",
          "name": "_managerAddr",
          "type": "address"
        }
      ],
      "name": "setManagerAddr",
      "outputs": [],
      "stateMutability": "nonpayable",
      "type": "function"
    },
    {
      "inputs": [
        {
          "internalType": "address",
          "name": "_newOwner",
          "type": "address"
        }
      ],
      "name": "transferOwnership",
      "outputs": [],
      "stateMutability": "nonpayable",
      "type": "function"
    },
    {
      "inputs": [
        {
          "internalType": "bytes32",
          "name": "_username",
          "type": "bytes32"
        },
        {
          "internalType": "bytes32",
          "name": "_firstName",
          "type": "bytes32"
        },
        {
          "internalType": "bytes32",
          "name": "_lastName",
          "type": "bytes32"
        },
        {
          "internalType": "string",
          "name": "_bio",
          "type": "string"
        },
        {
          "internalType": "string",
          "name": "_gravatarEmail",
          "type": "string"
        }
      ],
      "name": "createUser",
      "outputs": [
        {
          "internalType": "uint256",
          "name": "",
          "type": "uint256"
        }
      ],
      "stateMutability": "nonpayable",
      "type": "function"
    }
  ],
  "bytecode": "0x608060405234801561001057600080fd5b50336000806101000a81548173ffffffffffffffffffffffffffffffffffffffff021916908373ffffffffffffffffffffffffffffffffffffffff160217905550610a7b806100606000396000f3fe608060405234801561001057600080fd5b506004361061004c5760003560e01c80637978b231146100515780639c675eaa1461006d578063f2fde38b1461008b578063f901175b146100a7575b600080fd5b61006b600480360381019061006691906105b5565b6100d7565b005b610075610173565b6040516100829190610778565b60405180910390f35b6100a560048036038101906100a091906105b5565b610197565b005b6100c160048036038101906100bc919061060f565b61026c565b6040516100ce919061083d565b60405180910390f35b60008054906101000a900473ffffffffffffffffffffffffffffffffffffffff1673ffffffffffffffffffffffffffffffffffffffff163373ffffffffffffffffffffffffffffffffffffffff161461012f57600080fd5b80600160006101000a81548173ffffffffffffffffffffffffffffffffffffffff021916908373ffffffffffffffffffffffffffffffffffffffff16021790555050565b60008054906101000a900473ffffffffffffffffffffffffffffffffffffffff1681565b60008054906101000a900473ffffffffffffffffffffffffffffffffffffffff1673ffffffffffffffffffffffffffffffffffffffff163373ffffffffffffffffffffffffffffffffffffffff16146101ef57600080fd5b600073ffffffffffffffffffffffffffffffffffffffff168173ffffffffffffffffffffffffffffffffffffffff16141561022957600080fd5b806000806101000a81548173ffffffffffffffffffffffffffffffffffffffff021916908373ffffffffffffffffffffffffffffffffffffffff16021790555050565b600080600160009054906101000a900473ffffffffffffffffffffffffffffffffffffffff16905060008173ffffffffffffffffffffffffffffffffffffffff1663bf40fac16040518163ffffffff1660e01b81526004016102cd9061081d565b60206040518083038186803b1580156102e557600080fd5b505afa1580156102f9573d6000803e3d6000fd5b505050506040513d601f19601f8201168201806040525081019061031d91906105e2565b9050600081905060008173ffffffffffffffffffffffffffffffffffffffff166382d38954336040518263ffffffff1660e01b815260040161035f9190610778565b60206040518083038186803b15801561037757600080fd5b505afa15801561038b573d6000803e3d6000fd5b505050506040513d601f19601f820116820180604052508101906103af91906106c2565b146103b957600080fd5b60008173ffffffffffffffffffffffffffffffffffffffff1663ec4d88d78b6040518263ffffffff1660e01b81526004016103f49190610802565b60206040518083038186803b15801561040c57600080fd5b505afa158015610420573d6000803e3d6000fd5b505050506040513d601f19601f8201168201806040525081019061044491906106c2565b1461044e57600080fd5b8073ffffffffffffffffffffffffffffffffffffffff1663d399e63d338b8b8b8b8b6040518763ffffffff1660e01b815260040161049196959493929190610793565b602060405180830381600087803b1580156104ab57600080fd5b505af11580156104bf573d6000803e3d6000fd5b505050506040513d601f19601f820116820180604052508101906104e391906106c2565b935050505095945050505050565b60006105046104ff8461087d565b610858565b9050828152602081018484840111156105205761051f6109b7565b5b61052b848285610910565b509392505050565b60008135905061054281610a00565b92915050565b60008151905061055781610a00565b92915050565b60008135905061056c81610a17565b92915050565b600082601f830112610587576105866109b2565b5b81356105978482602086016104f1565b91505092915050565b6000815190506105af81610a2e565b92915050565b6000602082840312156105cb576105ca6109c1565b5b60006105d984828501610533565b91505092915050565b6000602082840312156105f8576105f76109c1565b5b600061060684828501610548565b91505092915050565b600080600080600060a0868803121561062b5761062a6109c1565b5b60006106398882890161055d565b955050602061064a8882890161055d565b945050604061065b8882890161055d565b935050606086013567ffffffffffffffff81111561067c5761067b6109bc565b5b61068888828901610572565b925050608086013567ffffffffffffffff8111156106a9576106a86109bc565b5b6106b588828901610572565b9150509295509295909350565b6000602082840312156106d8576106d76109c1565b5b60006106e6848285016105a0565b91505092915050565b6106f8816108ca565b82525050565b610707816108dc565b82525050565b6000610718826108ae565b61072281856108b9565b935061073281856020860161091f565b61073b816109c6565b840191505092915050565b6000610753600b836108b9565b915061075e826109d7565b602082019050919050565b61077281610906565b82525050565b600060208201905061078d60008301846106ef565b92915050565b600060c0820190506107a860008301896106ef565b6107b560208301886106fe565b6107c260408301876106fe565b6107cf60608301866106fe565b81810360808301526107e1818561070d565b905081810360a08301526107f5818461070d565b9050979650505050505050565b600060208201905061081760008301846106fe565b92915050565b6000602082019050818103600083015261083681610746565b9050919050565b60006020820190506108526000830184610769565b92915050565b6000610862610873565b905061086e8282610952565b919050565b6000604051905090565b600067ffffffffffffffff82111561089857610897610983565b5b6108a1826109c6565b9050602081019050919050565b600081519050919050565b600082825260208201905092915050565b60006108d5826108e6565b9050919050565b6000819050919050565b600073ffffffffffffffffffffffffffffffffffffffff82169050919050565b6000819050919050565b82818337600083830152505050565b60005b8381101561093d578082015181840152602081019050610922565b8381111561094c576000848401525b50505050565b61095b826109c6565b810181811067ffffffffffffffff8211171561097a57610979610983565b5b80604052505050565b7f4e487b7100000000000000000000000000000000000000000000000000000000600052604160045260246000fd5b600080fd5b600080fd5b600080fd5b600080fd5b6000601f19601f8301169050919050565b7f5573657253746f72616765000000000000000000000000000000000000000000600082015250565b610a09816108ca565b8114610a1457600080fd5b50565b610a20816108dc565b8114610a2b57600080fd5b50565b610a3781610906565b8114610a4257600080fd5b5056fea2646970667358221220eb8c928c6e79b026a841215b0c29c93fac8f041f8f38b3938de753387f7bab1d64736f6c63430008060033",
  "immutableReferences": {},
  "source": "// SPDX-License-Identifier: UNLICENSED\npragma solidity ^0.8.6;\n\nimport \"../helpers/BaseController.sol\";\nimport \"../ContractManager.sol\";\nimport \"./UserStorage.sol\";\n\ncontract UserController is BaseController {\n    function createUser(\n        bytes32 _username,\n        bytes32 _firstName,\n        bytes32 _lastName,\n        string memory _bio,\n        string memory _gravatarEmail\n    ) public returns (uint256) {\n        ContractManager _manager = ContractManager(managerAddr);\n\n        address _userStorageAddr = _manager.getAddress(\"UserStorage\");\n        UserStorage _storage = UserStorage(_userStorageAddr);\n\n        require(_storage.addresses(msg.sender) == 0);\n        require(_storage.usernames(_username) == 0);\n\n        return\n            _storage.createUser(\n                msg.sender,\n                _username,\n                _firstName,\n                _lastName,\n                _bio,\n                _gravatarEmail\n            );\n    }\n}\n",
  "sourcePath": "/Users/divineolokor/Desktop/blockchain/Tweether/contracts/users/UserController.sol",
  "compiler": {
    "name": "solc",
    "version": "0.8.6+commit.11564f7e.Emscripten.clang"
  },
  "schemaVersion": "3.4.1",
  "updatedAt": "2021-07-26T20:16:09.477Z",
  "networkType": "ethereum",
  "devdoc": {
    "kind": "dev",
    "methods": {},
    "version": 1
  },
  "userdoc": {
    "kind": "user",
    "methods": {},
    "version": 1
  }
}