{
  "contractName": "UserController",
  "abi": [
    {
      "anonymous": false,
      "inputs": [
        {
          "indexed": true,
          "internalType": "address",
          "name": "_from",
          "type": "address"
        },
        {
          "indexed": true,
          "internalType": "address",
          "name": "_to",
          "type": "address"
        }
      ],
      "name": "OwnershipTransferred",
      "type": "event"
    },
    {
      "inputs": [],
      "name": "acceptOwnership",
      "outputs": [],
      "stateMutability": "nonpayable",
      "type": "function"
    },
    {
      "inputs": [],
      "name": "newOwner",
      "outputs": [
        {
          "internalType": "address payable",
          "name": "",
          "type": "address"
        }
      ],
      "stateMutability": "view",
      "type": "function",
      "constant": true
    },
    {
      "inputs": [],
      "name": "ownerAddr",
      "outputs": [
        {
          "internalType": "address payable",
          "name": "",
          "type": "address"
        }
      ],
      "stateMutability": "view",
      "type": "function",
      "constant": true
    },
    {
      "inputs": [
        {
          "internalType": "address",
          "name": "_managerAddr",
          "type": "address"
        }
      ],
      "name": "setManagerAddr",
      "outputs": [],
      "stateMutability": "nonpayable",
      "type": "function"
    },
    {
      "inputs": [
        {
          "internalType": "address payable",
          "name": "_newOwner",
          "type": "address"
        }
      ],
      "name": "transferOwnership",
      "outputs": [],
      "stateMutability": "nonpayable",
      "type": "function"
    },
    {
      "inputs": [
        {
          "internalType": "bytes32",
          "name": "_username",
          "type": "bytes32"
        },
        {
          "internalType": "bytes32",
          "name": "_firstName",
          "type": "bytes32"
        },
        {
          "internalType": "bytes32",
          "name": "_lastName",
          "type": "bytes32"
        },
        {
          "internalType": "string",
          "name": "_bio",
          "type": "string"
        },
        {
          "internalType": "string",
          "name": "_gravatarEmail",
          "type": "string"
        }
      ],
      "name": "createUser",
      "outputs": [
        {
          "internalType": "uint256",
          "name": "",
          "type": "uint256"
        }
      ],
      "stateMutability": "nonpayable",
      "type": "function"
    }
  ],
  "bytecode": "0x608060405234801561001057600080fd5b50336000806101000a81548173ffffffffffffffffffffffffffffffffffffffff021916908373ffffffffffffffffffffffffffffffffffffffff160217905550610d10806100606000396000f3fe608060405234801561001057600080fd5b50600436106100625760003560e01c80637978b2311461006757806379ba5097146100835780639c675eaa1461008d578063d4ee1d90146100ab578063f2fde38b146100c9578063f901175b146100e5575b600080fd5b610081600480360381019061007c91906107ca565b610115565b005b61008b6101b1565b005b61009561034d565b6040516100a291906109e4565b60405180910390f35b6100b3610371565b6040516100c091906109e4565b60405180910390f35b6100e360048036038101906100de9190610824565b610397565b005b6100ff60048036038101906100fa9190610851565b61046c565b60405161010c9190610aa9565b60405180910390f35b60008054906101000a900473ffffffffffffffffffffffffffffffffffffffff1673ffffffffffffffffffffffffffffffffffffffff163373ffffffffffffffffffffffffffffffffffffffff161461016d57600080fd5b80600260006101000a81548173ffffffffffffffffffffffffffffffffffffffff021916908373ffffffffffffffffffffffffffffffffffffffff16021790555050565b600160009054906101000a900473ffffffffffffffffffffffffffffffffffffffff1673ffffffffffffffffffffffffffffffffffffffff163373ffffffffffffffffffffffffffffffffffffffff161461020b57600080fd5b600160009054906101000a900473ffffffffffffffffffffffffffffffffffffffff1673ffffffffffffffffffffffffffffffffffffffff1660008054906101000a900473ffffffffffffffffffffffffffffffffffffffff1673ffffffffffffffffffffffffffffffffffffffff167f8be0079c531659141344cd1fd0a4f28419497f9722a3daafe3b4186f6b6457e060405160405180910390a3600160009054906101000a900473ffffffffffffffffffffffffffffffffffffffff166000806101000a81548173ffffffffffffffffffffffffffffffffffffffff021916908373ffffffffffffffffffffffffffffffffffffffff1602179055506000600160006101000a81548173ffffffffffffffffffffffffffffffffffffffff021916908373ffffffffffffffffffffffffffffffffffffffff160217905550565b60008054906101000a900473ffffffffffffffffffffffffffffffffffffffff1681565b600160009054906101000a900473ffffffffffffffffffffffffffffffffffffffff1681565b60008054906101000a900473ffffffffffffffffffffffffffffffffffffffff1673ffffffffffffffffffffffffffffffffffffffff163373ffffffffffffffffffffffffffffffffffffffff16146103ef57600080fd5b600073ffffffffffffffffffffffffffffffffffffffff168173ffffffffffffffffffffffffffffffffffffffff16141561042957600080fd5b806000806101000a81548173ffffffffffffffffffffffffffffffffffffffff021916908373ffffffffffffffffffffffffffffffffffffffff16021790555050565b600080600260009054906101000a900473ffffffffffffffffffffffffffffffffffffffff16905060008173ffffffffffffffffffffffffffffffffffffffff1663bf40fac16040518163ffffffff1660e01b81526004016104cd90610a89565b60206040518083038186803b1580156104e557600080fd5b505afa1580156104f9573d6000803e3d6000fd5b505050506040513d601f19601f8201168201806040525081019061051d91906107f7565b9050600081905060008173ffffffffffffffffffffffffffffffffffffffff166382d38954336040518263ffffffff1660e01b815260040161055f91906109c9565b60206040518083038186803b15801561057757600080fd5b505afa15801561058b573d6000803e3d6000fd5b505050506040513d601f19601f820116820180604052508101906105af9190610904565b146105b957600080fd5b60008173ffffffffffffffffffffffffffffffffffffffff1663ec4d88d78b6040518263ffffffff1660e01b81526004016105f49190610a6e565b60206040518083038186803b15801561060c57600080fd5b505afa158015610620573d6000803e3d6000fd5b505050506040513d601f19601f820116820180604052508101906106449190610904565b1461064e57600080fd5b8073ffffffffffffffffffffffffffffffffffffffff1663d399e63d338b8b8b8b8b6040518763ffffffff1660e01b8152600401610691969594939291906109ff565b602060405180830381600087803b1580156106ab57600080fd5b505af11580156106bf573d6000803e3d6000fd5b505050506040513d601f19601f820116820180604052508101906106e39190610904565b935050505095945050505050565b60006107046106ff84610ae9565b610ac4565b9050828152602081018484840111156107205761071f610c35565b5b61072b848285610b8e565b509392505050565b60008135905061074281610c7e565b92915050565b60008151905061075781610c7e565b92915050565b60008135905061076c81610c95565b92915050565b60008135905061078181610cac565b92915050565b600082601f83011261079c5761079b610c30565b5b81356107ac8482602086016106f1565b91505092915050565b6000815190506107c481610cc3565b92915050565b6000602082840312156107e0576107df610c3f565b5b60006107ee84828501610733565b91505092915050565b60006020828403121561080d5761080c610c3f565b5b600061081b84828501610748565b91505092915050565b60006020828403121561083a57610839610c3f565b5b60006108488482850161075d565b91505092915050565b600080600080600060a0868803121561086d5761086c610c3f565b5b600061087b88828901610772565b955050602061088c88828901610772565b945050604061089d88828901610772565b935050606086013567ffffffffffffffff8111156108be576108bd610c3a565b5b6108ca88828901610787565b925050608086013567ffffffffffffffff8111156108eb576108ea610c3a565b5b6108f788828901610787565b9150509295509295909350565b60006020828403121561091a57610919610c3f565b5b6000610928848285016107b5565b91505092915050565b61093a81610b48565b82525050565b61094981610b36565b82525050565b61095881610b5a565b82525050565b600061096982610b1a565b6109738185610b25565b9350610983818560208601610b9d565b61098c81610c44565b840191505092915050565b60006109a4600b83610b25565b91506109af82610c55565b602082019050919050565b6109c381610b84565b82525050565b60006020820190506109de6000830184610940565b92915050565b60006020820190506109f96000830184610931565b92915050565b600060c082019050610a146000830189610940565b610a21602083018861094f565b610a2e604083018761094f565b610a3b606083018661094f565b8181036080830152610a4d818561095e565b905081810360a0830152610a61818461095e565b9050979650505050505050565b6000602082019050610a83600083018461094f565b92915050565b60006020820190508181036000830152610aa281610997565b9050919050565b6000602082019050610abe60008301846109ba565b92915050565b6000610ace610adf565b9050610ada8282610bd0565b919050565b6000604051905090565b600067ffffffffffffffff821115610b0457610b03610c01565b5b610b0d82610c44565b9050602081019050919050565b600081519050919050565b600082825260208201905092915050565b6000610b4182610b64565b9050919050565b6000610b5382610b64565b9050919050565b6000819050919050565b600073ffffffffffffffffffffffffffffffffffffffff82169050919050565b6000819050919050565b82818337600083830152505050565b60005b83811015610bbb578082015181840152602081019050610ba0565b83811115610bca576000848401525b50505050565b610bd982610c44565b810181811067ffffffffffffffff82111715610bf857610bf7610c01565b5b80604052505050565b7f4e487b7100000000000000000000000000000000000000000000000000000000600052604160045260246000fd5b600080fd5b600080fd5b600080fd5b600080fd5b6000601f19601f8301169050919050565b7f5573657253746f72616765000000000000000000000000000000000000000000600082015250565b610c8781610b36565b8114610c9257600080fd5b50565b610c9e81610b48565b8114610ca957600080fd5b50565b610cb581610b5a565b8114610cc057600080fd5b50565b610ccc81610b84565b8114610cd757600080fd5b5056fea2646970667358221220c91ce6185cd20be5d845c93b728bef00cadf6b36ea1099146f319c930896667364736f6c63430008060033",
  "immutableReferences": {},
  "source": "// SPDX-License-Identifier: UNLICENSED\npragma solidity ^0.8.6;\n\nimport \"../helpers/BaseController.sol\";\nimport \"../ContractManager.sol\";\nimport \"./UserStorage.sol\";\n\ncontract UserController is BaseController {\n    function createUser(\n        bytes32 _username,\n        bytes32 _firstName,\n        bytes32 _lastName,\n        string memory _bio,\n        string memory _gravatarEmail\n    ) public returns (uint256) {\n        ContractManager _manager = ContractManager(managerAddr);\n\n        address _userStorageAddr = _manager.getAddress(\"UserStorage\");\n        UserStorage _storage = UserStorage(_userStorageAddr);\n\n        require(_storage.addresses(msg.sender) == 0);\n        require(_storage.usernames(_username) == 0);\n\n        return\n            _storage.createUser(\n                msg.sender,\n                _username,\n                _firstName,\n                _lastName,\n                _bio,\n                _gravatarEmail\n            );\n    }\n}\n",
  "sourcePath": "/Users/divineolokor/Desktop/blockchain/Tweether/contracts/users/UserController.sol",
  "compiler": {
    "name": "solc",
    "version": "0.8.6+commit.11564f7e.Emscripten.clang"
  },
  "schemaVersion": "3.4.1",
  "updatedAt": "2021-07-29T00:53:30.777Z",
  "networkType": "ethereum",
  "devdoc": {
    "kind": "dev",
    "methods": {},
    "version": 1
  },
  "userdoc": {
    "kind": "user",
    "methods": {},
    "version": 1
  }
}