{
  "contractName": "Lottery",
  "abi": [
    {
      "inputs": [],
      "name": "manager",
      "outputs": [
        {
          "internalType": "address",
          "name": "",
          "type": "address"
        }
      ],
      "stateMutability": "view",
      "type": "function",
      "constant": true
    },
    {
      "inputs": [
        {
          "internalType": "uint256",
          "name": "",
          "type": "uint256"
        }
      ],
      "name": "players",
      "outputs": [
        {
          "internalType": "address",
          "name": "",
          "type": "address"
        }
      ],
      "stateMutability": "view",
      "type": "function",
      "constant": true
    },
    {
      "inputs": [],
      "name": "Manager",
      "outputs": [],
      "stateMutability": "nonpayable",
      "type": "function"
    },
    {
      "inputs": [],
      "name": "enter",
      "outputs": [],
      "stateMutability": "payable",
      "type": "function",
      "payable": true
    },
    {
      "inputs": [],
      "name": "pickWinner",
      "outputs": [],
      "stateMutability": "nonpayable",
      "type": "function"
    },
    {
      "inputs": [],
      "name": "getPlayers",
      "outputs": [
        {
          "internalType": "address[]",
          "name": "",
          "type": "address[]"
        }
      ],
      "stateMutability": "view",
      "type": "function",
      "constant": true
    }
  ],
  "bytecode": "0x608060405234801561001057600080fd5b50610972806100206000396000f3fe6080604052600436106100555760003560e01c8063481c6a751461005a5780635d495aea1461008557806378357e531461009c5780638b5b9ccc146100b3578063e97dcb62146100de578063f71d96cb146100e8575b600080fd5b34801561006657600080fd5b5061006f610125565b60405161007c9190610714565b60405180910390f35b34801561009157600080fd5b5061009a610149565b005b3480156100a857600080fd5b506100b16102a5565b005b3480156100bf57600080fd5b506100c86102e7565b6040516100d5919061072f565b60405180910390f35b6100e6610375565b005b3480156100f457600080fd5b5061010f600480360381019061010a9190610577565b6103ed565b60405161011c9190610714565b60405180910390f35b60008054906101000a900473ffffffffffffffffffffffffffffffffffffffff1681565b60008054906101000a900473ffffffffffffffffffffffffffffffffffffffff1673ffffffffffffffffffffffffffffffffffffffff163373ffffffffffffffffffffffffffffffffffffffff16146101a157600080fd5b60006001805490506101b161042c565b6101bb9190610842565b9050600181815481106101d1576101d06108a2565b5b9060005260206000200160009054906101000a900473ffffffffffffffffffffffffffffffffffffffff1673ffffffffffffffffffffffffffffffffffffffff166108fc479081150290604051600060405180830381858888f19350505050158015610241573d6000803e3d6000fd5b50600067ffffffffffffffff81111561025d5761025c6108d1565b5b60405190808252806020026020018201604052801561028b5781602001602082028036833780820191505090505b50600190805190602001906102a19291906104bb565b5050565b336000806101000a81548173ffffffffffffffffffffffffffffffffffffffff021916908373ffffffffffffffffffffffffffffffffffffffff160217905550565b6060600180548060200260200160405190810160405280929190818152602001828054801561036b57602002820191906000526020600020905b8160009054906101000a900473ffffffffffffffffffffffffffffffffffffffff1673ffffffffffffffffffffffffffffffffffffffff1681526020019060010190808311610321575b5050505050905090565b662386f26fc10000341161038857600080fd5b6001339080600181540180825580915050600190039060005260206000200160009091909190916101000a81548173ffffffffffffffffffffffffffffffffffffffff021916908373ffffffffffffffffffffffffffffffffffffffff160217905550565b600181815481106103fd57600080fd5b906000526020600020016000915054906101000a900473ffffffffffffffffffffffffffffffffffffffff1681565b60008060009054906101000a900473ffffffffffffffffffffffffffffffffffffffff1673ffffffffffffffffffffffffffffffffffffffff163373ffffffffffffffffffffffffffffffffffffffff161461048757600080fd5b4442600160405160200161049d939291906106db565b6040516020818303038152906040528051906020012060001c905090565b828054828255906000526020600020908101928215610534579160200282015b828111156105335782518260006101000a81548173ffffffffffffffffffffffffffffffffffffffff021916908373ffffffffffffffffffffffffffffffffffffffff160217905550916020019190600101906104db565b5b5090506105419190610545565b5090565b5b8082111561055e576000816000905550600101610546565b5090565b60008135905061057181610925565b92915050565b60006020828403121561058d5761058c610913565b5b600061059b84828501610562565b91505092915050565b60006105b083836105d4565b60208301905092915050565b60006105c883836105f2565b60208301905092915050565b6105dd816107e2565b82525050565b6105ec816107e2565b82525050565b6105fb816107e2565b82525050565b600061060c82610776565b61061681856107a6565b935061062183610751565b8060005b8381101561065257815161063988826105a4565b97506106448361078c565b925050600181019050610625565b5085935050505092915050565b600061066a82610781565b61067481856107b7565b935061067f83610761565b8060005b838110156106b75761069482610900565b61069e88826105bc565b97506106a983610799565b925050600181019050610683565b5085935050505092915050565b6106d56106d082610814565b610838565b82525050565b60006106e782866106c4565b6020820191506106f782856106c4565b602082019150610707828461065f565b9150819050949350505050565b600060208201905061072960008301846105e3565b92915050565b600060208201905081810360008301526107498184610601565b905092915050565b6000819050602082019050919050565b60008190508160005260206000209050919050565b600081519050919050565b600081549050919050565b6000602082019050919050565b6000600182019050919050565b600082825260208201905092915050565b600081905092915050565b600073ffffffffffffffffffffffffffffffffffffffff82169050919050565b60006107ed826107f4565b9050919050565b600073ffffffffffffffffffffffffffffffffffffffff82169050919050565b6000819050919050565b600061083161082c83610918565b6107c2565b9050919050565b6000819050919050565b600061084d82610814565b915061085883610814565b92508261086857610867610873565b5b828206905092915050565b7f4e487b7100000000000000000000000000000000000000000000000000000000600052601260045260246000fd5b7f4e487b7100000000000000000000000000000000000000000000000000000000600052603260045260246000fd5b7f4e487b7100000000000000000000000000000000000000000000000000000000600052604160045260246000fd5b600061090c825461081e565b9050919050565b600080fd5b60008160001c9050919050565b61092e81610814565b811461093957600080fd5b5056fea2646970667358221220f27d401016df7d1440e8df5eaf8c27bdc6d31503aee706126c2e88a4f03b671d64736f6c63430008060033",
  "immutableReferences": {},
  "source": "// SPDX-License-Identifier: UNLICENSED\npragma solidity ^0.8.6;\n\ncontract Lottery {\n    address public manager;\n    address[] public players;\n\n    modifier managerOnly() {\n        require(msg.sender == manager);\n        _;\n    }\n\n    function Manager() public {\n        manager = msg.sender;\n    }\n\n    function enter() public payable {\n        require(msg.value > .01 ether);\n\n        players.push(msg.sender);\n    }\n\n    function random() private view managerOnly returns (uint256) {\n        return\n            uint256(\n                keccak256(\n                    abi.encodePacked(block.difficulty, block.timestamp, players)\n                )\n            );\n    }\n\n    function pickWinner() public managerOnly {\n        uint256 index = random() % players.length;\n        payable(players[index]).transfer(address(this).balance);\n        players = new address[](0);\n    }\n\n    function getPlayers() public view returns (address[] memory) {\n        return players;\n    }\n}\n",
  "sourcePath": "/Users/divineolokor/Desktop/blockchain/Lottery/contracts/Lottery.sol",
  "compiler": {
    "name": "solc",
    "version": "0.8.6+commit.11564f7e.Emscripten.clang"
  },
  "schemaVersion": "3.4.1",
  "updatedAt": "2021-07-15T23:26:27.728Z",
  "networkType": "ethereum",
  "devdoc": {
    "kind": "dev",
    "methods": {},
    "version": 1
  },
  "userdoc": {
    "kind": "user",
    "methods": {},
    "version": 1
  }
}