{
  "contractName": "CampaignFactory",
  "abi": [
    {
      "inputs": [
        {
          "internalType": "address",
          "name": "_masterContract",
          "type": "address"
        }
      ],
      "stateMutability": "nonpayable",
      "type": "constructor"
    },
    {
      "inputs": [
        {
          "internalType": "uint256",
          "name": "",
          "type": "uint256"
        }
      ],
      "name": "deployedCampaigns",
      "outputs": [
        {
          "internalType": "contract Campaign",
          "name": "",
          "type": "address"
        }
      ],
      "stateMutability": "view",
      "type": "function",
      "constant": true
    },
    {
      "inputs": [],
      "name": "masterContract",
      "outputs": [
        {
          "internalType": "address",
          "name": "",
          "type": "address"
        }
      ],
      "stateMutability": "view",
      "type": "function",
      "constant": true
    },
    {
      "inputs": [
        {
          "internalType": "uint256",
          "name": "minimum",
          "type": "uint256"
        }
      ],
      "name": "createCampaign",
      "outputs": [],
      "stateMutability": "nonpayable",
      "type": "function"
    },
    {
      "inputs": [],
      "name": "getDeployedCampaigns",
      "outputs": [
        {
          "internalType": "contract Campaign[]",
          "name": "",
          "type": "address[]"
        }
      ],
      "stateMutability": "view",
      "type": "function",
      "constant": true
    },
    {
      "inputs": [
        {
          "internalType": "address",
          "name": "owner",
          "type": "address"
        }
      ],
      "name": "getOwnerCampaigns",
      "outputs": [
        {
          "internalType": "contract Campaign[]",
          "name": "",
          "type": "address[]"
        }
      ],
      "stateMutability": "view",
      "type": "function",
      "constant": true
    }
  ],
  "bytecode": "0x608060405234801561001057600080fd5b506040516108b23803806108b28339818101604052810190610032919061008e565b80600160006101000a81548173ffffffffffffffffffffffffffffffffffffffff021916908373ffffffffffffffffffffffffffffffffffffffff16021790555050610109565b600081519050610088816100f2565b92915050565b6000602082840312156100a4576100a36100ed565b5b60006100b284828501610079565b91505092915050565b60006100c6826100cd565b9050919050565b600073ffffffffffffffffffffffffffffffffffffffff82169050919050565b600080fd5b6100fb816100bb565b811461010657600080fd5b50565b61079a806101186000396000f3fe608060405234801561001057600080fd5b50600436106100575760003560e01c8063339d50a51461005c5780634acb9d4f1461008c578063a3303a75146100aa578063be03de4b146100c6578063cd446e22146100f6575b600080fd5b61007660048036038101906100719190610538565b610114565b6040516100839190610654565b60405180910390f35b610094610153565b6040516100a19190610632565b60405180910390f35b6100c460048036038101906100bf9190610538565b6101e1565b005b6100e060048036038101906100db919061050b565b610384565b6040516100ed9190610632565b60405180910390f35b6100fe610451565b60405161010b9190610617565b60405180910390f35b6000818154811061012457600080fd5b906000526020600020016000915054906101000a900473ffffffffffffffffffffffffffffffffffffffff1681565b606060008054806020026020016040519081016040528092919081815260200182805480156101d757602002820191906000526020600020905b8160009054906101000a900473ffffffffffffffffffffffffffffffffffffffff1673ffffffffffffffffffffffffffffffffffffffff168152602001906001019080831161018d575b5050505050905090565b600061020e600160009054906101000a900473ffffffffffffffffffffffffffffffffffffffff16610477565b90508073ffffffffffffffffffffffffffffffffffffffff1663a1349fdd83336040518363ffffffff1660e01b815260040161024b92919061066f565b600060405180830381600087803b15801561026557600080fd5b505af1158015610279573d6000803e3d6000fd5b505050506000819080600181540180825580915050600190039060005260206000200160009091909190916101000a81548173ffffffffffffffffffffffffffffffffffffffff021916908373ffffffffffffffffffffffffffffffffffffffff160217905550600260003373ffffffffffffffffffffffffffffffffffffffff1673ffffffffffffffffffffffffffffffffffffffff168152602001908152602001600020819080600181540180825580915050600190039060005260206000200160009091909190916101000a81548173ffffffffffffffffffffffffffffffffffffffff021916908373ffffffffffffffffffffffffffffffffffffffff1602179055505050565b6060600260008373ffffffffffffffffffffffffffffffffffffffff1673ffffffffffffffffffffffffffffffffffffffff16815260200190815260200160002080548060200260200160405190810160405280929190818152602001828054801561044557602002820191906000526020600020905b8160009054906101000a900473ffffffffffffffffffffffffffffffffffffffff1673ffffffffffffffffffffffffffffffffffffffff16815260200190600101908083116103fb575b50505050509050919050565b600160009054906101000a900473ffffffffffffffffffffffffffffffffffffffff1681565b6000808260601b90506040517f3d602d80600a3d3981f3363d3d373d3d3d363d7300000000000000000000000081528160148201527f5af43d82803e903d91602b57fd5bf3000000000000000000000000000000000060288201526037816000f092505050919050565b6000813590506104f081610736565b92915050565b6000813590506105058161074d565b92915050565b60006020828403121561052157610520610731565b5b600061052f848285016104e1565b91505092915050565b60006020828403121561054e5761054d610731565b5b600061055c848285016104f6565b91505092915050565b600061057183836105ea565b60208301905092915050565b610586816106d1565b82525050565b6000610597826106a8565b6105a181856106c0565b93506105ac83610698565b8060005b838110156105dd5781516105c48882610565565b97506105cf836106b3565b9250506001810190506105b0565b5085935050505092915050565b6105f38161070d565b82525050565b6106028161070d565b82525050565b61061181610703565b82525050565b600060208201905061062c600083018461057d565b92915050565b6000602082019050818103600083015261064c818461058c565b905092915050565b600060208201905061066960008301846105f9565b92915050565b60006040820190506106846000830185610608565b610691602083018461057d565b9392505050565b6000819050602082019050919050565b600081519050919050565b6000602082019050919050565b600082825260208201905092915050565b60006106dc826106e3565b9050919050565b600073ffffffffffffffffffffffffffffffffffffffff82169050919050565b6000819050919050565b60006107188261071f565b9050919050565b600061072a826106e3565b9050919050565b600080fd5b61073f816106d1565b811461074a57600080fd5b50565b61075681610703565b811461076157600080fd5b5056fea26469706673582212209131b0681c0ac561e08fad5998fc994cc0b0d563b4e930ddb9bfff103386892e64736f6c63430008060033",
  "immutableReferences": {},
  "source": "// SPDX-License-Identifier: UNLICENSED\npragma solidity ^0.8.6;\n\nimport \"./CloneFactory.sol\";\nimport \"./Campaign.sol\";\n\ncontract CampaignFactory is CloneFactory {\n    Campaign[] public deployedCampaigns;\n    address public masterContract;\n    mapping(address => Campaign[]) campaignsByOwner;\n\n    constructor(address _masterContract) {\n        masterContract = _masterContract;\n    }\n\n    function createCampaign(uint256 minimum) public {\n        Campaign campaign = Campaign(createClone(masterContract));\n        campaign.startCampaign(minimum, msg.sender);\n        deployedCampaigns.push(campaign);\n        campaignsByOwner[msg.sender].push(campaign);\n    }\n\n    function getDeployedCampaigns() public view returns (Campaign[] memory) {\n        return deployedCampaigns;\n    }\n\n    function getOwnerCampaigns(address owner)\n        public\n        view\n        returns (Campaign[] memory)\n    {\n        return campaignsByOwner[owner];\n    }\n}\n",
  "sourcePath": "/Users/divineolokor/Desktop/blockchain/Campaign/contracts/CampaignFactory.sol",
  "compiler": {
    "name": "solc",
    "version": "0.8.6+commit.11564f7e.Emscripten.clang"
  },
  "schemaVersion": "3.4.1",
  "updatedAt": "2021-07-18T04:19:02.641Z",
  "networkType": "ethereum",
  "devdoc": {
    "kind": "dev",
    "methods": {},
    "version": 1
  },
  "userdoc": {
    "kind": "user",
    "methods": {},
    "version": 1
  }
}