{
  "contractName": "Campaign",
  "abi": [
    {
      "inputs": [
        {
          "internalType": "address",
          "name": "",
          "type": "address"
        }
      ],
      "name": "approvers",
      "outputs": [
        {
          "internalType": "bool",
          "name": "",
          "type": "bool"
        }
      ],
      "stateMutability": "view",
      "type": "function",
      "constant": true
    },
    {
      "inputs": [],
      "name": "approversCount",
      "outputs": [
        {
          "internalType": "uint256",
          "name": "",
          "type": "uint256"
        }
      ],
      "stateMutability": "view",
      "type": "function",
      "constant": true
    },
    {
      "inputs": [
        {
          "internalType": "address",
          "name": "",
          "type": "address"
        }
      ],
      "name": "contributions",
      "outputs": [
        {
          "internalType": "uint256",
          "name": "",
          "type": "uint256"
        }
      ],
      "stateMutability": "view",
      "type": "function",
      "constant": true
    },
    {
      "inputs": [],
      "name": "minimumContribution",
      "outputs": [
        {
          "internalType": "uint256",
          "name": "",
          "type": "uint256"
        }
      ],
      "stateMutability": "view",
      "type": "function",
      "constant": true
    },
    {
      "inputs": [],
      "name": "owner",
      "outputs": [
        {
          "internalType": "address",
          "name": "",
          "type": "address"
        }
      ],
      "stateMutability": "view",
      "type": "function",
      "constant": true
    },
    {
      "inputs": [
        {
          "internalType": "uint256",
          "name": "minimum",
          "type": "uint256"
        },
        {
          "internalType": "address",
          "name": "creator",
          "type": "address"
        }
      ],
      "name": "startCampaign",
      "outputs": [],
      "stateMutability": "nonpayable",
      "type": "function"
    },
    {
      "inputs": [],
      "name": "getOwner",
      "outputs": [
        {
          "internalType": "address",
          "name": "",
          "type": "address"
        }
      ],
      "stateMutability": "view",
      "type": "function",
      "constant": true
    },
    {
      "inputs": [],
      "name": "contribute",
      "outputs": [],
      "stateMutability": "payable",
      "type": "function",
      "payable": true
    },
    {
      "inputs": [],
      "name": "getContribution",
      "outputs": [
        {
          "internalType": "uint256",
          "name": "",
          "type": "uint256"
        }
      ],
      "stateMutability": "view",
      "type": "function",
      "constant": true
    },
    {
      "inputs": [
        {
          "internalType": "string",
          "name": "description",
          "type": "string"
        },
        {
          "internalType": "uint256",
          "name": "value",
          "type": "uint256"
        },
        {
          "internalType": "address payable",
          "name": "recipient",
          "type": "address"
        }
      ],
      "name": "createRequest",
      "outputs": [],
      "stateMutability": "nonpayable",
      "type": "function"
    },
    {
      "inputs": [
        {
          "internalType": "uint256",
          "name": "index",
          "type": "uint256"
        }
      ],
      "name": "approveRequest",
      "outputs": [],
      "stateMutability": "nonpayable",
      "type": "function"
    },
    {
      "inputs": [
        {
          "internalType": "uint256",
          "name": "index",
          "type": "uint256"
        }
      ],
      "name": "finalizeRequest",
      "outputs": [],
      "stateMutability": "nonpayable",
      "type": "function"
    }
  ],
  "bytecode": "0x608060405234801561001057600080fd5b50610fcf806100206000396000f3fe6080604052600436106100a75760003560e01c80638da5cb5b116100645780638da5cb5b146101ce578063937e09b1146101f9578063a1349fdd14610224578063d7bb99ba1461024d578063d7d1bbdb14610257578063f10fdf5c14610280576100a7565b806303441006146100ac5780630a144391146100d557806342e94c901461011257806382fde0931461014f578063893d20e81461017a5780638a9cfd55146101a5575b600080fd5b3480156100b857600080fd5b506100d360048036038101906100ce9190610b0d565b6102ab565b005b3480156100e157600080fd5b506100fc60048036038101906100f79190610a71565b61040f565b6040516101099190610c08565b60405180910390f35b34801561011e57600080fd5b5061013960048036038101906101349190610a71565b61042f565b6040516101469190610c63565b60405180910390f35b34801561015b57600080fd5b50610164610447565b6040516101719190610c63565b60405180910390f35b34801561018657600080fd5b5061018f61044d565b60405161019c9190610bed565b60405180910390f35b3480156101b157600080fd5b506101cc60048036038101906101c79190610a9e565b610476565b005b3480156101da57600080fd5b506101e3610619565b6040516101f09190610bed565b60405180910390f35b34801561020557600080fd5b5061020e61063d565b60405161021b9190610c63565b60405180910390f35b34801561023057600080fd5b5061024b60048036038101906102469190610b3a565b610643565b005b61025561068e565b005b34801561026357600080fd5b5061027e60048036038101906102799190610b0d565b61079a565b005b34801561028c57600080fd5b506102956108d8565b6040516102a29190610c63565b60405180910390f35b60008054906101000a900473ffffffffffffffffffffffffffffffffffffffff1673ffffffffffffffffffffffffffffffffffffffff163373ffffffffffffffffffffffffffffffffffffffff1614610339576040517f08c379a000000000000000000000000000000000000000000000000000000000815260040161033090610c23565b60405180910390fd5b60006006600083815260200190815260200160002090506004548160030154101561036357600080fd5b8060020160149054906101000a900460ff161561037f57600080fd5b8060020160009054906101000a900473ffffffffffffffffffffffffffffffffffffffff1673ffffffffffffffffffffffffffffffffffffffff166108fc82600101549081150290604051600060405180830381858888f193505050501580156103ed573d6000803e3d6000fd5b5060018160020160146101000a81548160ff0219169083151502179055505050565b60026020528060005260406000206000915054906101000a900460ff1681565b60036020528060005260406000206000915090505481565b60045481565b60008060009054906101000a900473ffffffffffffffffffffffffffffffffffffffff16905090565b60008054906101000a900473ffffffffffffffffffffffffffffffffffffffff1673ffffffffffffffffffffffffffffffffffffffff163373ffffffffffffffffffffffffffffffffffffffff1614610504576040517f08c379a00000000000000000000000000000000000000000000000000000000081526004016104fb90610c23565b60405180910390fd5b600260003373ffffffffffffffffffffffffffffffffffffffff1673ffffffffffffffffffffffffffffffffffffffff16815260200190815260200160002060009054906101000a900460ff1661055a57600080fd5b6000600660006005600081548092919061057390610e07565b919050558152602001908152602001600020905060008160030181905550828160010181905550838160000190805190602001906105b292919061091f565b50818160020160006101000a81548173ffffffffffffffffffffffffffffffffffffffff021916908373ffffffffffffffffffffffffffffffffffffffff16021790555060008160020160146101000a81548160ff02191690831515021790555050505050565b60008054906101000a900473ffffffffffffffffffffffffffffffffffffffff1681565b60015481565b806000806101000a81548173ffffffffffffffffffffffffffffffffffffffff021916908373ffffffffffffffffffffffffffffffffffffffff160217905550816001819055505050565b60015434116106d2576040517f08c379a00000000000000000000000000000000000000000000000000000000081526004016106c990610c43565b60405180910390fd5b6001600260003373ffffffffffffffffffffffffffffffffffffffff1673ffffffffffffffffffffffffffffffffffffffff16815260200190815260200160002060006101000a81548160ff0219169083151502179055506004600081548092919061073d90610e07565b919050555034600360003373ffffffffffffffffffffffffffffffffffffffff1673ffffffffffffffffffffffffffffffffffffffff16815260200190815260200160002060008282546107919190610ce5565b92505081905550565b6000600660008381526020019081526020016000209050600260003373ffffffffffffffffffffffffffffffffffffffff1673ffffffffffffffffffffffffffffffffffffffff16815260200190815260200160002060009054906101000a900460ff1661080757600080fd5b8060040160003373ffffffffffffffffffffffffffffffffffffffff1673ffffffffffffffffffffffffffffffffffffffff16815260200190815260200160002060009054906101000a900460ff161561086057600080fd5b60018160040160003373ffffffffffffffffffffffffffffffffffffffff1673ffffffffffffffffffffffffffffffffffffffff16815260200190815260200160002060006101000a81548160ff0219169083151502179055508060030160008154809291906108cf90610e07565b91905055505050565b6000600360003373ffffffffffffffffffffffffffffffffffffffff1673ffffffffffffffffffffffffffffffffffffffff16815260200190815260200160002054905090565b82805461092b90610da4565b90600052602060002090601f01602090048101928261094d5760008555610994565b82601f1061096657805160ff1916838001178555610994565b82800160010185558215610994579182015b82811115610993578251825591602001919060010190610978565b5b5090506109a191906109a5565b5090565b5b808211156109be5760008160009055506001016109a6565b5090565b60006109d56109d084610ca3565b610c7e565b9050828152602081018484840111156109f1576109f0610ee2565b5b6109fc848285610d95565b509392505050565b600081359050610a1381610f54565b92915050565b600081359050610a2881610f6b565b92915050565b600082601f830112610a4357610a42610edd565b5b8135610a538482602086016109c2565b91505092915050565b600081359050610a6b81610f82565b92915050565b600060208284031215610a8757610a86610eec565b5b6000610a9584828501610a04565b91505092915050565b600080600060608486031215610ab757610ab6610eec565b5b600084013567ffffffffffffffff811115610ad557610ad4610ee7565b5b610ae186828701610a2e565b9350506020610af286828701610a5c565b9250506040610b0386828701610a19565b9150509250925092565b600060208284031215610b2357610b22610eec565b5b6000610b3184828501610a5c565b91505092915050565b60008060408385031215610b5157610b50610eec565b5b6000610b5f85828601610a5c565b9250506020610b7085828601610a04565b9150509250929050565b610b8381610d3b565b82525050565b610b9281610d5f565b82525050565b6000610ba5601583610cd4565b9150610bb082610f02565b602082019050919050565b6000610bc8602083610cd4565b9150610bd382610f2b565b602082019050919050565b610be781610d8b565b82525050565b6000602082019050610c026000830184610b7a565b92915050565b6000602082019050610c1d6000830184610b89565b92915050565b60006020820190508181036000830152610c3c81610b98565b9050919050565b60006020820190508181036000830152610c5c81610bbb565b9050919050565b6000602082019050610c786000830184610bde565b92915050565b6000610c88610c99565b9050610c948282610dd6565b919050565b6000604051905090565b600067ffffffffffffffff821115610cbe57610cbd610eae565b5b610cc782610ef1565b9050602081019050919050565b600082825260208201905092915050565b6000610cf082610d8b565b9150610cfb83610d8b565b9250827fffffffffffffffffffffffffffffffffffffffffffffffffffffffffffffffff03821115610d3057610d2f610e50565b5b828201905092915050565b6000610d4682610d6b565b9050919050565b6000610d5882610d6b565b9050919050565b60008115159050919050565b600073ffffffffffffffffffffffffffffffffffffffff82169050919050565b6000819050919050565b82818337600083830152505050565b60006002820490506001821680610dbc57607f821691505b60208210811415610dd057610dcf610e7f565b5b50919050565b610ddf82610ef1565b810181811067ffffffffffffffff82111715610dfe57610dfd610eae565b5b80604052505050565b6000610e1282610d8b565b91507fffffffffffffffffffffffffffffffffffffffffffffffffffffffffffffffff821415610e4557610e44610e50565b5b600182019050919050565b7f4e487b7100000000000000000000000000000000000000000000000000000000600052601160045260246000fd5b7f4e487b7100000000000000000000000000000000000000000000000000000000600052602260045260246000fd5b7f4e487b7100000000000000000000000000000000000000000000000000000000600052604160045260246000fd5b600080fd5b600080fd5b600080fd5b600080fd5b6000601f19601f8301169050919050565b7f53656e646572206e6f7420617574686f72697a65640000000000000000000000600082015250565b7f4d696e696d756d20636f6e747269627574696f6e206e6f742072656163686564600082015250565b610f5d81610d3b565b8114610f6857600080fd5b50565b610f7481610d4d565b8114610f7f57600080fd5b50565b610f8b81610d8b565b8114610f9657600080fd5b5056fea26469706673582212205a6450d06222951b4975d89ce006b74bab521400ee0060e47d015d45f719af3864736f6c63430008060033",
  "immutableReferences": {},
  "source": "// SPDX-License-Identifier: UNLICENSED\npragma solidity ^0.8.6;\n\ncontract Campaign {\n    struct Request {\n        string description;\n        uint256 value;\n        address payable recipient;\n        bool complete;\n        uint256 approvalCount;\n        mapping(address => bool) approvals;\n    }\n\n    address public owner;\n    uint256 public minimumContribution;\n    mapping(address => bool) public approvers;\n    mapping(address => uint256) public contributions;\n    uint256 public approversCount;\n\n    uint256 numRequest;\n    mapping(uint256 => Request) requests;\n\n    function startCampaign(uint256 minimum, address creator) public {\n        owner = creator;\n        minimumContribution = minimum;\n    }\n\n    modifier ownerOnly() {\n        require(msg.sender == owner, \"Sender not authorized\");\n        _;\n    }\n\n    function getOwner() public view returns (address) {\n        return owner;\n    }\n\n    function contribute() public payable {\n        require(\n            msg.value > minimumContribution,\n            \"Minimum contribution not reached\"\n        );\n\n        approvers[msg.sender] = true;\n        approversCount++;\n        contributions[msg.sender] += msg.value;\n    }\n\n    function getContribution() public view returns (uint256) {\n        return contributions[msg.sender];\n    }\n\n    function createRequest(\n        string memory description,\n        uint256 value,\n        address payable recipient\n    ) public ownerOnly {\n        require(approvers[msg.sender]); // You must contribute before you can create a request\n\n        Request storage r = requests[numRequest++];\n\n        r.approvalCount = 0;\n        r.value = value;\n        r.description = description;\n        r.recipient = recipient;\n        r.complete = false;\n    }\n\n    function approveRequest(uint256 index) public {\n        Request storage request = requests[index];\n\n        require(approvers[msg.sender]); // You must be an approver to approve a request\n        require(!request.approvals[msg.sender]); // You can't approve a request twice\n\n        request.approvals[msg.sender] = true;\n        request.approvalCount++;\n    }\n\n    function finalizeRequest(uint256 index) public ownerOnly {\n        Request storage request = requests[index];\n\n        require(request.approvalCount >= approversCount); // Request approval count must be greater than or equal to the minimum approvalCount specified;\n        require(!request.complete); // Request must not be complete\n\n        request.recipient.transfer(request.value);\n\n        request.complete = true; // Mark request as complete\n    }\n}\n",
  "sourcePath": "/Users/divineolokor/Desktop/blockchain/Campaign/contracts/Campaign.sol",
  "compiler": {
    "name": "solc",
    "version": "0.8.6+commit.11564f7e.Emscripten.clang"
  },
  "schemaVersion": "3.4.1",
  "updatedAt": "2021-07-18T04:19:02.631Z",
  "networkType": "ethereum",
  "devdoc": {
    "kind": "dev",
    "methods": {},
    "version": 1
  },
  "userdoc": {
    "kind": "user",
    "methods": {},
    "version": 1
  }
}