{
  "contractName": "BaseStorage",
  "abi": [
    {
      "anonymous": false,
      "inputs": [
        {
          "indexed": true,
          "internalType": "address",
          "name": "_from",
          "type": "address"
        },
        {
          "indexed": true,
          "internalType": "address",
          "name": "_to",
          "type": "address"
        }
      ],
      "name": "OwnershipTransferred",
      "type": "event"
    },
    {
      "inputs": [],
      "name": "acceptOwnership",
      "outputs": [],
      "stateMutability": "nonpayable",
      "type": "function"
    },
    {
      "inputs": [],
      "name": "controllerAddr",
      "outputs": [
        {
          "internalType": "address",
          "name": "",
          "type": "address"
        }
      ],
      "stateMutability": "view",
      "type": "function"
    },
    {
      "inputs": [],
      "name": "newOwner",
      "outputs": [
        {
          "internalType": "address payable",
          "name": "",
          "type": "address"
        }
      ],
      "stateMutability": "view",
      "type": "function"
    },
    {
      "inputs": [],
      "name": "ownerAddr",
      "outputs": [
        {
          "internalType": "address payable",
          "name": "",
          "type": "address"
        }
      ],
      "stateMutability": "view",
      "type": "function"
    },
    {
      "inputs": [
        {
          "internalType": "address payable",
          "name": "_newOwner",
          "type": "address"
        }
      ],
      "name": "transferOwnership",
      "outputs": [],
      "stateMutability": "nonpayable",
      "type": "function"
    },
    {
      "inputs": [
        {
          "internalType": "address",
          "name": "_controllerAddr",
          "type": "address"
        }
      ],
      "name": "setControllerAddr",
      "outputs": [],
      "stateMutability": "nonpayable",
      "type": "function"
    }
  ],
  "bytecode": "0x608060405234801561001057600080fd5b50336000806101000a81548173ffffffffffffffffffffffffffffffffffffffff021916908373ffffffffffffffffffffffffffffffffffffffff160217905550610605806100606000396000f3fe608060405234801561001057600080fd5b50600436106100625760003560e01c80636981fa7d1461006757806379ba5097146100835780639c675eaa1461008d578063d4ee1d90146100ab578063ee255c57146100c9578063f2fde38b146100e7575b600080fd5b610081600480360381019061007c91906104aa565b610103565b005b61008b61019f565b005b61009561033b565b6040516100a2919061053d565b60405180910390f35b6100b361035f565b6040516100c0919061053d565b60405180910390f35b6100d1610385565b6040516100de9190610522565b60405180910390f35b61010160048036038101906100fc91906104d7565b6103ab565b005b60008054906101000a900473ffffffffffffffffffffffffffffffffffffffff1673ffffffffffffffffffffffffffffffffffffffff163373ffffffffffffffffffffffffffffffffffffffff161461015b57600080fd5b80600260006101000a81548173ffffffffffffffffffffffffffffffffffffffff021916908373ffffffffffffffffffffffffffffffffffffffff16021790555050565b600160009054906101000a900473ffffffffffffffffffffffffffffffffffffffff1673ffffffffffffffffffffffffffffffffffffffff163373ffffffffffffffffffffffffffffffffffffffff16146101f957600080fd5b600160009054906101000a900473ffffffffffffffffffffffffffffffffffffffff1673ffffffffffffffffffffffffffffffffffffffff1660008054906101000a900473ffffffffffffffffffffffffffffffffffffffff1673ffffffffffffffffffffffffffffffffffffffff167f8be0079c531659141344cd1fd0a4f28419497f9722a3daafe3b4186f6b6457e060405160405180910390a3600160009054906101000a900473ffffffffffffffffffffffffffffffffffffffff166000806101000a81548173ffffffffffffffffffffffffffffffffffffffff021916908373ffffffffffffffffffffffffffffffffffffffff1602179055506000600160006101000a81548173ffffffffffffffffffffffffffffffffffffffff021916908373ffffffffffffffffffffffffffffffffffffffff160217905550565b60008054906101000a900473ffffffffffffffffffffffffffffffffffffffff1681565b600160009054906101000a900473ffffffffffffffffffffffffffffffffffffffff1681565b600260009054906101000a900473ffffffffffffffffffffffffffffffffffffffff1681565b60008054906101000a900473ffffffffffffffffffffffffffffffffffffffff1673ffffffffffffffffffffffffffffffffffffffff163373ffffffffffffffffffffffffffffffffffffffff161461040357600080fd5b600073ffffffffffffffffffffffffffffffffffffffff168173ffffffffffffffffffffffffffffffffffffffff16141561043d57600080fd5b806000806101000a81548173ffffffffffffffffffffffffffffffffffffffff021916908373ffffffffffffffffffffffffffffffffffffffff16021790555050565b60008135905061048f816105a1565b92915050565b6000813590506104a4816105b8565b92915050565b6000602082840312156104c0576104bf61059c565b5b60006104ce84828501610480565b91505092915050565b6000602082840312156104ed576104ec61059c565b5b60006104fb84828501610495565b91505092915050565b61050d8161056a565b82525050565b61051c81610558565b82525050565b60006020820190506105376000830184610513565b92915050565b60006020820190506105526000830184610504565b92915050565b60006105638261057c565b9050919050565b60006105758261057c565b9050919050565b600073ffffffffffffffffffffffffffffffffffffffff82169050919050565b600080fd5b6105aa81610558565b81146105b557600080fd5b50565b6105c18161056a565b81146105cc57600080fd5b5056fea26469706673582212206c7a1ee00d51facf813adf2485ba11c585f271861ae7cf821f6b67431e549e8464736f6c63430008060033",
  "immutableReferences": {},
  "source": "// SPDX-License-Identifier: UNLICENSED\npragma solidity ^0.8.6;\n\nimport \"./Owned.sol\";\n\ncontract BaseStorage is Owned {\n    address public controllerAddr;\n\n    modifier onlyController() {\n        require(msg.sender == controllerAddr);\n        _;\n    }\n\n    function setControllerAddr(address _controllerAddr) public onlyOwner {\n        controllerAddr = _controllerAddr;\n    }\n}\n",
  "sourcePath": "/Users/divineolokor/Desktop/blockchain/Tweether/contracts/helpers/BaseStorage.sol",
  "compiler": {
    "name": "solc",
    "version": "0.8.6+commit.11564f7e.Emscripten.clang"
  },
  "schemaVersion": "3.4.1",
  "updatedAt": "2021-07-30T16:45:02.412Z",
  "devdoc": {
    "kind": "dev",
    "methods": {},
    "version": 1
  },
  "userdoc": {
    "kind": "user",
    "methods": {},
    "version": 1
  }
}