{
  "contractName": "ContractManager",
  "abi": [
    {
      "anonymous": false,
      "inputs": [
        {
          "indexed": true,
          "internalType": "address",
          "name": "_from",
          "type": "address"
        },
        {
          "indexed": true,
          "internalType": "address",
          "name": "_to",
          "type": "address"
        }
      ],
      "name": "OwnershipTransferred",
      "type": "event"
    },
    {
      "inputs": [],
      "name": "acceptOwnership",
      "outputs": [],
      "stateMutability": "nonpayable",
      "type": "function"
    },
    {
      "inputs": [],
      "name": "newOwner",
      "outputs": [
        {
          "internalType": "address payable",
          "name": "",
          "type": "address"
        }
      ],
      "stateMutability": "view",
      "type": "function",
      "constant": true
    },
    {
      "inputs": [],
      "name": "ownerAddr",
      "outputs": [
        {
          "internalType": "address payable",
          "name": "",
          "type": "address"
        }
      ],
      "stateMutability": "view",
      "type": "function",
      "constant": true
    },
    {
      "inputs": [
        {
          "internalType": "address payable",
          "name": "_newOwner",
          "type": "address"
        }
      ],
      "name": "transferOwnership",
      "outputs": [],
      "stateMutability": "nonpayable",
      "type": "function"
    },
    {
      "inputs": [
        {
          "internalType": "string",
          "name": "_name",
          "type": "string"
        },
        {
          "internalType": "address",
          "name": "_address",
          "type": "address"
        }
      ],
      "name": "setAddress",
      "outputs": [],
      "stateMutability": "nonpayable",
      "type": "function"
    },
    {
      "inputs": [
        {
          "internalType": "string",
          "name": "_name",
          "type": "string"
        }
      ],
      "name": "getAddress",
      "outputs": [
        {
          "internalType": "address",
          "name": "",
          "type": "address"
        }
      ],
      "stateMutability": "view",
      "type": "function",
      "constant": true
    },
    {
      "inputs": [
        {
          "internalType": "string",
          "name": "_name",
          "type": "string"
        }
      ],
      "name": "deleteAddress",
      "outputs": [],
      "stateMutability": "nonpayable",
      "type": "function"
    }
  ],
  "bytecode": "0x608060405234801561001057600080fd5b50336000806101000a81548173ffffffffffffffffffffffffffffffffffffffff021916908373ffffffffffffffffffffffffffffffffffffffff1602179055506108f4806100606000396000f3fe608060405234801561001057600080fd5b506004361061007d5760003560e01c8063bf40fac11161005b578063bf40fac1146100c6578063c193b42a146100f6578063d4ee1d9014610112578063f2fde38b146101305761007d565b806379ba5097146100825780639b2ea4bd1461008c5780639c675eaa146100a8575b600080fd5b61008a61014c565b005b6100a660048036038101906100a19190610621565b6102e8565b005b6100b0610349565b6040516100bd91906106fe565b60405180910390f35b6100e060048036038101906100db91906105d8565b61036d565b6040516100ed91906106e3565b60405180910390f35b610110600480360381019061010b91906105d8565b6103b5565b005b61011a610416565b60405161012791906106fe565b60405180910390f35b61014a600480360381019061014591906105ab565b61043c565b005b600160009054906101000a900473ffffffffffffffffffffffffffffffffffffffff1673ffffffffffffffffffffffffffffffffffffffff163373ffffffffffffffffffffffffffffffffffffffff16146101a657600080fd5b600160009054906101000a900473ffffffffffffffffffffffffffffffffffffffff1673ffffffffffffffffffffffffffffffffffffffff1660008054906101000a900473ffffffffffffffffffffffffffffffffffffffff1673ffffffffffffffffffffffffffffffffffffffff167f8be0079c531659141344cd1fd0a4f28419497f9722a3daafe3b4186f6b6457e060405160405180910390a3600160009054906101000a900473ffffffffffffffffffffffffffffffffffffffff166000806101000a81548173ffffffffffffffffffffffffffffffffffffffff021916908373ffffffffffffffffffffffffffffffffffffffff1602179055506000600160006101000a81548173ffffffffffffffffffffffffffffffffffffffff021916908373ffffffffffffffffffffffffffffffffffffffff160217905550565b806002836040516102f991906106cc565b908152602001604051809103902060006101000a81548173ffffffffffffffffffffffffffffffffffffffff021916908373ffffffffffffffffffffffffffffffffffffffff1602179055505050565b60008054906101000a900473ffffffffffffffffffffffffffffffffffffffff1681565b600060028260405161037f91906106cc565b908152602001604051809103902060009054906101000a900473ffffffffffffffffffffffffffffffffffffffff169050919050565b60006002826040516103c791906106cc565b908152602001604051809103902060006101000a81548173ffffffffffffffffffffffffffffffffffffffff021916908373ffffffffffffffffffffffffffffffffffffffff16021790555050565b600160009054906101000a900473ffffffffffffffffffffffffffffffffffffffff1681565b60008054906101000a900473ffffffffffffffffffffffffffffffffffffffff1673ffffffffffffffffffffffffffffffffffffffff163373ffffffffffffffffffffffffffffffffffffffff161461049457600080fd5b600073ffffffffffffffffffffffffffffffffffffffff168173ffffffffffffffffffffffffffffffffffffffff1614156104ce57600080fd5b806000806101000a81548173ffffffffffffffffffffffffffffffffffffffff021916908373ffffffffffffffffffffffffffffffffffffffff16021790555050565b600061052461051f8461073e565b610719565b9050828152602081018484840111156105405761053f610870565b5b61054b8482856107c9565b509392505050565b60008135905061056281610890565b92915050565b600081359050610577816108a7565b92915050565b600082601f8301126105925761059161086b565b5b81356105a2848260208601610511565b91505092915050565b6000602082840312156105c1576105c061087a565b5b60006105cf84828501610568565b91505092915050565b6000602082840312156105ee576105ed61087a565b5b600082013567ffffffffffffffff81111561060c5761060b610875565b5b6106188482850161057d565b91505092915050565b600080604083850312156106385761063761087a565b5b600083013567ffffffffffffffff81111561065657610655610875565b5b6106628582860161057d565b925050602061067385828601610553565b9150509250929050565b61068681610797565b82525050565b61069581610785565b82525050565b60006106a68261076f565b6106b0818561077a565b93506106c08185602086016107d8565b80840191505092915050565b60006106d8828461069b565b915081905092915050565b60006020820190506106f8600083018461068c565b92915050565b6000602082019050610713600083018461067d565b92915050565b6000610723610734565b905061072f828261080b565b919050565b6000604051905090565b600067ffffffffffffffff8211156107595761075861083c565b5b6107628261087f565b9050602081019050919050565b600081519050919050565b600081905092915050565b6000610790826107a9565b9050919050565b60006107a2826107a9565b9050919050565b600073ffffffffffffffffffffffffffffffffffffffff82169050919050565b82818337600083830152505050565b60005b838110156107f65780820151818401526020810190506107db565b83811115610805576000848401525b50505050565b6108148261087f565b810181811067ffffffffffffffff821117156108335761083261083c565b5b80604052505050565b7f4e487b7100000000000000000000000000000000000000000000000000000000600052604160045260246000fd5b600080fd5b600080fd5b600080fd5b600080fd5b6000601f19601f8301169050919050565b61089981610785565b81146108a457600080fd5b50565b6108b081610797565b81146108bb57600080fd5b5056fea264697066735822122065df8944ec754d27c7484ef2873a785d51e1dbf2ff816f5e2bfe00f587a6154a64736f6c63430008060033",
  "immutableReferences": {},
  "source": "// SPDX-License-Identifier: UNLICENSED\npragma solidity ^0.8.6;\n\nimport \"./helpers/Owned.sol\";\n\ncontract ContractManager is Owned {\n    mapping(string => address) addresses;\n\n    function setAddress(string memory _name, address _address) public {\n        addresses[_name] = _address;\n    }\n\n    function getAddress(string memory _name) public view returns (address) {\n        return addresses[_name];\n    }\n\n    function deleteAddress(string memory _name) public {\n        addresses[_name] = address(0);\n    }\n}\n",
  "sourcePath": "/Users/divineolokor/Desktop/blockchain/Tweether/contracts/ContractManager.sol",
  "compiler": {
    "name": "solc",
    "version": "0.8.6+commit.11564f7e.Emscripten.clang"
  },
  "schemaVersion": "3.4.1",
  "updatedAt": "2021-07-30T16:54:48.234Z",
  "networkType": "ethereum",
  "devdoc": {
    "kind": "dev",
    "methods": {},
    "version": 1
  },
  "userdoc": {
    "kind": "user",
    "methods": {},
    "version": 1
  }
}