{
  "contractName": "TweetStorage",
  "abi": [
    {
      "anonymous": false,
      "inputs": [
        {
          "indexed": true,
          "internalType": "address",
          "name": "_from",
          "type": "address"
        },
        {
          "indexed": true,
          "internalType": "address",
          "name": "_to",
          "type": "address"
        }
      ],
      "name": "OwnershipTransferred",
      "type": "event"
    },
    {
      "inputs": [],
      "name": "acceptOwnership",
      "outputs": [],
      "stateMutability": "nonpayable",
      "type": "function"
    },
    {
      "inputs": [],
      "name": "controllerAddr",
      "outputs": [
        {
          "internalType": "address",
          "name": "",
          "type": "address"
        }
      ],
      "stateMutability": "view",
      "type": "function",
      "constant": true
    },
    {
      "inputs": [],
      "name": "newOwner",
      "outputs": [
        {
          "internalType": "address payable",
          "name": "",
          "type": "address"
        }
      ],
      "stateMutability": "view",
      "type": "function",
      "constant": true
    },
    {
      "inputs": [],
      "name": "ownerAddr",
      "outputs": [
        {
          "internalType": "address payable",
          "name": "",
          "type": "address"
        }
      ],
      "stateMutability": "view",
      "type": "function",
      "constant": true
    },
    {
      "inputs": [
        {
          "internalType": "address",
          "name": "_controllerAddr",
          "type": "address"
        }
      ],
      "name": "setControllerAddr",
      "outputs": [],
      "stateMutability": "nonpayable",
      "type": "function"
    },
    {
      "inputs": [
        {
          "internalType": "address payable",
          "name": "_newOwner",
          "type": "address"
        }
      ],
      "name": "transferOwnership",
      "outputs": [],
      "stateMutability": "nonpayable",
      "type": "function"
    },
    {
      "inputs": [
        {
          "internalType": "uint256",
          "name": "",
          "type": "uint256"
        }
      ],
      "name": "tweetIds",
      "outputs": [
        {
          "internalType": "uint256",
          "name": "",
          "type": "uint256"
        }
      ],
      "stateMutability": "view",
      "type": "function",
      "constant": true
    },
    {
      "inputs": [
        {
          "internalType": "uint256",
          "name": "",
          "type": "uint256"
        }
      ],
      "name": "tweets",
      "outputs": [
        {
          "internalType": "uint256",
          "name": "id",
          "type": "uint256"
        },
        {
          "internalType": "string",
          "name": "text",
          "type": "string"
        },
        {
          "internalType": "uint256",
          "name": "userId",
          "type": "uint256"
        },
        {
          "internalType": "uint256",
          "name": "postedAt",
          "type": "uint256"
        }
      ],
      "stateMutability": "view",
      "type": "function",
      "constant": true
    },
    {
      "inputs": [
        {
          "internalType": "uint256",
          "name": "_userId",
          "type": "uint256"
        },
        {
          "internalType": "string",
          "name": "_text",
          "type": "string"
        }
      ],
      "name": "createTweet",
      "outputs": [
        {
          "internalType": "uint256",
          "name": "",
          "type": "uint256"
        }
      ],
      "stateMutability": "nonpayable",
      "type": "function"
    },
    {
      "inputs": [
        {
          "internalType": "uint256",
          "name": "_userId",
          "type": "uint256"
        }
      ],
      "name": "getTweetIdsFromUser",
      "outputs": [
        {
          "internalType": "uint256[]",
          "name": "",
          "type": "uint256[]"
        }
      ],
      "stateMutability": "view",
      "type": "function",
      "constant": true
    },
    {
      "inputs": [],
      "name": "getNumTweets",
      "outputs": [
        {
          "internalType": "uint256",
          "name": "_numTweets",
          "type": "uint256"
        }
      ],
      "stateMutability": "view",
      "type": "function",
      "constant": true
    }
  ],
  "bytecode": "0x6080604052600060065534801561001557600080fd5b50336000806101000a81548173ffffffffffffffffffffffffffffffffffffffff021916908373ffffffffffffffffffffffffffffffffffffffff160217905550610f4b806100656000396000f3fe608060405234801561001057600080fd5b50600436106100a95760003560e01c80639c675eaa116100715780639c675eaa14610164578063d4ee1d9014610182578063e8d857b0146101a0578063eb4fdc3f146101d3578063ee255c57146101f1578063f2fde38b1461020f576100a9565b806317edf66d146100ae578063317aae1b146100de5780636981fa7d1461010e57806379ba50971461012a5780637cc82f2014610134575b600080fd5b6100c860048036038101906100c39190610a04565b61022b565b6040516100d59190610bd0565b60405180910390f35b6100f860048036038101906100f39190610a04565b61024f565b6040516101059190610bae565b60405180910390f35b610128600480360381019061012391906109aa565b6102ba565b005b610132610356565b005b61014e60048036038101906101499190610a31565b6104f2565b60405161015b9190610bd0565b60405180910390f35b61016c61064e565b6040516101799190610b93565b60405180910390f35b61018a610672565b6040516101979190610b93565b60405180910390f35b6101ba60048036038101906101b59190610a04565b610698565b6040516101ca9493929190610beb565b60405180910390f35b6101db610750565b6040516101e89190610bd0565b60405180910390f35b6101f961075d565b6040516102069190610b78565b60405180910390f35b610229600480360381019061022491906109d7565b610783565b005b6005818154811061023b57600080fd5b906000526020600020016000915090505481565b6060600460008381526020019081526020016000208054806020026020016040519081016040528092919081815260200182805480156102ae57602002820191906000526020600020905b81548152602001906001019080831161029a575b50505050509050919050565b60008054906101000a900473ffffffffffffffffffffffffffffffffffffffff1673ffffffffffffffffffffffffffffffffffffffff163373ffffffffffffffffffffffffffffffffffffffff161461031257600080fd5b80600260006101000a81548173ffffffffffffffffffffffffffffffffffffffff021916908373ffffffffffffffffffffffffffffffffffffffff16021790555050565b600160009054906101000a900473ffffffffffffffffffffffffffffffffffffffff1673ffffffffffffffffffffffffffffffffffffffff163373ffffffffffffffffffffffffffffffffffffffff16146103b057600080fd5b600160009054906101000a900473ffffffffffffffffffffffffffffffffffffffff1673ffffffffffffffffffffffffffffffffffffffff1660008054906101000a900473ffffffffffffffffffffffffffffffffffffffff1673ffffffffffffffffffffffffffffffffffffffff167f8be0079c531659141344cd1fd0a4f28419497f9722a3daafe3b4186f6b6457e060405160405180910390a3600160009054906101000a900473ffffffffffffffffffffffffffffffffffffffff166000806101000a81548173ffffffffffffffffffffffffffffffffffffffff021916908373ffffffffffffffffffffffffffffffffffffffff1602179055506000600160006101000a81548173ffffffffffffffffffffffffffffffffffffffff021916908373ffffffffffffffffffffffffffffffffffffffff160217905550565b6000600260009054906101000a900473ffffffffffffffffffffffffffffffffffffffff1673ffffffffffffffffffffffffffffffffffffffff163373ffffffffffffffffffffffffffffffffffffffff161461054e57600080fd5b6006600081548092919061056190610dd5565b919050555060405180608001604052806006548152602001838152602001848152602001428152506003600060065481526020019081526020016000206000820151816000015560208201518160010190805190602001906105c4929190610858565b50604082015181600201556060820151816003015590505060046000848152602001908152602001600020600654908060018154018082558091505060019003906000526020600020016000909190919091505560056006549080600181540180825580915050600190039060005260206000200160009091909190915055600654905092915050565b60008054906101000a900473ffffffffffffffffffffffffffffffffffffffff1681565b600160009054906101000a900473ffffffffffffffffffffffffffffffffffffffff1681565b60036020528060005260406000206000915090508060000154908060010180546106c190610d72565b80601f01602080910402602001604051908101604052809291908181526020018280546106ed90610d72565b801561073a5780601f1061070f5761010080835404028352916020019161073a565b820191906000526020600020905b81548152906001019060200180831161071d57829003601f168201915b5050505050908060020154908060030154905084565b6000600580549050905090565b600260009054906101000a900473ffffffffffffffffffffffffffffffffffffffff1681565b60008054906101000a900473ffffffffffffffffffffffffffffffffffffffff1673ffffffffffffffffffffffffffffffffffffffff163373ffffffffffffffffffffffffffffffffffffffff16146107db57600080fd5b600073ffffffffffffffffffffffffffffffffffffffff168173ffffffffffffffffffffffffffffffffffffffff16141561081557600080fd5b806000806101000a81548173ffffffffffffffffffffffffffffffffffffffff021916908373ffffffffffffffffffffffffffffffffffffffff16021790555050565b82805461086490610d72565b90600052602060002090601f01602090048101928261088657600085556108cd565b82601f1061089f57805160ff19168380011785556108cd565b828001600101855582156108cd579182015b828111156108cc5782518255916020019190600101906108b1565b5b5090506108da91906108de565b5090565b5b808211156108f75760008160009055506001016108df565b5090565b600061090e61090984610c5c565b610c37565b90508281526020810184848401111561092a57610929610eb0565b5b610935848285610d30565b509392505050565b60008135905061094c81610ed0565b92915050565b60008135905061096181610ee7565b92915050565b600082601f83011261097c5761097b610eab565b5b813561098c8482602086016108fb565b91505092915050565b6000813590506109a481610efe565b92915050565b6000602082840312156109c0576109bf610eba565b5b60006109ce8482850161093d565b91505092915050565b6000602082840312156109ed576109ec610eba565b5b60006109fb84828501610952565b91505092915050565b600060208284031215610a1a57610a19610eba565b5b6000610a2884828501610995565b91505092915050565b60008060408385031215610a4857610a47610eba565b5b6000610a5685828601610995565b925050602083013567ffffffffffffffff811115610a7757610a76610eb5565b5b610a8385828601610967565b9150509250929050565b6000610a998383610b5a565b60208301905092915050565b610aae81610cf4565b82525050565b610abd81610ce2565b82525050565b6000610ace82610c9d565b610ad88185610cc0565b9350610ae383610c8d565b8060005b83811015610b14578151610afb8882610a8d565b9750610b0683610cb3565b925050600181019050610ae7565b5085935050505092915050565b6000610b2c82610ca8565b610b368185610cd1565b9350610b46818560208601610d3f565b610b4f81610ebf565b840191505092915050565b610b6381610d26565b82525050565b610b7281610d26565b82525050565b6000602082019050610b8d6000830184610ab4565b92915050565b6000602082019050610ba86000830184610aa5565b92915050565b60006020820190508181036000830152610bc88184610ac3565b905092915050565b6000602082019050610be56000830184610b69565b92915050565b6000608082019050610c006000830187610b69565b8181036020830152610c128186610b21565b9050610c216040830185610b69565b610c2e6060830184610b69565b95945050505050565b6000610c41610c52565b9050610c4d8282610da4565b919050565b6000604051905090565b600067ffffffffffffffff821115610c7757610c76610e7c565b5b610c8082610ebf565b9050602081019050919050565b6000819050602082019050919050565b600081519050919050565b600081519050919050565b6000602082019050919050565b600082825260208201905092915050565b600082825260208201905092915050565b6000610ced82610d06565b9050919050565b6000610cff82610d06565b9050919050565b600073ffffffffffffffffffffffffffffffffffffffff82169050919050565b6000819050919050565b82818337600083830152505050565b60005b83811015610d5d578082015181840152602081019050610d42565b83811115610d6c576000848401525b50505050565b60006002820490506001821680610d8a57607f821691505b60208210811415610d9e57610d9d610e4d565b5b50919050565b610dad82610ebf565b810181811067ffffffffffffffff82111715610dcc57610dcb610e7c565b5b80604052505050565b6000610de082610d26565b91507fffffffffffffffffffffffffffffffffffffffffffffffffffffffffffffffff821415610e1357610e12610e1e565b5b600182019050919050565b7f4e487b7100000000000000000000000000000000000000000000000000000000600052601160045260246000fd5b7f4e487b7100000000000000000000000000000000000000000000000000000000600052602260045260246000fd5b7f4e487b7100000000000000000000000000000000000000000000000000000000600052604160045260246000fd5b600080fd5b600080fd5b600080fd5b600080fd5b6000601f19601f8301169050919050565b610ed981610ce2565b8114610ee457600080fd5b50565b610ef081610cf4565b8114610efb57600080fd5b50565b610f0781610d26565b8114610f1257600080fd5b5056fea2646970667358221220613f4bb3f69003679d6b4d8538058a7daf41cbc7b363268731007128fdce899164736f6c63430008060033",
  "immutableReferences": {},
  "source": "// SPDX-License-Identifier: UNLICENSED\npragma solidity ^0.8.6;\n\nimport \"../helpers/BaseStorage.sol\";\n\ncontract TweetStorage is BaseStorage {\n    struct Tweet {\n        uint256 id;\n        string text;\n        uint256 userId;\n        uint256 postedAt;\n    }\n\n    mapping(uint256 => Tweet) public tweets;\n    mapping(uint256 => uint256[]) userTweetIds;\n    uint256[] public tweetIds;\n\n    uint256 latestTweetId = 0;\n\n    function createTweet(uint256 _userId, string memory _text)\n        public\n        onlyController\n        returns (uint256)\n    {\n        latestTweetId++;\n\n        tweets[latestTweetId] = Tweet(\n            latestTweetId,\n            _text,\n            _userId,\n            block.timestamp\n        );\n        userTweetIds[_userId].push(latestTweetId);\n        tweetIds.push(latestTweetId);\n\n        return latestTweetId;\n    }\n\n    function getTweetIdsFromUser(uint256 _userId)\n        public\n        view\n        returns (uint256[] memory)\n    {\n        return userTweetIds[_userId];\n    }\n\n    function getNumTweets() public view returns (uint256 _numTweets) {\n        return tweetIds.length;\n    }\n}\n",
  "sourcePath": "/Users/divineolokor/Desktop/blockchain/Tweether/contracts/tweets/TweetStorage.sol",
  "compiler": {
    "name": "solc",
    "version": "0.8.6+commit.11564f7e.Emscripten.clang"
  },
  "schemaVersion": "3.4.1",
  "updatedAt": "2021-07-30T16:54:48.230Z",
  "networkType": "ethereum",
  "devdoc": {
    "kind": "dev",
    "methods": {},
    "version": 1
  },
  "userdoc": {
    "kind": "user",
    "methods": {},
    "version": 1
  }
}