{
  "contractName": "TweetherToken",
  "abi": [
    {
      "inputs": [],
      "stateMutability": "nonpayable",
      "type": "constructor"
    },
    {
      "anonymous": false,
      "inputs": [
        {
          "indexed": true,
          "internalType": "address",
          "name": "tokenOwner",
          "type": "address"
        },
        {
          "indexed": true,
          "internalType": "address",
          "name": "spender",
          "type": "address"
        },
        {
          "indexed": false,
          "internalType": "uint256",
          "name": "tokens",
          "type": "uint256"
        }
      ],
      "name": "Approval",
      "type": "event"
    },
    {
      "anonymous": false,
      "inputs": [
        {
          "indexed": true,
          "internalType": "address",
          "name": "_from",
          "type": "address"
        },
        {
          "indexed": true,
          "internalType": "address",
          "name": "_to",
          "type": "address"
        }
      ],
      "name": "OwnershipTransferred",
      "type": "event"
    },
    {
      "anonymous": false,
      "inputs": [
        {
          "indexed": true,
          "internalType": "address",
          "name": "from",
          "type": "address"
        },
        {
          "indexed": true,
          "internalType": "address",
          "name": "to",
          "type": "address"
        },
        {
          "indexed": false,
          "internalType": "uint256",
          "name": "tokens",
          "type": "uint256"
        }
      ],
      "name": "Transfer",
      "type": "event"
    },
    {
      "stateMutability": "nonpayable",
      "type": "fallback"
    },
    {
      "inputs": [],
      "name": "FOR_FOUNDER",
      "outputs": [
        {
          "internalType": "uint256",
          "name": "",
          "type": "uint256"
        }
      ],
      "stateMutability": "view",
      "type": "function",
      "constant": true
    },
    {
      "inputs": [],
      "name": "FOR_ICO",
      "outputs": [
        {
          "internalType": "uint256",
          "name": "",
          "type": "uint256"
        }
      ],
      "stateMutability": "view",
      "type": "function",
      "constant": true
    },
    {
      "inputs": [],
      "name": "acceptOwnership",
      "outputs": [],
      "stateMutability": "nonpayable",
      "type": "function"
    },
    {
      "inputs": [],
      "name": "decimals",
      "outputs": [
        {
          "internalType": "uint8",
          "name": "",
          "type": "uint8"
        }
      ],
      "stateMutability": "view",
      "type": "function",
      "constant": true
    },
    {
      "inputs": [],
      "name": "name",
      "outputs": [
        {
          "internalType": "string",
          "name": "",
          "type": "string"
        }
      ],
      "stateMutability": "view",
      "type": "function",
      "constant": true
    },
    {
      "inputs": [],
      "name": "newOwner",
      "outputs": [
        {
          "internalType": "address payable",
          "name": "",
          "type": "address"
        }
      ],
      "stateMutability": "view",
      "type": "function",
      "constant": true
    },
    {
      "inputs": [],
      "name": "ownerAddr",
      "outputs": [
        {
          "internalType": "address payable",
          "name": "",
          "type": "address"
        }
      ],
      "stateMutability": "view",
      "type": "function",
      "constant": true
    },
    {
      "inputs": [],
      "name": "symbol",
      "outputs": [
        {
          "internalType": "string",
          "name": "",
          "type": "string"
        }
      ],
      "stateMutability": "view",
      "type": "function",
      "constant": true
    },
    {
      "inputs": [
        {
          "internalType": "address payable",
          "name": "_newOwner",
          "type": "address"
        }
      ],
      "name": "transferOwnership",
      "outputs": [],
      "stateMutability": "nonpayable",
      "type": "function"
    },
    {
      "inputs": [],
      "name": "totalSupply",
      "outputs": [
        {
          "internalType": "uint256",
          "name": "",
          "type": "uint256"
        }
      ],
      "stateMutability": "view",
      "type": "function",
      "constant": true
    },
    {
      "inputs": [
        {
          "internalType": "address",
          "name": "tokenOwner",
          "type": "address"
        }
      ],
      "name": "balanceOf",
      "outputs": [
        {
          "internalType": "uint256",
          "name": "balance",
          "type": "uint256"
        }
      ],
      "stateMutability": "view",
      "type": "function",
      "constant": true
    },
    {
      "inputs": [
        {
          "internalType": "address",
          "name": "to",
          "type": "address"
        },
        {
          "internalType": "uint256",
          "name": "tokens",
          "type": "uint256"
        }
      ],
      "name": "transfer",
      "outputs": [
        {
          "internalType": "bool",
          "name": "success",
          "type": "bool"
        }
      ],
      "stateMutability": "nonpayable",
      "type": "function"
    },
    {
      "inputs": [
        {
          "internalType": "address",
          "name": "spender",
          "type": "address"
        },
        {
          "internalType": "uint256",
          "name": "tokens",
          "type": "uint256"
        }
      ],
      "name": "approve",
      "outputs": [
        {
          "internalType": "bool",
          "name": "success",
          "type": "bool"
        }
      ],
      "stateMutability": "nonpayable",
      "type": "function"
    },
    {
      "inputs": [
        {
          "internalType": "address",
          "name": "from",
          "type": "address"
        },
        {
          "internalType": "address",
          "name": "to",
          "type": "address"
        },
        {
          "internalType": "uint256",
          "name": "tokens",
          "type": "uint256"
        }
      ],
      "name": "transferFrom",
      "outputs": [
        {
          "internalType": "bool",
          "name": "success",
          "type": "bool"
        }
      ],
      "stateMutability": "nonpayable",
      "type": "function"
    },
    {
      "inputs": [
        {
          "internalType": "address",
          "name": "tokenOwner",
          "type": "address"
        },
        {
          "internalType": "address",
          "name": "spender",
          "type": "address"
        }
      ],
      "name": "allowance",
      "outputs": [
        {
          "internalType": "uint256",
          "name": "remaining",
          "type": "uint256"
        }
      ],
      "stateMutability": "view",
      "type": "function",
      "constant": true
    },
    {
      "inputs": [
        {
          "internalType": "address",
          "name": "spender",
          "type": "address"
        },
        {
          "internalType": "uint256",
          "name": "tokens",
          "type": "uint256"
        },
        {
          "internalType": "bytes",
          "name": "data",
          "type": "bytes"
        }
      ],
      "name": "approveAndCall",
      "outputs": [
        {
          "internalType": "bool",
          "name": "success",
          "type": "bool"
        }
      ],
      "stateMutability": "nonpayable",
      "type": "function"
    },
    {
      "inputs": [
        {
          "internalType": "address",
          "name": "tokenAddress",
          "type": "address"
        },
        {
          "internalType": "uint256",
          "name": "tokens",
          "type": "uint256"
        }
      ],
      "name": "transferAnyERC20Token",
      "outputs": [
        {
          "internalType": "bool",
          "name": "success",
          "type": "bool"
        }
      ],
      "stateMutability": "nonpayable",
      "type": "function"
    },
    {
      "inputs": [
        {
          "internalType": "address",
          "name": "icoAddr",
          "type": "address"
        }
      ],
      "name": "fundICO",
      "outputs": [],
      "stateMutability": "nonpayable",
      "type": "function"
    }
  ],
  "bytecode": "0x6080604052620b71b06006556203d0906007553480156200001f57600080fd5b50336000806101000a81548173ffffffffffffffffffffffffffffffffffffffff021916908373ffffffffffffffffffffffffffffffffffffffff1602179055506040518060400160405280600381526020017f545745000000000000000000000000000000000000000000000000000000000081525060029080519060200190620000ad92919062000227565b506040518060400160405280600d81526020017f5477656574686572546f6b656e0000000000000000000000000000000000000081525060039080519060200190620000fb92919062000227565b506000600460006101000a81548160ff021916908360ff1602179055506006546007546200012a919062000305565b600581905550600554600860008060009054906101000a900473ffffffffffffffffffffffffffffffffffffffff1673ffffffffffffffffffffffffffffffffffffffff1673ffffffffffffffffffffffffffffffffffffffff1681526020019081526020016000208190555060008054906101000a900473ffffffffffffffffffffffffffffffffffffffff1673ffffffffffffffffffffffffffffffffffffffff16600073ffffffffffffffffffffffffffffffffffffffff167fddf252ad1be2c89b69c2b068fc378daa952ba7f163c4a11628f55a4df523b3ef600554604051620002199190620002e8565b60405180910390a362000400565b82805462000235906200036c565b90600052602060002090601f016020900481019282620002595760008555620002a5565b82601f106200027457805160ff1916838001178555620002a5565b82800160010185558215620002a5579182015b82811115620002a457825182559160200191906001019062000287565b5b509050620002b49190620002b8565b5090565b5b80821115620002d3576000816000905550600101620002b9565b5090565b620002e28162000362565b82525050565b6000602082019050620002ff6000830184620002d7565b92915050565b6000620003128262000362565b91506200031f8362000362565b9250827fffffffffffffffffffffffffffffffffffffffffffffffffffffffffffffffff03821115620003575762000356620003a2565b5b828201905092915050565b6000819050919050565b600060028204905060018216806200038557607f821691505b602082108114156200039c576200039b620003d1565b5b50919050565b7f4e487b7100000000000000000000000000000000000000000000000000000000600052601160045260246000fd5b7f4e487b7100000000000000000000000000000000000000000000000000000000600052602260045260246000fd5b611ba080620004106000396000f3fe608060405234801561001057600080fd5b506004361061011a5760003560e01c806395d89b41116100a2578063cd36793611610071578063cd36793614610322578063d4ee1d901461033e578063dc39d06d1461035c578063dd62ed3e1461038c578063f2fde38b146103bc5761011b565b806395d89b41146102865780639c675eaa146102a4578063a9059cbb146102c2578063cae9ca51146102f25761011b565b806323b872dd116100e957806323b872dd146101e0578063313ce5671461021057806332a52fcd1461022e57806370a082311461024c57806379ba50971461027c5761011b565b806306fdde0314610156578063095ea7b31461017457806318160ddd146101a4578063229233b6146101c25761011b565b5b6040517f08c379a000000000000000000000000000000000000000000000000000000000815260040161014d9061167f565b60405180910390fd5b61015e6103d8565b60405161016b919061163d565b60405180910390f35b61018e6004803603810190610189919061133b565b610466565b60405161019b9190611622565b60405180910390f35b6101ac610558565b6040516101b991906116ff565b60405180910390f35b6101ca610562565b6040516101d791906116ff565b60405180910390f35b6101fa60048036038101906101f591906112e8565b610568565b6040516102079190611622565b60405180910390f35b61021861089c565b604051610225919061171a565b60405180910390f35b6102366108af565b60405161024391906116ff565b60405180910390f35b6102666004803603810190610261919061124e565b6108b5565b60405161027391906116ff565b60405180910390f35b6102846108fe565b005b61028e610a9a565b60405161029b919061163d565b60405180910390f35b6102ac610b28565b6040516102b99190611592565b60405180910390f35b6102dc60048036038101906102d7919061133b565b610b4c565b6040516102e99190611622565b60405180910390f35b61030c6004803603810190610307919061137b565b610d2c565b6040516103199190611622565b60405180910390f35b61033c6004803603810190610337919061124e565b610e90565b005b610346610ef8565b6040516103539190611592565b60405180910390f35b6103766004803603810190610371919061133b565b610f1e565b6040516103839190611622565b60405180910390f35b6103a660048036038101906103a191906112a8565b61102e565b6040516103b391906116ff565b60405180910390f35b6103d660048036038101906103d1919061127b565b6110b5565b005b600380546103e59061192c565b80601f01602080910402602001604051908101604052809291908181526020018280546104119061192c565b801561045e5780601f106104335761010080835404028352916020019161045e565b820191906000526020600020905b81548152906001019060200180831161044157829003601f168201915b505050505081565b600081600960003373ffffffffffffffffffffffffffffffffffffffff1673ffffffffffffffffffffffffffffffffffffffff16815260200190815260200160002060008573ffffffffffffffffffffffffffffffffffffffff1673ffffffffffffffffffffffffffffffffffffffff168152602001908152602001600020819055508273ffffffffffffffffffffffffffffffffffffffff163373ffffffffffffffffffffffffffffffffffffffff167f8c5be1e5ebec7d5bd14f71427d1e84f3dd0314c0f7b2291e5b200ac8c7c3b9258460405161054691906116ff565b60405180910390a36001905092915050565b6000600554905090565b60075481565b60008082116105ac576040517f08c379a00000000000000000000000000000000000000000000000000000000081526004016105a3906116df565b60405180910390fd5b81600860008673ffffffffffffffffffffffffffffffffffffffff1673ffffffffffffffffffffffffffffffffffffffff16815260200190815260200160002054101561062e576040517f08c379a0000000000000000000000000000000000000000000000000000000008152600401610625906116bf565b60405180910390fd5b81600960008673ffffffffffffffffffffffffffffffffffffffff1673ffffffffffffffffffffffffffffffffffffffff16815260200190815260200160002060003373ffffffffffffffffffffffffffffffffffffffff1673ffffffffffffffffffffffffffffffffffffffff1681526020019081526020016000205410156106ed576040517f08c379a00000000000000000000000000000000000000000000000000000000081526004016106e49061165f565b60405180910390fd5b81600860003373ffffffffffffffffffffffffffffffffffffffff1673ffffffffffffffffffffffffffffffffffffffff168152602001908152602001600020600082825461073c9190611819565b9250508190555081600960008673ffffffffffffffffffffffffffffffffffffffff1673ffffffffffffffffffffffffffffffffffffffff16815260200190815260200160002060003373ffffffffffffffffffffffffffffffffffffffff1673ffffffffffffffffffffffffffffffffffffffff16815260200190815260200160002060008282546107cf9190611819565b9250508190555081600860008573ffffffffffffffffffffffffffffffffffffffff1673ffffffffffffffffffffffffffffffffffffffff168152602001908152602001600020600082825461082591906117c3565b925050819055508273ffffffffffffffffffffffffffffffffffffffff168473ffffffffffffffffffffffffffffffffffffffff167fddf252ad1be2c89b69c2b068fc378daa952ba7f163c4a11628f55a4df523b3ef8460405161088991906116ff565b60405180910390a3600190509392505050565b600460009054906101000a900460ff1681565b60065481565b6000600860008373ffffffffffffffffffffffffffffffffffffffff1673ffffffffffffffffffffffffffffffffffffffff168152602001908152602001600020549050919050565b600160009054906101000a900473ffffffffffffffffffffffffffffffffffffffff1673ffffffffffffffffffffffffffffffffffffffff163373ffffffffffffffffffffffffffffffffffffffff161461095857600080fd5b600160009054906101000a900473ffffffffffffffffffffffffffffffffffffffff1673ffffffffffffffffffffffffffffffffffffffff1660008054906101000a900473ffffffffffffffffffffffffffffffffffffffff1673ffffffffffffffffffffffffffffffffffffffff167f8be0079c531659141344cd1fd0a4f28419497f9722a3daafe3b4186f6b6457e060405160405180910390a3600160009054906101000a900473ffffffffffffffffffffffffffffffffffffffff166000806101000a81548173ffffffffffffffffffffffffffffffffffffffff021916908373ffffffffffffffffffffffffffffffffffffffff1602179055506000600160006101000a81548173ffffffffffffffffffffffffffffffffffffffff021916908373ffffffffffffffffffffffffffffffffffffffff160217905550565b60028054610aa79061192c565b80601f0160208091040260200160405190810160405280929190818152602001828054610ad39061192c565b8015610b205780601f10610af557610100808354040283529160200191610b20565b820191906000526020600020905b815481529060010190602001808311610b0357829003601f168201915b505050505081565b60008054906101000a900473ffffffffffffffffffffffffffffffffffffffff1681565b6000808211610b90576040517f08c379a0000000000000000000000000000000000000000000000000000000008152600401610b87906116df565b60405180910390fd5b81600860003373ffffffffffffffffffffffffffffffffffffffff1673ffffffffffffffffffffffffffffffffffffffff1681526020019081526020016000205411610c11576040517f08c379a0000000000000000000000000000000000000000000000000000000008152600401610c089061169f565b60405180910390fd5b81600860003373ffffffffffffffffffffffffffffffffffffffff1673ffffffffffffffffffffffffffffffffffffffff1681526020019081526020016000206000828254610c609190611819565b9250508190555081600860008573ffffffffffffffffffffffffffffffffffffffff1673ffffffffffffffffffffffffffffffffffffffff1681526020019081526020016000206000828254610cb691906117c3565b925050819055508273ffffffffffffffffffffffffffffffffffffffff163373ffffffffffffffffffffffffffffffffffffffff167fddf252ad1be2c89b69c2b068fc378daa952ba7f163c4a11628f55a4df523b3ef84604051610d1a91906116ff565b60405180910390a36001905092915050565b600082600960003373ffffffffffffffffffffffffffffffffffffffff1673ffffffffffffffffffffffffffffffffffffffff16815260200190815260200160002060008673ffffffffffffffffffffffffffffffffffffffff1673ffffffffffffffffffffffffffffffffffffffff168152602001908152602001600020819055508373ffffffffffffffffffffffffffffffffffffffff163373ffffffffffffffffffffffffffffffffffffffff167f8c5be1e5ebec7d5bd14f71427d1e84f3dd0314c0f7b2291e5b200ac8c7c3b92585604051610e0c91906116ff565b60405180910390a38373ffffffffffffffffffffffffffffffffffffffff16638f4ffcb1338530866040518563ffffffff1660e01b8152600401610e5394939291906115d6565b600060405180830381600087803b158015610e6d57600080fd5b505af1158015610e81573d6000803e3d6000fd5b50505050600190509392505050565b60008054906101000a900473ffffffffffffffffffffffffffffffffffffffff1673ffffffffffffffffffffffffffffffffffffffff163373ffffffffffffffffffffffffffffffffffffffff1614610ee857600080fd5b610ef481600654610b4c565b5050565b600160009054906101000a900473ffffffffffffffffffffffffffffffffffffffff1681565b60008060009054906101000a900473ffffffffffffffffffffffffffffffffffffffff1673ffffffffffffffffffffffffffffffffffffffff163373ffffffffffffffffffffffffffffffffffffffff1614610f7957600080fd5b8273ffffffffffffffffffffffffffffffffffffffff1663a9059cbb60008054906101000a900473ffffffffffffffffffffffffffffffffffffffff16846040518363ffffffff1660e01b8152600401610fd49291906115ad565b602060405180830381600087803b158015610fee57600080fd5b505af1158015611002573d6000803e3d6000fd5b505050506040513d601f19601f8201168201806040525081019061102691906113ea565b905092915050565b6000600960008473ffffffffffffffffffffffffffffffffffffffff1673ffffffffffffffffffffffffffffffffffffffff16815260200190815260200160002060008373ffffffffffffffffffffffffffffffffffffffff1673ffffffffffffffffffffffffffffffffffffffff16815260200190815260200160002054905092915050565b60008054906101000a900473ffffffffffffffffffffffffffffffffffffffff1673ffffffffffffffffffffffffffffffffffffffff163373ffffffffffffffffffffffffffffffffffffffff161461110d57600080fd5b600073ffffffffffffffffffffffffffffffffffffffff168173ffffffffffffffffffffffffffffffffffffffff16141561114757600080fd5b806000806101000a81548173ffffffffffffffffffffffffffffffffffffffff021916908373ffffffffffffffffffffffffffffffffffffffff16021790555050565b600061119d6111988461175a565b611735565b9050828152602081018484840111156111b9576111b8611a21565b5b6111c48482856118ea565b509392505050565b6000813590506111db81611b0e565b92915050565b6000813590506111f081611b25565b92915050565b60008151905061120581611b3c565b92915050565b600082601f8301126112205761121f611a1c565b5b813561123084826020860161118a565b91505092915050565b60008135905061124881611b53565b92915050565b60006020828403121561126457611263611a2b565b5b6000611272848285016111cc565b91505092915050565b60006020828403121561129157611290611a2b565b5b600061129f848285016111e1565b91505092915050565b600080604083850312156112bf576112be611a2b565b5b60006112cd858286016111cc565b92505060206112de858286016111cc565b9150509250929050565b60008060006060848603121561130157611300611a2b565b5b600061130f868287016111cc565b9350506020611320868287016111cc565b925050604061133186828701611239565b9150509250925092565b6000806040838503121561135257611351611a2b565b5b6000611360858286016111cc565b925050602061137185828601611239565b9150509250929050565b60008060006060848603121561139457611393611a2b565b5b60006113a2868287016111cc565b93505060206113b386828701611239565b925050604084013567ffffffffffffffff8111156113d4576113d3611a26565b5b6113e08682870161120b565b9150509250925092565b600060208284031215611400576113ff611a2b565b5b600061140e848285016111f6565b91505092915050565b611420816118b4565b82525050565b61142f8161185f565b82525050565b61143e8161184d565b82525050565b61144d81611871565b82525050565b600061145e8261178b565b61146881856117a1565b93506114788185602086016118f9565b61148181611a30565b840191505092915050565b600061149782611796565b6114a181856117b2565b93506114b18185602086016118f9565b6114ba81611a30565b840191505092915050565b60006114d26014836117b2565b91506114dd82611a41565b602082019050919050565b60006114f56013836117b2565b915061150082611a6a565b602082019050919050565b60006115186020836117b2565b915061152382611a93565b602082019050919050565b600061153b6011836117b2565b915061154682611abc565b602082019050919050565b600061155e601b836117b2565b915061156982611ae5565b602082019050919050565b61157d8161189d565b82525050565b61158c816118a7565b82525050565b60006020820190506115a76000830184611426565b92915050565b60006040820190506115c26000830185611417565b6115cf6020830184611574565b9392505050565b60006080820190506115eb6000830187611435565b6115f86020830186611574565b6116056040830185611435565b81810360608301526116178184611453565b905095945050505050565b60006020820190506116376000830184611444565b92915050565b60006020820190508181036000830152611657818461148c565b905092915050565b60006020820190508181036000830152611678816114c5565b9050919050565b60006020820190508181036000830152611698816114e8565b9050919050565b600060208201905081810360008301526116b88161150b565b9050919050565b600060208201905081810360008301526116d88161152e565b9050919050565b600060208201905081810360008301526116f881611551565b9050919050565b60006020820190506117146000830184611574565b92915050565b600060208201905061172f6000830184611583565b92915050565b600061173f611750565b905061174b828261195e565b919050565b6000604051905090565b600067ffffffffffffffff821115611775576117746119ed565b5b61177e82611a30565b9050602081019050919050565b600081519050919050565b600081519050919050565b600082825260208201905092915050565b600082825260208201905092915050565b60006117ce8261189d565b91506117d98361189d565b9250827fffffffffffffffffffffffffffffffffffffffffffffffffffffffffffffffff0382111561180e5761180d61198f565b5b828201905092915050565b60006118248261189d565b915061182f8361189d565b9250828210156118425761184161198f565b5b828203905092915050565b60006118588261187d565b9050919050565b600061186a8261187d565b9050919050565b60008115159050919050565b600073ffffffffffffffffffffffffffffffffffffffff82169050919050565b6000819050919050565b600060ff82169050919050565b60006118bf826118c6565b9050919050565b60006118d1826118d8565b9050919050565b60006118e38261187d565b9050919050565b82818337600083830152505050565b60005b838110156119175780820151818401526020810190506118fc565b83811115611926576000848401525b50505050565b6000600282049050600182168061194457607f821691505b60208210811415611958576119576119be565b5b50919050565b61196782611a30565b810181811067ffffffffffffffff82111715611986576119856119ed565b5b80604052505050565b7f4e487b7100000000000000000000000000000000000000000000000000000000600052601160045260246000fd5b7f4e487b7100000000000000000000000000000000000000000000000000000000600052602260045260246000fd5b7f4e487b7100000000000000000000000000000000000000000000000000000000600052604160045260246000fd5b600080fd5b600080fd5b600080fd5b600080fd5b6000601f19601f8301169050919050565b7f4e6f7420656e6f75676820616c6c6f77616e6365000000000000000000000000600082015250565b7f4e6f7420416363657074696e6720457468657200000000000000000000000000600082015250565b7f4e6f7420656e6f75676820746f6b656e7320696e207468652072657365727665600082015250565b7f4e6f7420656e6f75676820746f6b656e73000000000000000000000000000000600082015250565b7f596f75206e65656420746f2073656e6420736f6d652065746865720000000000600082015250565b611b178161184d565b8114611b2257600080fd5b50565b611b2e8161185f565b8114611b3957600080fd5b50565b611b4581611871565b8114611b5057600080fd5b50565b611b5c8161189d565b8114611b6757600080fd5b5056fea2646970667358221220d3891cccb2fd5389aca514c328c9c79a5024e0787a7ab4997b5b1c14c3d397f164736f6c63430008060033",
  "immutableReferences": {},
  "source": "// SPDX-License-Identifier: UNLICENSED\npragma solidity ^0.8.6;\n\nimport \"../helpers/Owned.sol\";\n\ninterface ERC20Interface {\n    function totalSupply() external view returns (uint256);\n\n    function balanceOf(address tokenOwner)\n        external\n        view\n        returns (uint256 balance);\n\n    function allowance(address tokenOwner, address spender)\n        external\n        view\n        returns (uint256 remaining);\n\n    function transfer(address to, uint256 tokens)\n        external\n        returns (bool success);\n\n    function approve(address spender, uint256 tokens)\n        external\n        returns (bool success);\n\n    function transferFrom(\n        address from,\n        address to,\n        uint256 tokens\n    ) external returns (bool success);\n\n    event Transfer(address indexed from, address indexed to, uint256 tokens);\n    event Approval(\n        address indexed tokenOwner,\n        address indexed spender,\n        uint256 tokens\n    );\n}\n\n// ----------------------------------------------------------------------------\n// Contract function to receive approval and execute function in one call\n// ----------------------------------------------------------------------------\ninterface ApproveAndCallFallBack {\n    function receiveApproval(\n        address from,\n        uint256 tokens,\n        address token,\n        bytes memory data\n    ) external;\n}\n\n// ----------------------------------------------------------------------------\n// ERC20 Token, with the addition of symbol, name and decimals and a\n// fixed supply\n// ----------------------------------------------------------------------------\ncontract TweetherToken is ERC20Interface, Owned {\n    string public symbol;\n    string public name;\n    uint8 public decimals;\n    uint256 _totalSupply;\n\n    uint256 public FOR_ICO = 750000;\n    uint256 public FOR_FOUNDER = 250000;\n\n    mapping(address => uint256) balances;\n    mapping(address => mapping(address => uint256)) allowed;\n\n    // ------------------------------------------------------------------------\n    // Constructor\n    // ------------------------------------------------------------------------\n    constructor() {\n        symbol = \"TWE\";\n        name = \"TweetherToken\";\n        decimals = 0;\n        _totalSupply = FOR_FOUNDER + FOR_ICO;\n        balances[ownerAddr] = _totalSupply;\n        emit Transfer(address(0), ownerAddr, _totalSupply);\n    }\n\n    function totalSupply() external view virtual override returns (uint256) {\n        return _totalSupply;\n    }\n\n    // ------------------------------------------------------------------------\n    // Get the token balance for account `tokenOwner`\n    // ------------------------------------------------------------------------\n    function balanceOf(address tokenOwner)\n        public\n        view\n        virtual\n        override\n        returns (uint256 balance)\n    {\n        return balances[tokenOwner];\n    }\n\n    // ------------------------------------------------------------------------\n    // Transfer the balance from token owner's account to `to` account\n    // - Owner's account must have sufficient balance to transfer\n    // - 0 value transfers are allowed\n    // ------------------------------------------------------------------------\n    function transfer(address to, uint256 tokens)\n        public\n        virtual\n        override\n        returns (bool success)\n    {\n        require(tokens > 0, \"You need to send some ether\");\n        require(\n            balances[msg.sender] > tokens,\n            \"Not enough tokens in the reserve\"\n        );\n        balances[msg.sender] -= tokens;\n        balances[to] += tokens;\n        emit Transfer(msg.sender, to, tokens);\n        return true;\n    }\n\n    // ------------------------------------------------------------------------\n    // Token owner can approve for `spender` to transferFrom(...) `tokens`\n    // from the token owner's account\n    //\n    // https://github.com/ethereum/EIPs/blob/master/EIPS/eip-20-token-standard.md\n    // recommends that there are no checks for the approval double-spend attack\n    // as this should be implemented in user interfaces\n    // ------------------------------------------------------------------------\n    function approve(address spender, uint256 tokens)\n        public\n        virtual\n        override\n        returns (bool success)\n    {\n        allowed[msg.sender][spender] = tokens;\n        emit Approval(msg.sender, spender, tokens);\n        return true;\n    }\n\n    // ------------------------------------------------------------------------\n    // Transfer `tokens` from the `from` account to the `to` account\n    //\n    // The calling account must already have sufficient tokens approve(...)-d\n    // for spending from the `from` account and\n    // - From account must have sufficient balance to transfer\n    // - Spender must have sufficient allowance to transfer\n    // - 0 value transfers are allowed\n    // ------------------------------------------------------------------------\n    function transferFrom(\n        address from,\n        address to,\n        uint256 tokens\n    ) public virtual override returns (bool success) {\n        require(tokens > 0, \"You need to send some ether\");\n        require(balances[from] >= tokens, \"Not enough tokens\"); // the owner's balance can take this\n        require(allowed[from][msg.sender] >= tokens, \"Not enough allowance\"); // the allowed delegated transfer isnt crossed\n        balances[msg.sender] -= tokens;\n        allowed[from][msg.sender] -= tokens;\n        balances[to] += tokens;\n        emit Transfer(from, to, tokens);\n        return true;\n    }\n\n    // ------------------------------------------------------------------------\n    // Returns the amount of tokens approved by the owner that can be\n    // transferred to the spender's account\n    // ------------------------------------------------------------------------\n    function allowance(address tokenOwner, address spender)\n        public\n        view\n        virtual\n        override\n        returns (uint256 remaining)\n    {\n        return allowed[tokenOwner][spender];\n    }\n\n    // ------------------------------------------------------------------------\n    // Token owner can approve for `spender` to transferFrom(...) `tokens`\n    // from the token owner's account. The `spender` contract function\n    // `receiveApproval(...)` is then executed\n    // ------------------------------------------------------------------------\n    function approveAndCall(\n        address spender,\n        uint256 tokens,\n        bytes memory data\n    ) public returns (bool success) {\n        allowed[msg.sender][spender] = tokens;\n        emit Approval(msg.sender, spender, tokens);\n        ApproveAndCallFallBack(spender).receiveApproval(\n            msg.sender,\n            tokens,\n            address(this),\n            data\n        );\n        return true;\n    }\n\n    // ------------------------------------------------------------------------\n    // Don't accept ETH\n    // ------------------------------------------------------------------------\n    fallback() external {\n        revert(\"Not Accepting Ether\");\n    }\n\n    // ------------------------------------------------------------------------\n    // Owner can transfer out any accidentally sent ERC20 tokens\n    // ------------------------------------------------------------------------\n    function transferAnyERC20Token(address tokenAddress, uint256 tokens)\n        public\n        onlyOwner\n        returns (bool success)\n    {\n        return ERC20Interface(tokenAddress).transfer(ownerAddr, tokens);\n    }\n\n    function fundICO(address icoAddr) public onlyOwner {\n        transfer(icoAddr, FOR_ICO);\n    }\n}\n",
  "sourcePath": "/Users/divineolokor/Desktop/blockchain/Tweether/contracts/token/TweetherToken.sol",
  "compiler": {
    "name": "solc",
    "version": "0.8.6+commit.11564f7e.Emscripten.clang"
  },
  "schemaVersion": "3.4.1",
  "updatedAt": "2021-07-30T16:56:11.644Z",
  "networkType": "ethereum",
  "devdoc": {
    "kind": "dev",
    "methods": {},
    "version": 1
  },
  "userdoc": {
    "kind": "user",
    "methods": {},
    "version": 1
  }
}