{
  "contractName": "UserStorage",
  "abi": [
    {
      "anonymous": false,
      "inputs": [
        {
          "indexed": true,
          "internalType": "address",
          "name": "_from",
          "type": "address"
        },
        {
          "indexed": true,
          "internalType": "address",
          "name": "_to",
          "type": "address"
        }
      ],
      "name": "OwnershipTransferred",
      "type": "event"
    },
    {
      "inputs": [],
      "name": "acceptOwnership",
      "outputs": [],
      "stateMutability": "nonpayable",
      "type": "function"
    },
    {
      "inputs": [
        {
          "internalType": "address",
          "name": "",
          "type": "address"
        }
      ],
      "name": "addresses",
      "outputs": [
        {
          "internalType": "uint256",
          "name": "",
          "type": "uint256"
        }
      ],
      "stateMutability": "view",
      "type": "function",
      "constant": true
    },
    {
      "inputs": [],
      "name": "controllerAddr",
      "outputs": [
        {
          "internalType": "address",
          "name": "",
          "type": "address"
        }
      ],
      "stateMutability": "view",
      "type": "function",
      "constant": true
    },
    {
      "inputs": [],
      "name": "newOwner",
      "outputs": [
        {
          "internalType": "address payable",
          "name": "",
          "type": "address"
        }
      ],
      "stateMutability": "view",
      "type": "function",
      "constant": true
    },
    {
      "inputs": [],
      "name": "ownerAddr",
      "outputs": [
        {
          "internalType": "address payable",
          "name": "",
          "type": "address"
        }
      ],
      "stateMutability": "view",
      "type": "function",
      "constant": true
    },
    {
      "inputs": [
        {
          "internalType": "uint256",
          "name": "",
          "type": "uint256"
        }
      ],
      "name": "profiles",
      "outputs": [
        {
          "internalType": "uint256",
          "name": "id",
          "type": "uint256"
        },
        {
          "internalType": "bytes32",
          "name": "username",
          "type": "bytes32"
        },
        {
          "internalType": "bytes32",
          "name": "firstName",
          "type": "bytes32"
        },
        {
          "internalType": "bytes32",
          "name": "lastName",
          "type": "bytes32"
        },
        {
          "internalType": "string",
          "name": "bio",
          "type": "string"
        },
        {
          "internalType": "string",
          "name": "gravatarEmail",
          "type": "string"
        }
      ],
      "stateMutability": "view",
      "type": "function",
      "constant": true
    },
    {
      "inputs": [
        {
          "internalType": "address",
          "name": "_controllerAddr",
          "type": "address"
        }
      ],
      "name": "setControllerAddr",
      "outputs": [],
      "stateMutability": "nonpayable",
      "type": "function"
    },
    {
      "inputs": [
        {
          "internalType": "address payable",
          "name": "_newOwner",
          "type": "address"
        }
      ],
      "name": "transferOwnership",
      "outputs": [],
      "stateMutability": "nonpayable",
      "type": "function"
    },
    {
      "inputs": [
        {
          "internalType": "bytes32",
          "name": "",
          "type": "bytes32"
        }
      ],
      "name": "usernames",
      "outputs": [
        {
          "internalType": "uint256",
          "name": "",
          "type": "uint256"
        }
      ],
      "stateMutability": "view",
      "type": "function",
      "constant": true
    },
    {
      "inputs": [
        {
          "internalType": "address",
          "name": "_address",
          "type": "address"
        },
        {
          "internalType": "bytes32",
          "name": "_username",
          "type": "bytes32"
        },
        {
          "internalType": "bytes32",
          "name": "_firstName",
          "type": "bytes32"
        },
        {
          "internalType": "bytes32",
          "name": "_lastName",
          "type": "bytes32"
        },
        {
          "internalType": "string",
          "name": "_bio",
          "type": "string"
        },
        {
          "internalType": "string",
          "name": "_gravatarEmail",
          "type": "string"
        }
      ],
      "name": "createUser",
      "outputs": [
        {
          "internalType": "uint256",
          "name": "",
          "type": "uint256"
        }
      ],
      "stateMutability": "nonpayable",
      "type": "function"
    }
  ],
  "bytecode": "0x6080604052600060065534801561001557600080fd5b50336000806101000a81548173ffffffffffffffffffffffffffffffffffffffff021916908373ffffffffffffffffffffffffffffffffffffffff160217905550610f9a806100656000396000f3fe608060405234801561001057600080fd5b506004361061009e5760003560e01c8063d399e63d11610066578063d399e63d1461014c578063d4ee1d901461017c578063ec4d88d71461019a578063ee255c57146101ca578063f2fde38b146101e85761009e565b80636981fa7d146100a357806379ba5097146100bf57806382d38954146100c95780639c675eaa146100f9578063c36fe3d614610117575b600080fd5b6100bd60048036038101906100b891906109f0565b610204565b005b6100c76102a0565b005b6100e360048036038101906100de91906109f0565b61043c565b6040516100f09190610c14565b60405180910390f35b610101610454565b60405161010e9190610bf9565b60405180910390f35b610131600480360381019061012c9190610b3c565b610478565b60405161014396959493929190610c2f565b60405180910390f35b61016660048036038101906101619190610a4a565b6105c4565b6040516101739190610c14565b60405180910390f35b610184610750565b6040516101919190610bf9565b60405180910390f35b6101b460048036038101906101af9190610b0f565b610776565b6040516101c19190610c14565b60405180910390f35b6101d261078e565b6040516101df9190610bde565b60405180910390f35b61020260048036038101906101fd9190610a1d565b6107b4565b005b60008054906101000a900473ffffffffffffffffffffffffffffffffffffffff1673ffffffffffffffffffffffffffffffffffffffff163373ffffffffffffffffffffffffffffffffffffffff161461025c57600080fd5b80600260006101000a81548173ffffffffffffffffffffffffffffffffffffffff021916908373ffffffffffffffffffffffffffffffffffffffff16021790555050565b600160009054906101000a900473ffffffffffffffffffffffffffffffffffffffff1673ffffffffffffffffffffffffffffffffffffffff163373ffffffffffffffffffffffffffffffffffffffff16146102fa57600080fd5b600160009054906101000a900473ffffffffffffffffffffffffffffffffffffffff1673ffffffffffffffffffffffffffffffffffffffff1660008054906101000a900473ffffffffffffffffffffffffffffffffffffffff1673ffffffffffffffffffffffffffffffffffffffff167f8be0079c531659141344cd1fd0a4f28419497f9722a3daafe3b4186f6b6457e060405160405180910390a3600160009054906101000a900473ffffffffffffffffffffffffffffffffffffffff166000806101000a81548173ffffffffffffffffffffffffffffffffffffffff021916908373ffffffffffffffffffffffffffffffffffffffff1602179055506000600160006101000a81548173ffffffffffffffffffffffffffffffffffffffff021916908373ffffffffffffffffffffffffffffffffffffffff160217905550565b60046020528060005260406000206000915090505481565b60008054906101000a900473ffffffffffffffffffffffffffffffffffffffff1681565b60036020528060005260406000206000915090508060000154908060010154908060020154908060030154908060040180546104b390610daa565b80601f01602080910402602001604051908101604052809291908181526020018280546104df90610daa565b801561052c5780601f106105015761010080835404028352916020019161052c565b820191906000526020600020905b81548152906001019060200180831161050f57829003601f168201915b50505050509080600501805461054190610daa565b80601f016020809104026020016040519081016040528092919081815260200182805461056d90610daa565b80156105ba5780601f1061058f576101008083540402835291602001916105ba565b820191906000526020600020905b81548152906001019060200180831161059d57829003601f168201915b5050505050905086565b6000600260009054906101000a900473ffffffffffffffffffffffffffffffffffffffff1673ffffffffffffffffffffffffffffffffffffffff163373ffffffffffffffffffffffffffffffffffffffff161461062057600080fd5b6006600081548092919061063390610e0d565b91905055506040518060c001604052806006548152602001878152602001868152602001858152602001848152602001838152506003600060065481526020019081526020016000206000820151816000015560208201518160010155604082015181600201556060820151816003015560808201518160040190805190602001906106c0929190610889565b5060a08201518160050190805190602001906106dd929190610889565b50905050600654600460008973ffffffffffffffffffffffffffffffffffffffff1673ffffffffffffffffffffffffffffffffffffffff16815260200190815260200160002081905550600654600560008881526020019081526020016000208190555060065490509695505050505050565b600160009054906101000a900473ffffffffffffffffffffffffffffffffffffffff1681565b60056020528060005260406000206000915090505481565b600260009054906101000a900473ffffffffffffffffffffffffffffffffffffffff1681565b60008054906101000a900473ffffffffffffffffffffffffffffffffffffffff1673ffffffffffffffffffffffffffffffffffffffff163373ffffffffffffffffffffffffffffffffffffffff161461080c57600080fd5b600073ffffffffffffffffffffffffffffffffffffffff168173ffffffffffffffffffffffffffffffffffffffff16141561084657600080fd5b806000806101000a81548173ffffffffffffffffffffffffffffffffffffffff021916908373ffffffffffffffffffffffffffffffffffffffff16021790555050565b82805461089590610daa565b90600052602060002090601f0160209004810192826108b757600085556108fe565b82601f106108d057805160ff19168380011785556108fe565b828001600101855582156108fe579182015b828111156108fd5782518255916020019190600101906108e2565b5b50905061090b919061090f565b5090565b5b80821115610928576000816000905550600101610910565b5090565b600061093f61093a84610cc3565b610c9e565b90508281526020810184848401111561095b5761095a610ee8565b5b610966848285610d68565b509392505050565b60008135905061097d81610f08565b92915050565b60008135905061099281610f1f565b92915050565b6000813590506109a781610f36565b92915050565b600082601f8301126109c2576109c1610ee3565b5b81356109d284826020860161092c565b91505092915050565b6000813590506109ea81610f4d565b92915050565b600060208284031215610a0657610a05610ef2565b5b6000610a148482850161096e565b91505092915050565b600060208284031215610a3357610a32610ef2565b5b6000610a4184828501610983565b91505092915050565b60008060008060008060c08789031215610a6757610a66610ef2565b5b6000610a7589828a0161096e565b9650506020610a8689828a01610998565b9550506040610a9789828a01610998565b9450506060610aa889828a01610998565b935050608087013567ffffffffffffffff811115610ac957610ac8610eed565b5b610ad589828a016109ad565b92505060a087013567ffffffffffffffff811115610af657610af5610eed565b5b610b0289828a016109ad565b9150509295509295509295565b600060208284031215610b2557610b24610ef2565b5b6000610b3384828501610998565b91505092915050565b600060208284031215610b5257610b51610ef2565b5b6000610b60848285016109db565b91505092915050565b610b7281610d22565b82525050565b610b8181610d10565b82525050565b610b9081610d34565b82525050565b6000610ba182610cf4565b610bab8185610cff565b9350610bbb818560208601610d77565b610bc481610ef7565b840191505092915050565b610bd881610d5e565b82525050565b6000602082019050610bf36000830184610b78565b92915050565b6000602082019050610c0e6000830184610b69565b92915050565b6000602082019050610c296000830184610bcf565b92915050565b600060c082019050610c446000830189610bcf565b610c516020830188610b87565b610c5e6040830187610b87565b610c6b6060830186610b87565b8181036080830152610c7d8185610b96565b905081810360a0830152610c918184610b96565b9050979650505050505050565b6000610ca8610cb9565b9050610cb48282610ddc565b919050565b6000604051905090565b600067ffffffffffffffff821115610cde57610cdd610eb4565b5b610ce782610ef7565b9050602081019050919050565b600081519050919050565b600082825260208201905092915050565b6000610d1b82610d3e565b9050919050565b6000610d2d82610d3e565b9050919050565b6000819050919050565b600073ffffffffffffffffffffffffffffffffffffffff82169050919050565b6000819050919050565b82818337600083830152505050565b60005b83811015610d95578082015181840152602081019050610d7a565b83811115610da4576000848401525b50505050565b60006002820490506001821680610dc257607f821691505b60208210811415610dd657610dd5610e85565b5b50919050565b610de582610ef7565b810181811067ffffffffffffffff82111715610e0457610e03610eb4565b5b80604052505050565b6000610e1882610d5e565b91507fffffffffffffffffffffffffffffffffffffffffffffffffffffffffffffffff821415610e4b57610e4a610e56565b5b600182019050919050565b7f4e487b7100000000000000000000000000000000000000000000000000000000600052601160045260246000fd5b7f4e487b7100000000000000000000000000000000000000000000000000000000600052602260045260246000fd5b7f4e487b7100000000000000000000000000000000000000000000000000000000600052604160045260246000fd5b600080fd5b600080fd5b600080fd5b600080fd5b6000601f19601f8301169050919050565b610f1181610d10565b8114610f1c57600080fd5b50565b610f2881610d22565b8114610f3357600080fd5b50565b610f3f81610d34565b8114610f4a57600080fd5b50565b610f5681610d5e565b8114610f6157600080fd5b5056fea2646970667358221220b9db5d7dffcfd511831becbee9c0264e8ef2c9c3d994e56963b8614c3c4e2ef364736f6c63430008060033",
  "immutableReferences": {},
  "source": "// SPDX-License-Identifier: UNLICENSED\npragma solidity ^0.8.6;\n\nimport \"../helpers/BaseStorage.sol\";\n\ncontract UserStorage is BaseStorage {\n    struct Profile {\n        uint256 id;\n        bytes32 username;\n        bytes32 firstName;\n        bytes32 lastName;\n        string bio;\n        string gravatarEmail;\n    }\n\n    mapping(uint256 => Profile) public profiles;\n    mapping(address => uint256) public addresses;\n    mapping(bytes32 => uint256) public usernames;\n\n    uint256 latestUserId = 0;\n\n    function createUser(\n        address _address,\n        bytes32 _username,\n        bytes32 _firstName,\n        bytes32 _lastName,\n        string memory _bio,\n        string memory _gravatarEmail\n    ) public onlyController returns (uint256) {\n        latestUserId++;\n\n        profiles[latestUserId] = Profile(\n            latestUserId,\n            _username,\n            _firstName,\n            _lastName,\n            _bio,\n            _gravatarEmail\n        );\n\n        addresses[_address] = latestUserId;\n        usernames[_username] = latestUserId;\n\n        return latestUserId;\n    }\n\n    // This is redundant becuase we have defined public on the profiles variable. So an automatic getter is specified on the profiles by solidity by default\n    // function getUserFromId(uint256 _userId)\n    //     public\n    //     view\n    //     returns (uint256, bytes32)\n    // {\n    //     return (profiles[_userId].id, profiles[_userId].username);\n    // }\n}\n",
  "sourcePath": "/Users/divineolokor/Desktop/blockchain/Tweether/contracts/users/UserStorage.sol",
  "compiler": {
    "name": "solc",
    "version": "0.8.6+commit.11564f7e.Emscripten.clang"
  },
  "schemaVersion": "3.4.1",
  "updatedAt": "2021-07-30T16:53:14.394Z",
  "networkType": "ethereum",
  "devdoc": {
    "kind": "dev",
    "methods": {},
    "version": 1
  },
  "userdoc": {
    "kind": "user",
    "methods": {},
    "version": 1
  }
}